{
	"Auction.sol": {
		"Auction": {
			"abi": [
				{
					"inputs": [],
					"stateMutability": "nonpayable",
					"type": "constructor"
				},
				{
					"anonymous": false,
					"inputs": [
						{
							"indexed": true,
							"internalType": "address",
							"name": "winner",
							"type": "address"
						},
						{
							"indexed": false,
							"internalType": "uint256",
							"name": "amount",
							"type": "uint256"
						}
					],
					"name": "AuctionEnded",
					"type": "event"
				},
				{
					"anonymous": false,
					"inputs": [
						{
							"indexed": true,
							"internalType": "address",
							"name": "bidder",
							"type": "address"
						},
						{
							"indexed": false,
							"internalType": "uint256",
							"name": "amount",
							"type": "uint256"
						}
					],
					"name": "NewBid",
					"type": "event"
				},
				{
					"anonymous": false,
					"inputs": [
						{
							"indexed": true,
							"internalType": "address",
							"name": "owner",
							"type": "address"
						},
						{
							"indexed": false,
							"internalType": "uint256",
							"name": "amount",
							"type": "uint256"
						}
					],
					"name": "OwnerWithdrawal",
					"type": "event"
				},
				{
					"anonymous": false,
					"inputs": [
						{
							"indexed": true,
							"internalType": "address",
							"name": "bidder",
							"type": "address"
						},
						{
							"indexed": false,
							"internalType": "uint256",
							"name": "amount",
							"type": "uint256"
						}
					],
					"name": "PartialRefund",
					"type": "event"
				},
				{
					"anonymous": false,
					"inputs": [
						{
							"indexed": true,
							"internalType": "address",
							"name": "bidder",
							"type": "address"
						},
						{
							"indexed": false,
							"internalType": "uint256",
							"name": "amount",
							"type": "uint256"
						}
					],
					"name": "Refunded",
					"type": "event"
				},
				{
					"inputs": [],
					"name": "bid",
					"outputs": [],
					"stateMutability": "payable",
					"type": "function"
				},
				{
					"inputs": [],
					"name": "commissionRate",
					"outputs": [
						{
							"internalType": "uint256",
							"name": "",
							"type": "uint256"
						}
					],
					"stateMutability": "view",
					"type": "function"
				},
				{
					"inputs": [],
					"name": "endAuction",
					"outputs": [],
					"stateMutability": "nonpayable",
					"type": "function"
				},
				{
					"inputs": [],
					"name": "endTime",
					"outputs": [
						{
							"internalType": "uint256",
							"name": "",
							"type": "uint256"
						}
					],
					"stateMutability": "view",
					"type": "function"
				},
				{
					"inputs": [],
					"name": "extensionTime",
					"outputs": [
						{
							"internalType": "uint256",
							"name": "",
							"type": "uint256"
						}
					],
					"stateMutability": "view",
					"type": "function"
				},
				{
					"inputs": [],
					"name": "getAllBids",
					"outputs": [
						{
							"components": [
								{
									"internalType": "address",
									"name": "bidderAddress",
									"type": "address"
								},
								{
									"internalType": "uint256",
									"name": "amount",
									"type": "uint256"
								}
							],
							"internalType": "struct Auction.Bidder[]",
							"name": "",
							"type": "tuple[]"
						}
					],
					"stateMutability": "view",
					"type": "function"
				},
				{
					"inputs": [],
					"name": "getRemainingTime",
					"outputs": [
						{
							"internalType": "uint256",
							"name": "",
							"type": "uint256"
						}
					],
					"stateMutability": "view",
					"type": "function"
				},
				{
					"inputs": [],
					"name": "getWinner",
					"outputs": [
						{
							"internalType": "address",
							"name": "",
							"type": "address"
						},
						{
							"internalType": "uint256",
							"name": "",
							"type": "uint256"
						}
					],
					"stateMutability": "view",
					"type": "function"
				},
				{
					"inputs": [],
					"name": "highestBidder",
					"outputs": [
						{
							"internalType": "address",
							"name": "bidderAddress",
							"type": "address"
						},
						{
							"internalType": "uint256",
							"name": "amount",
							"type": "uint256"
						}
					],
					"stateMutability": "view",
					"type": "function"
				},
				{
					"inputs": [],
					"name": "isAuctionEnded",
					"outputs": [
						{
							"internalType": "bool",
							"name": "",
							"type": "bool"
						}
					],
					"stateMutability": "view",
					"type": "function"
				},
				{
					"inputs": [],
					"name": "minBidIncrease",
					"outputs": [
						{
							"internalType": "uint256",
							"name": "",
							"type": "uint256"
						}
					],
					"stateMutability": "view",
					"type": "function"
				},
				{
					"inputs": [],
					"name": "owner",
					"outputs": [
						{
							"internalType": "address",
							"name": "",
							"type": "address"
						}
					],
					"stateMutability": "view",
					"type": "function"
				},
				{
					"inputs": [
						{
							"internalType": "address",
							"name": "",
							"type": "address"
						}
					],
					"name": "pendingReturns",
					"outputs": [
						{
							"internalType": "uint256",
							"name": "",
							"type": "uint256"
						}
					],
					"stateMutability": "view",
					"type": "function"
				},
				{
					"inputs": [],
					"name": "withdraw",
					"outputs": [],
					"stateMutability": "nonpayable",
					"type": "function"
				},
				{
					"inputs": [],
					"name": "withdrawWinningBid",
					"outputs": [],
					"stateMutability": "nonpayable",
					"type": "function"
				}
			],
			"devdoc": {
				"author": "Francisco López G",
				"details": "Implements an ETH auction system with partial refunds, commission fees, and automatic time extensions",
				"events": {
					"AuctionEnded(address,uint256)": {
						"params": {
							"amount": "Winning bid amount",
							"winner": "Address of the winning bidder"
						}
					},
					"NewBid(address,uint256)": {
						"params": {
							"amount": "Amount of the bid",
							"bidder": "Address of the bidder"
						}
					},
					"OwnerWithdrawal(address,uint256)": {
						"params": {
							"amount": "Amount withdrawn (full winning bid amount)",
							"owner": "Address of the contract owner receiving funds"
						}
					},
					"PartialRefund(address,uint256)": {
						"params": {
							"amount": "Full refund amount (no commission)",
							"bidder": "Address receiving refund"
						}
					},
					"Refunded(address,uint256)": {
						"params": {
							"amount": "Refund amount after commission",
							"bidder": "Address receiving refund"
						}
					}
				},
				"kind": "dev",
				"methods": {
					"bid()": {
						"details": "Bid must be at least 5% higher than current highest bidExtends auction time if bid is placed within last 10 minutesEmits NewBid event on successful bidAutomatically finalizes auction if time has expired"
					},
					"constructor": {
						"details": "Sets default auction parameters (7 day duration, 5% min increase, 2% commission)"
					},
					"endAuction()": {
						"details": "Can only be called by the owner after the auction end time has passedEmits `AuctionEnded` event with winner address and winning amount"
					},
					"getAllBids()": {
						"returns": {
							"_0": "Array of Bidder structs containing all bids"
						}
					},
					"getRemainingTime()": {
						"returns": {
							"_0": "secondsLeft Remaining time in seconds (0 if ended)"
						}
					},
					"getWinner()": {
						"details": "Only available after auction ends",
						"returns": {
							"_0": "Address and amount of winning bid"
						}
					},
					"withdraw()": {
						"details": "Applies commission if auction has endedEmits Refunded or PartialRefund event based on auction state"
					},
					"withdrawWinningBid()": {
						"details": "Can only be called by the owner after the auction has endedTransfers the full winning bid amount to the contract owner"
					}
				},
				"title": "Smart Contract Auction",
				"version": 1
			},
			"evm": {
				"assembly": "    /* \"Auction.sol\":238:8016  contract Auction {... */\n  mstore(0x40, 0x80)\n    /* \"Auction.sol\":1515:1774  constructor() {... */\n  callvalue\n  dup1\n  iszero\n  tag_1\n  jumpi\n  revert(0x00, 0x00)\ntag_1:\n  pop\n    /* \"Auction.sol\":1547:1557  msg.sender */\n  caller\n    /* \"Auction.sol\":1539:1544  owner */\n  0x00\n  0x00\n    /* \"Auction.sol\":1539:1557  owner = msg.sender */\n  0x0100\n  exp\n  dup2\n  sload\n  dup2\n  0xffffffffffffffffffffffffffffffffffffffff\n  mul\n  not\n  and\n  swap1\n  dup4\n  0xffffffffffffffffffffffffffffffffffffffff\n  and\n  mul\n  or\n  swap1\n  sstore\n  pop\n    /* \"Auction.sol\":1595:1601  7 days */\n  0x093a80\n    /* \"Auction.sol\":1577:1592  block.timestamp */\n  timestamp\n    /* \"Auction.sol\":1577:1601  block.timestamp + 7 days */\n  tag_4\n  swap2\n  swap1\n  tag_5\n  jump\t// in\ntag_4:\n    /* \"Auction.sol\":1567:1574  endTime */\n  0x01\n    /* \"Auction.sol\":1567:1601  endTime = block.timestamp + 7 days */\n  dup2\n  swap1\n  sstore\n  pop\n    /* \"Auction.sol\":1628:1631  105 */\n  0x69\n    /* \"Auction.sol\":1611:1625  minBidIncrease */\n  0x02\n    /* \"Auction.sol\":1611:1631  minBidIncrease = 105 */\n  dup2\n  swap1\n  sstore\n  pop\n    /* \"Auction.sol\":1681:1682  2 */\n  0x02\n    /* \"Auction.sol\":1664:1678  commissionRate */\n  0x03\n    /* \"Auction.sol\":1664:1682  commissionRate = 2 */\n  dup2\n  swap1\n  sstore\n  pop\n    /* \"Auction.sol\":1725:1735  10 minutes */\n  0x0258\n    /* \"Auction.sol\":1709:1722  extensionTime */\n  0x04\n    /* \"Auction.sol\":1709:1735  extensionTime = 10 minutes */\n  dup2\n  swap1\n  sstore\n  pop\n    /* \"Auction.sol\":1762:1767  false */\n  0x00\n    /* \"Auction.sol\":1745:1759  isAuctionEnded */\n  0x05\n  0x00\n    /* \"Auction.sol\":1745:1767  isAuctionEnded = false */\n  0x0100\n  exp\n  dup2\n  sload\n  dup2\n  0xff\n  mul\n  not\n  and\n  swap1\n  dup4\n  iszero\n  iszero\n  mul\n  or\n  swap1\n  sstore\n  pop\n    /* \"Auction.sol\":238:8016  contract Auction {... */\n  jump(tag_6)\n    /* \"#utility.yul\":7:84   */\ntag_7:\n    /* \"#utility.yul\":44:51   */\n  0x00\n    /* \"#utility.yul\":73:78   */\n  dup2\n    /* \"#utility.yul\":62:78   */\n  swap1\n  pop\n    /* \"#utility.yul\":7:84   */\n  swap2\n  swap1\n  pop\n  jump\t// out\n    /* \"#utility.yul\":90:270   */\ntag_8:\n    /* \"#utility.yul\":138:215   */\n  0x4e487b7100000000000000000000000000000000000000000000000000000000\n    /* \"#utility.yul\":135:136   */\n  0x00\n    /* \"#utility.yul\":128:216   */\n  mstore\n    /* \"#utility.yul\":235:239   */\n  0x11\n    /* \"#utility.yul\":232:233   */\n  0x04\n    /* \"#utility.yul\":225:240   */\n  mstore\n    /* \"#utility.yul\":259:263   */\n  0x24\n    /* \"#utility.yul\":256:257   */\n  0x00\n    /* \"#utility.yul\":249:264   */\n  revert\n    /* \"#utility.yul\":276:467   */\ntag_5:\n    /* \"#utility.yul\":316:319   */\n  0x00\n    /* \"#utility.yul\":335:355   */\n  tag_13\n    /* \"#utility.yul\":353:354   */\n  dup3\n    /* \"#utility.yul\":335:355   */\n  tag_7\n  jump\t// in\ntag_13:\n    /* \"#utility.yul\":330:355   */\n  swap2\n  pop\n    /* \"#utility.yul\":369:389   */\n  tag_14\n    /* \"#utility.yul\":387:388   */\n  dup4\n    /* \"#utility.yul\":369:389   */\n  tag_7\n  jump\t// in\ntag_14:\n    /* \"#utility.yul\":364:389   */\n  swap3\n  pop\n    /* \"#utility.yul\":412:413   */\n  dup3\n    /* \"#utility.yul\":409:410   */\n  dup3\n    /* \"#utility.yul\":405:414   */\n  add\n    /* \"#utility.yul\":398:414   */\n  swap1\n  pop\n    /* \"#utility.yul\":433:436   */\n  dup1\n    /* \"#utility.yul\":430:431   */\n  dup3\n    /* \"#utility.yul\":427:437   */\n  gt\n    /* \"#utility.yul\":424:460   */\n  iszero\n  tag_15\n  jumpi\n    /* \"#utility.yul\":440:458   */\n  tag_16\n  tag_8\n  jump\t// in\ntag_16:\n    /* \"#utility.yul\":424:460   */\ntag_15:\n    /* \"#utility.yul\":276:467   */\n  swap3\n  swap2\n  pop\n  pop\n  jump\t// out\n    /* \"Auction.sol\":238:8016  contract Auction {... */\ntag_6:\n  dataSize(sub_0)\n  dup1\n  dataOffset(sub_0)\n  0x00\n  codecopy\n  0x00\n  return\nstop\n\nsub_0: assembly {\n        /* \"Auction.sol\":238:8016  contract Auction {... */\n      mstore(0x40, 0x80)\n      jumpi(tag_1, lt(calldatasize, 0x04))\n      shr(0xe0, calldataload(0x00))\n      dup1\n      0x7c513c0f\n      gt\n      tag_17\n      jumpi\n      dup1\n      0x91f90157\n      gt\n      tag_18\n      jumpi\n      dup1\n      0x91f90157\n      eq\n      tag_13\n      jumpi\n      dup1\n      0xeeed1b26\n      eq\n      tag_14\n      jumpi\n      dup1\n      0xefb98bcf\n      eq\n      tag_15\n      jumpi\n      dup1\n      0xfe67a54b\n      eq\n      tag_16\n      jumpi\n      jump(tag_1)\n    tag_18:\n      dup1\n      0x7c513c0f\n      eq\n      tag_9\n      jumpi\n      dup1\n      0x8d0f6da3\n      eq\n      tag_10\n      jumpi\n      dup1\n      0x8da5cb5b\n      eq\n      tag_11\n      jumpi\n      dup1\n      0x8e7ea5b2\n      eq\n      tag_12\n      jumpi\n      jump(tag_1)\n    tag_17:\n      dup1\n      0x3197cbb6\n      gt\n      tag_19\n      jumpi\n      dup1\n      0x3197cbb6\n      eq\n      tag_5\n      jumpi\n      dup1\n      0x3ccfd60b\n      eq\n      tag_6\n      jumpi\n      dup1\n      0x43891f3a\n      eq\n      tag_7\n      jumpi\n      dup1\n      0x5ea1d6f8\n      eq\n      tag_8\n      jumpi\n      jump(tag_1)\n    tag_19:\n      dup1\n      0x1998aeef\n      eq\n      tag_2\n      jumpi\n      dup1\n      0x26b387bb\n      eq\n      tag_3\n      jumpi\n      dup1\n      0x2f49e964\n      eq\n      tag_4\n      jumpi\n    tag_1:\n      revert(0x00, 0x00)\n        /* \"Auction.sol\":3937:4925  function bid() external payable onlyActive {... */\n    tag_2:\n      tag_20\n      tag_21\n      jump\t// in\n    tag_20:\n      stop\n        /* \"Auction.sol\":1195:1244  mapping(address => uint256) public pendingReturns */\n    tag_3:\n      callvalue\n      dup1\n      iszero\n      tag_22\n      jumpi\n      revert(0x00, 0x00)\n    tag_22:\n      pop\n      tag_23\n      0x04\n      dup1\n      calldatasize\n      sub\n      dup2\n      add\n      swap1\n      tag_24\n      swap2\n      swap1\n      tag_25\n      jump\t// in\n    tag_24:\n      tag_26\n      jump\t// in\n    tag_23:\n      mload(0x40)\n      tag_27\n      swap2\n      swap1\n      tag_28\n      jump\t// in\n    tag_27:\n      mload(0x40)\n      dup1\n      swap2\n      sub\n      swap1\n      return\n        /* \"Auction.sol\":7622:8014  function withdrawWinningBid() external onlyOwner onlyEnded {... */\n    tag_4:\n      callvalue\n      dup1\n      iszero\n      tag_29\n      jumpi\n      revert(0x00, 0x00)\n    tag_29:\n      pop\n      tag_30\n      tag_31\n      jump\t// in\n    tag_30:\n      stop\n        /* \"Auction.sol\":605:627  uint256 public endTime */\n    tag_5:\n      callvalue\n      dup1\n      iszero\n      tag_32\n      jumpi\n      revert(0x00, 0x00)\n    tag_32:\n      pop\n      tag_33\n      tag_34\n      jump\t// in\n    tag_33:\n      mload(0x40)\n      tag_35\n      swap2\n      swap1\n      tag_28\n      jump\t// in\n    tag_35:\n      mload(0x40)\n      dup1\n      swap2\n      sub\n      swap1\n      return\n        /* \"Auction.sol\":5637:6374  function withdraw() external {... */\n    tag_6:\n      callvalue\n      dup1\n      iszero\n      tag_36\n      jumpi\n      revert(0x00, 0x00)\n    tag_36:\n      pop\n      tag_37\n      tag_38\n      jump\t// in\n    tag_37:\n      stop\n        /* \"Auction.sol\":1009:1035  bool public isAuctionEnded */\n    tag_7:\n      callvalue\n      dup1\n      iszero\n      tag_39\n      jumpi\n      revert(0x00, 0x00)\n    tag_39:\n      pop\n      tag_40\n      tag_41\n      jump\t// in\n    tag_40:\n      mload(0x40)\n      tag_42\n      swap2\n      swap1\n      tag_43\n      jump\t// in\n    tag_42:\n      mload(0x40)\n      dup1\n      swap2\n      sub\n      swap1\n      return\n        /* \"Auction.sol\":813:842  uint256 public commissionRate */\n    tag_8:\n      callvalue\n      dup1\n      iszero\n      tag_44\n      jumpi\n      revert(0x00, 0x00)\n    tag_44:\n      pop\n      tag_45\n      tag_46\n      jump\t// in\n    tag_45:\n      mload(0x40)\n      tag_47\n      swap2\n      swap1\n      tag_28\n      jump\t// in\n    tag_47:\n      mload(0x40)\n      dup1\n      swap2\n      sub\n      swap1\n      return\n        /* \"Auction.sol\":716:745  uint256 public minBidIncrease */\n    tag_9:\n      callvalue\n      dup1\n      iszero\n      tag_48\n      jumpi\n      revert(0x00, 0x00)\n    tag_48:\n      pop\n      tag_49\n      tag_50\n      jump\t// in\n    tag_49:\n      mload(0x40)\n      tag_51\n      swap2\n      swap1\n      tag_28\n      jump\t// in\n    tag_51:\n      mload(0x40)\n      dup1\n      swap2\n      sub\n      swap1\n      return\n        /* \"Auction.sol\":5354:5447  function getAllBids() external view returns (Bidder[] memory) {... */\n    tag_10:\n      callvalue\n      dup1\n      iszero\n      tag_52\n      jumpi\n      revert(0x00, 0x00)\n    tag_52:\n      pop\n      tag_53\n      tag_54\n      jump\t// in\n    tag_53:\n      mload(0x40)\n      tag_55\n      swap2\n      swap1\n      tag_56\n      jump\t// in\n    tag_55:\n      mload(0x40)\n      dup1\n      swap2\n      sub\n      swap1\n      return\n        /* \"Auction.sol\":527:547  address public owner */\n    tag_11:\n      callvalue\n      dup1\n      iszero\n      tag_57\n      jumpi\n      revert(0x00, 0x00)\n    tag_57:\n      pop\n      tag_58\n      tag_59\n      jump\t// in\n    tag_58:\n      mload(0x40)\n      tag_60\n      swap2\n      swap1\n      tag_61\n      jump\t// in\n    tag_60:\n      mload(0x40)\n      dup1\n      swap2\n      sub\n      swap1\n      return\n        /* \"Auction.sol\":5080:5227  function getWinner() external view onlyEnded returns (address, uint256) {... */\n    tag_12:\n      callvalue\n      dup1\n      iszero\n      tag_62\n      jumpi\n      revert(0x00, 0x00)\n    tag_62:\n      pop\n      tag_63\n      tag_64\n      jump\t// in\n    tag_63:\n      mload(0x40)\n      tag_65\n      swap3\n      swap2\n      swap1\n      tag_66\n      jump\t// in\n    tag_65:\n      mload(0x40)\n      dup1\n      swap2\n      sub\n      swap1\n      return\n        /* \"Auction.sol\":1092:1119  Bidder public highestBidder */\n    tag_13:\n      callvalue\n      dup1\n      iszero\n      tag_67\n      jumpi\n      revert(0x00, 0x00)\n    tag_67:\n      pop\n      tag_68\n      tag_69\n      jump\t// in\n    tag_68:\n      mload(0x40)\n      tag_70\n      swap3\n      swap2\n      swap1\n      tag_66\n      jump\t// in\n    tag_70:\n      mload(0x40)\n      dup1\n      swap2\n      sub\n      swap1\n      return\n        /* \"Auction.sol\":917:945  uint256 public extensionTime */\n    tag_14:\n      callvalue\n      dup1\n      iszero\n      tag_71\n      jumpi\n      revert(0x00, 0x00)\n    tag_71:\n      pop\n      tag_72\n      tag_73\n      jump\t// in\n    tag_72:\n      mload(0x40)\n      tag_74\n      swap2\n      swap1\n      tag_28\n      jump\t// in\n    tag_74:\n      mload(0x40)\n      dup1\n      swap2\n      sub\n      swap1\n      return\n        /* \"Auction.sol\":6504:6663  function getRemainingTime() external view returns (uint256) {... */\n    tag_15:\n      callvalue\n      dup1\n      iszero\n      tag_75\n      jumpi\n      revert(0x00, 0x00)\n    tag_75:\n      pop\n      tag_76\n      tag_77\n      jump\t// in\n    tag_76:\n      mload(0x40)\n      tag_78\n      swap2\n      swap1\n      tag_28\n      jump\t// in\n    tag_78:\n      mload(0x40)\n      dup1\n      swap2\n      sub\n      swap1\n      return\n        /* \"Auction.sol\":7260:7395  function endAuction() external onlyOwner {... */\n    tag_16:\n      callvalue\n      dup1\n      iszero\n      tag_79\n      jumpi\n      revert(0x00, 0x00)\n    tag_79:\n      pop\n      tag_80\n      tag_81\n      jump\t// in\n    tag_80:\n      stop\n        /* \"Auction.sol\":3937:4925  function bid() external payable onlyActive {... */\n    tag_21:\n        /* \"Auction.sol\":3288:3295  endTime */\n      sload(0x01)\n        /* \"Auction.sol\":3270:3285  block.timestamp */\n      timestamp\n        /* \"Auction.sol\":3270:3295  block.timestamp < endTime */\n      lt\n        /* \"Auction.sol\":3262:3317  require(block.timestamp < endTime, \"Auction has ended\") */\n      tag_83\n      jumpi\n      mload(0x40)\n      0x08c379a000000000000000000000000000000000000000000000000000000000\n      dup2\n      mstore\n      0x04\n      add\n      tag_84\n      swap1\n      tag_85\n      jump\t// in\n    tag_84:\n      mload(0x40)\n      dup1\n      swap2\n      sub\n      swap1\n      revert\n    tag_83:\n        /* \"Auction.sol\":3336:3350  isAuctionEnded */\n      0x05\n      0x00\n      swap1\n      sload\n      swap1\n      0x0100\n      exp\n      swap1\n      div\n      0xff\n      and\n        /* \"Auction.sol\":3335:3350  !isAuctionEnded */\n      iszero\n        /* \"Auction.sol\":3327:3382  require(!isAuctionEnded, \"Auction has been terminated\") */\n      tag_86\n      jumpi\n      mload(0x40)\n      0x08c379a000000000000000000000000000000000000000000000000000000000\n      dup2\n      mstore\n      0x04\n      add\n      tag_87\n      swap1\n      tag_88\n      jump\t// in\n    tag_87:\n      mload(0x40)\n      dup1\n      swap2\n      sub\n      swap1\n      revert\n    tag_86:\n        /* \"Auction.sol\":4010:4011  0 */\n      0x00\n        /* \"Auction.sol\":3998:4007  msg.value */\n      callvalue\n        /* \"Auction.sol\":3998:4011  msg.value > 0 */\n      gt\n        /* \"Auction.sol\":3990:4042  require(msg.value > 0, \"Bid must be greater than 0\") */\n      tag_90\n      jumpi\n      mload(0x40)\n      0x08c379a000000000000000000000000000000000000000000000000000000000\n      dup2\n      mstore\n      0x04\n      add\n      tag_91\n      swap1\n      tag_92\n      jump\t// in\n    tag_91:\n      mload(0x40)\n      dup1\n      swap2\n      sub\n      swap1\n      revert\n    tag_90:\n        /* \"Auction.sol\":4128:4131  100 */\n      0x64\n        /* \"Auction.sol\":4110:4124  minBidIncrease */\n      sload(0x02)\n        /* \"Auction.sol\":4087:4100  highestBidder */\n      0x06\n        /* \"Auction.sol\":4087:4107  highestBidder.amount */\n      0x01\n      add\n      sload\n        /* \"Auction.sol\":4087:4124  highestBidder.amount * minBidIncrease */\n      tag_93\n      swap2\n      swap1\n      tag_94\n      jump\t// in\n    tag_93:\n        /* \"Auction.sol\":4086:4131  (highestBidder.amount * minBidIncrease) / 100 */\n      tag_95\n      swap2\n      swap1\n      tag_96\n      jump\t// in\n    tag_95:\n        /* \"Auction.sol\":4073:4082  msg.value */\n      callvalue\n        /* \"Auction.sol\":4073:4131  msg.value >= (highestBidder.amount * minBidIncrease) / 100 */\n      lt\n      iszero\n        /* \"Auction.sol\":4052:4204  require(... */\n      tag_97\n      jumpi\n      mload(0x40)\n      0x08c379a000000000000000000000000000000000000000000000000000000000\n      dup2\n      mstore\n      0x04\n      add\n      tag_98\n      swap1\n      tag_99\n      jump\t// in\n    tag_98:\n      mload(0x40)\n      dup1\n      swap2\n      sub\n      swap1\n      revert\n    tag_97:\n        /* \"Auction.sol\":4330:4331  0 */\n      0x00\n        /* \"Auction.sol\":4291:4332  highestBidder.bidderAddress != address(0) */\n      0xffffffffffffffffffffffffffffffffffffffff\n      and\n        /* \"Auction.sol\":4291:4304  highestBidder */\n      0x06\n        /* \"Auction.sol\":4291:4318  highestBidder.bidderAddress */\n      0x00\n      add\n      0x00\n      swap1\n      sload\n      swap1\n      0x0100\n      exp\n      swap1\n      div\n      0xffffffffffffffffffffffffffffffffffffffff\n      and\n        /* \"Auction.sol\":4291:4332  highestBidder.bidderAddress != address(0) */\n      0xffffffffffffffffffffffffffffffffffffffff\n      and\n      eq\n        /* \"Auction.sol\":4287:4426  if (highestBidder.bidderAddress != address(0)) {... */\n      tag_100\n      jumpi\n        /* \"Auction.sol\":4395:4408  highestBidder */\n      0x06\n        /* \"Auction.sol\":4395:4415  highestBidder.amount */\n      0x01\n      add\n      sload\n        /* \"Auction.sol\":4348:4362  pendingReturns */\n      0x08\n        /* \"Auction.sol\":4348:4391  pendingReturns[highestBidder.bidderAddress] */\n      0x00\n        /* \"Auction.sol\":4363:4376  highestBidder */\n      0x06\n        /* \"Auction.sol\":4363:4390  highestBidder.bidderAddress */\n      0x00\n      add\n      0x00\n      swap1\n      sload\n      swap1\n      0x0100\n      exp\n      swap1\n      div\n      0xffffffffffffffffffffffffffffffffffffffff\n      and\n        /* \"Auction.sol\":4348:4391  pendingReturns[highestBidder.bidderAddress] */\n      0xffffffffffffffffffffffffffffffffffffffff\n      and\n      0xffffffffffffffffffffffffffffffffffffffff\n      and\n      dup2\n      mstore\n      0x20\n      add\n      swap1\n      dup2\n      mstore\n      0x20\n      add\n      0x00\n      keccak256\n      0x00\n        /* \"Auction.sol\":4348:4415  pendingReturns[highestBidder.bidderAddress] += highestBidder.amount */\n      dup3\n      dup3\n      sload\n      tag_101\n      swap2\n      swap1\n      tag_102\n      jump\t// in\n    tag_101:\n      swap3\n      pop\n      pop\n      dup2\n      swap1\n      sstore\n      pop\n        /* \"Auction.sol\":4287:4426  if (highestBidder.bidderAddress != address(0)) {... */\n    tag_100:\n        /* \"Auction.sol\":4482:4511  Bidder(msg.sender, msg.value) */\n      mload(0x40)\n      dup1\n      0x40\n      add\n      0x40\n      mstore\n      dup1\n        /* \"Auction.sol\":4489:4499  msg.sender */\n      caller\n        /* \"Auction.sol\":4482:4511  Bidder(msg.sender, msg.value) */\n      0xffffffffffffffffffffffffffffffffffffffff\n      and\n      dup2\n      mstore\n      0x20\n      add\n        /* \"Auction.sol\":4501:4510  msg.value */\n      callvalue\n        /* \"Auction.sol\":4482:4511  Bidder(msg.sender, msg.value) */\n      dup2\n      mstore\n      pop\n        /* \"Auction.sol\":4466:4479  highestBidder */\n      0x06\n        /* \"Auction.sol\":4466:4511  highestBidder = Bidder(msg.sender, msg.value) */\n      0x00\n      dup3\n      add\n      mload\n      dup2\n      0x00\n      add\n      exp(0x0100, 0x00)\n      dup2\n      sload\n      dup2\n      0xffffffffffffffffffffffffffffffffffffffff\n      mul\n      not\n      and\n      swap1\n      dup4\n      0xffffffffffffffffffffffffffffffffffffffff\n      and\n      mul\n      or\n      swap1\n      sstore\n      pop\n      0x20\n      dup3\n      add\n      mload\n      dup2\n      0x01\n      add\n      sstore\n      swap1\n      pop\n      pop\n        /* \"Auction.sol\":4521:4528  allBids */\n      0x09\n        /* \"Auction.sol\":4534:4547  highestBidder */\n      0x06\n        /* \"Auction.sol\":4521:4548  allBids.push(highestBidder) */\n      swap1\n      dup1\n      0x01\n      dup2\n      sload\n      add\n      dup1\n      dup3\n      sstore\n      dup1\n      swap2\n      pop\n      pop\n      0x01\n      swap1\n      sub\n      swap1\n      0x00\n      mstore\n      keccak256(0x00, 0x20)\n      swap1\n      0x02\n      mul\n      add\n      0x00\n      swap1\n      swap2\n      swap1\n      swap2\n      swap1\n      swap2\n      pop\n      0x00\n      dup3\n      add\n      0x00\n      swap1\n      sload\n      swap1\n      0x0100\n      exp\n      swap1\n      div\n      0xffffffffffffffffffffffffffffffffffffffff\n      and\n      dup2\n      0x00\n      add\n      exp(0x0100, 0x00)\n      dup2\n      sload\n      dup2\n      0xffffffffffffffffffffffffffffffffffffffff\n      mul\n      not\n      and\n      swap1\n      dup4\n      0xffffffffffffffffffffffffffffffffffffffff\n      and\n      mul\n      or\n      swap1\n      sstore\n      pop\n      0x01\n      dup3\n      add\n      sload\n      dup2\n      0x01\n      add\n      sstore\n      pop\n      pop\n        /* \"Auction.sol\":4663:4676  extensionTime */\n      sload(0x04)\n        /* \"Auction.sol\":4645:4660  block.timestamp */\n      timestamp\n        /* \"Auction.sol\":4635:4642  endTime */\n      sload(0x01)\n        /* \"Auction.sol\":4635:4660  endTime - block.timestamp */\n      tag_104\n      swap2\n      swap1\n      tag_105\n      jump\t// in\n    tag_104:\n        /* \"Auction.sol\":4635:4676  endTime - block.timestamp < extensionTime */\n      lt\n        /* \"Auction.sol\":4631:4727  if (endTime - block.timestamp < extensionTime) {... */\n      iszero\n      tag_106\n      jumpi\n        /* \"Auction.sol\":4703:4716  extensionTime */\n      sload(0x04)\n        /* \"Auction.sol\":4692:4699  endTime */\n      0x01\n      0x00\n        /* \"Auction.sol\":4692:4716  endTime += extensionTime */\n      dup3\n      dup3\n      sload\n      tag_107\n      swap2\n      swap1\n      tag_102\n      jump\t// in\n    tag_107:\n      swap3\n      pop\n      pop\n      dup2\n      swap1\n      sstore\n      pop\n        /* \"Auction.sol\":4631:4727  if (endTime - block.timestamp < extensionTime) {... */\n    tag_106:\n        /* \"Auction.sol\":4749:4759  msg.sender */\n      caller\n        /* \"Auction.sol\":4742:4771  NewBid(msg.sender, msg.value) */\n      0xffffffffffffffffffffffffffffffffffffffff\n      and\n      0xdd0b6c6a77960e2066c96171b4d7ac9e8b4c184011f38544afa36a5bb63ec59f\n        /* \"Auction.sol\":4761:4770  msg.value */\n      callvalue\n        /* \"Auction.sol\":4742:4771  NewBid(msg.sender, msg.value) */\n      mload(0x40)\n      tag_108\n      swap2\n      swap1\n      tag_28\n      jump\t// in\n    tag_108:\n      mload(0x40)\n      dup1\n      swap2\n      sub\n      swap1\n      log2\n        /* \"Auction.sol\":4867:4874  endTime */\n      sload(0x01)\n        /* \"Auction.sol\":4848:4863  block.timestamp */\n      timestamp\n        /* \"Auction.sol\":4848:4874  block.timestamp >= endTime */\n      lt\n        /* \"Auction.sol\":4844:4919  if (block.timestamp >= endTime) {... */\n      tag_109\n      jumpi\n        /* \"Auction.sol\":4890:4908  _finalizeAuction() */\n      tag_110\n        /* \"Auction.sol\":4890:4906  _finalizeAuction */\n      tag_111\n        /* \"Auction.sol\":4890:4908  _finalizeAuction() */\n      jump\t// in\n    tag_110:\n        /* \"Auction.sol\":4844:4919  if (block.timestamp >= endTime) {... */\n    tag_109:\n        /* \"Auction.sol\":3937:4925  function bid() external payable onlyActive {... */\n      jump\t// out\n        /* \"Auction.sol\":1195:1244  mapping(address => uint256) public pendingReturns */\n    tag_26:\n      mstore(0x20, 0x08)\n      dup1\n      0x00\n      mstore\n      keccak256(0x00, 0x40)\n      0x00\n      swap2\n      pop\n      swap1\n      pop\n      sload\n      dup2\n      jump\t// out\n        /* \"Auction.sol\":7622:8014  function withdrawWinningBid() external onlyOwner onlyEnded {... */\n    tag_31:\n        /* \"Auction.sol\":3079:3084  owner */\n      0x00\n      0x00\n      swap1\n      sload\n      swap1\n      0x0100\n      exp\n      swap1\n      div\n      0xffffffffffffffffffffffffffffffffffffffff\n      and\n        /* \"Auction.sol\":3065:3084  msg.sender == owner */\n      0xffffffffffffffffffffffffffffffffffffffff\n      and\n        /* \"Auction.sol\":3065:3075  msg.sender */\n      caller\n        /* \"Auction.sol\":3065:3084  msg.sender == owner */\n      0xffffffffffffffffffffffffffffffffffffffff\n      and\n      eq\n        /* \"Auction.sol\":3044:3151  require(... */\n      tag_113\n      jumpi\n      mload(0x40)\n      0x08c379a000000000000000000000000000000000000000000000000000000000\n      dup2\n      mstore\n      0x04\n      add\n      tag_114\n      swap1\n      tag_115\n      jump\t// in\n    tag_114:\n      mload(0x40)\n      dup1\n      swap2\n      sub\n      swap1\n      revert\n    tag_113:\n        /* \"Auction.sol\":3526:3533  endTime */\n      sload(0x01)\n        /* \"Auction.sol\":3507:3522  block.timestamp */\n      timestamp\n        /* \"Auction.sol\":3507:3533  block.timestamp >= endTime */\n      lt\n      iszero\n        /* \"Auction.sol\":3507:3551  block.timestamp >= endTime || isAuctionEnded */\n      dup1\n      tag_117\n      jumpi\n      pop\n        /* \"Auction.sol\":3537:3551  isAuctionEnded */\n      0x05\n      0x00\n      swap1\n      sload\n      swap1\n      0x0100\n      exp\n      swap1\n      div\n      0xff\n      and\n        /* \"Auction.sol\":3507:3551  block.timestamp >= endTime || isAuctionEnded */\n    tag_117:\n        /* \"Auction.sol\":3486:3600  require(... */\n      tag_118\n      jumpi\n      mload(0x40)\n      0x08c379a000000000000000000000000000000000000000000000000000000000\n      dup2\n      mstore\n      0x04\n      add\n      tag_119\n      swap1\n      tag_120\n      jump\t// in\n    tag_119:\n      mload(0x40)\n      dup1\n      swap2\n      sub\n      swap1\n      revert\n    tag_118:\n        /* \"Auction.sol\":7722:7723  0 */\n      0x00\n        /* \"Auction.sol\":7699:7712  highestBidder */\n      0x06\n        /* \"Auction.sol\":7699:7719  highestBidder.amount */\n      0x01\n      add\n      sload\n        /* \"Auction.sol\":7699:7723  highestBidder.amount > 0 */\n      gt\n        /* \"Auction.sol\":7691:7745  require(highestBidder.amount > 0, \"Already withdrawn\") */\n      tag_122\n      jumpi\n      mload(0x40)\n      0x08c379a000000000000000000000000000000000000000000000000000000000\n      dup2\n      mstore\n      0x04\n      add\n      tag_123\n      swap1\n      tag_124\n      jump\t// in\n    tag_123:\n      mload(0x40)\n      dup1\n      swap2\n      sub\n      swap1\n      revert\n    tag_122:\n        /* \"Auction.sol\":7755:7769  uint256 amount */\n      0x00\n        /* \"Auction.sol\":7772:7785  highestBidder */\n      0x06\n        /* \"Auction.sol\":7772:7792  highestBidder.amount */\n      0x01\n      add\n      sload\n        /* \"Auction.sol\":7755:7792  uint256 amount = highestBidder.amount */\n      swap1\n      pop\n        /* \"Auction.sol\":7825:7826  0 */\n      0x00\n        /* \"Auction.sol\":7802:7815  highestBidder */\n      0x06\n        /* \"Auction.sol\":7802:7822  highestBidder.amount */\n      0x01\n      add\n        /* \"Auction.sol\":7802:7826  highestBidder.amount = 0 */\n      dup2\n      swap1\n      sstore\n      pop\n        /* \"Auction.sol\":7860:7872  bool success */\n      0x00\n        /* \"Auction.sol\":7886:7891  owner */\n      0x00\n      0x00\n      swap1\n      sload\n      swap1\n      0x0100\n      exp\n      swap1\n      div\n      0xffffffffffffffffffffffffffffffffffffffff\n      and\n        /* \"Auction.sol\":7878:7897  payable(owner).call */\n      0xffffffffffffffffffffffffffffffffffffffff\n      and\n        /* \"Auction.sol\":7905:7911  amount */\n      dup3\n        /* \"Auction.sol\":7878:7916  payable(owner).call{value: amount}(\"\") */\n      mload(0x40)\n      tag_125\n      swap1\n      tag_126\n      jump\t// in\n    tag_125:\n      0x00\n      mload(0x40)\n      dup1\n      dup4\n      sub\n      dup2\n      dup6\n      dup8\n      gas\n      call\n      swap3\n      pop\n      pop\n      pop\n      returndatasize\n      dup1\n      0x00\n      dup2\n      eq\n      tag_129\n      jumpi\n      mload(0x40)\n      swap2\n      pop\n      and(add(returndatasize, 0x3f), not(0x1f))\n      dup3\n      add\n      0x40\n      mstore\n      returndatasize\n      dup3\n      mstore\n      returndatasize\n      0x00\n      0x20\n      dup5\n      add\n      returndatacopy\n      jump(tag_128)\n    tag_129:\n      0x60\n      swap2\n      pop\n    tag_128:\n      pop\n        /* \"Auction.sol\":7859:7916  (bool success, ) = payable(owner).call{value: amount}(\"\") */\n      pop\n      swap1\n      pop\n        /* \"Auction.sol\":7934:7941  success */\n      dup1\n        /* \"Auction.sol\":7926:7961  require(success, \"Transfer failed\") */\n      tag_130\n      jumpi\n      mload(0x40)\n      0x08c379a000000000000000000000000000000000000000000000000000000000\n      dup2\n      mstore\n      0x04\n      add\n      tag_131\n      swap1\n      tag_132\n      jump\t// in\n    tag_131:\n      mload(0x40)\n      dup1\n      swap2\n      sub\n      swap1\n      revert\n    tag_130:\n        /* \"Auction.sol\":7993:7998  owner */\n      0x00\n      0x00\n      swap1\n      sload\n      swap1\n      0x0100\n      exp\n      swap1\n      div\n      0xffffffffffffffffffffffffffffffffffffffff\n      and\n        /* \"Auction.sol\":7977:8007  OwnerWithdrawal(owner, amount) */\n      0xffffffffffffffffffffffffffffffffffffffff\n      and\n      0xa919fadcfa556a012bab31b15f596ea7ccd397adbf10e15f176db9055ab361c4\n        /* \"Auction.sol\":8000:8006  amount */\n      dup4\n        /* \"Auction.sol\":7977:8007  OwnerWithdrawal(owner, amount) */\n      mload(0x40)\n      tag_133\n      swap2\n      swap1\n      tag_28\n      jump\t// in\n    tag_133:\n      mload(0x40)\n      dup1\n      swap2\n      sub\n      swap1\n      log2\n        /* \"Auction.sol\":7681:8014  {... */\n      pop\n      pop\n        /* \"Auction.sol\":7622:8014  function withdrawWinningBid() external onlyOwner onlyEnded {... */\n      jump\t// out\n        /* \"Auction.sol\":605:627  uint256 public endTime */\n    tag_34:\n      sload(0x01)\n      dup2\n      jump\t// out\n        /* \"Auction.sol\":5637:6374  function withdraw() external {... */\n    tag_38:\n        /* \"Auction.sol\":5676:5694  uint256 refundable */\n      0x00\n        /* \"Auction.sol\":5697:5711  pendingReturns */\n      0x08\n        /* \"Auction.sol\":5697:5723  pendingReturns[msg.sender] */\n      0x00\n        /* \"Auction.sol\":5712:5722  msg.sender */\n      caller\n        /* \"Auction.sol\":5697:5723  pendingReturns[msg.sender] */\n      0xffffffffffffffffffffffffffffffffffffffff\n      and\n      0xffffffffffffffffffffffffffffffffffffffff\n      and\n      dup2\n      mstore\n      0x20\n      add\n      swap1\n      dup2\n      mstore\n      0x20\n      add\n      0x00\n      keccak256\n      sload\n        /* \"Auction.sol\":5676:5723  uint256 refundable = pendingReturns[msg.sender] */\n      swap1\n      pop\n        /* \"Auction.sol\":5754:5755  0 */\n      0x00\n        /* \"Auction.sol\":5741:5751  refundable */\n      dup2\n        /* \"Auction.sol\":5741:5755  refundable > 0 */\n      gt\n        /* \"Auction.sol\":5733:5779  require(refundable > 0, \"No refund available\") */\n      tag_135\n      jumpi\n      mload(0x40)\n      0x08c379a000000000000000000000000000000000000000000000000000000000\n      dup2\n      mstore\n      0x04\n      add\n      tag_136\n      swap1\n      tag_137\n      jump\t// in\n    tag_136:\n      mload(0x40)\n      dup1\n      swap2\n      sub\n      swap1\n      revert\n    tag_135:\n        /* \"Auction.sol\":5849:5850  0 */\n      0x00\n        /* \"Auction.sol\":5820:5834  pendingReturns */\n      0x08\n        /* \"Auction.sol\":5820:5846  pendingReturns[msg.sender] */\n      0x00\n        /* \"Auction.sol\":5835:5845  msg.sender */\n      caller\n        /* \"Auction.sol\":5820:5846  pendingReturns[msg.sender] */\n      0xffffffffffffffffffffffffffffffffffffffff\n      and\n      0xffffffffffffffffffffffffffffffffffffffff\n      and\n      dup2\n      mstore\n      0x20\n      add\n      swap1\n      dup2\n      mstore\n      0x20\n      add\n      0x00\n      keccak256\n        /* \"Auction.sol\":5820:5850  pendingReturns[msg.sender] = 0 */\n      dup2\n      swap1\n      sstore\n      pop\n        /* \"Auction.sol\":5925:5943  uint256 commission */\n      0x00\n        /* \"Auction.sol\":5978:5981  100 */\n      0x64\n        /* \"Auction.sol\":5960:5974  commissionRate */\n      sload(0x03)\n        /* \"Auction.sol\":5947:5957  refundable */\n      dup4\n        /* \"Auction.sol\":5947:5974  refundable * commissionRate */\n      tag_138\n      swap2\n      swap1\n      tag_94\n      jump\t// in\n    tag_138:\n        /* \"Auction.sol\":5946:5981  (refundable * commissionRate) / 100 */\n      tag_139\n      swap2\n      swap1\n      tag_96\n      jump\t// in\n    tag_139:\n        /* \"Auction.sol\":5925:5981  uint256 commission = (refundable * commissionRate) / 100 */\n      swap1\n      pop\n        /* \"Auction.sol\":5991:6009  uint256 toTransfer */\n      0x00\n        /* \"Auction.sol\":6012:6026  isAuctionEnded */\n      0x05\n      0x00\n      swap1\n      sload\n      swap1\n      0x0100\n      exp\n      swap1\n      div\n      0xff\n      and\n        /* \"Auction.sol\":6012:6089  isAuctionEnded... */\n      tag_140\n      jumpi\n        /* \"Auction.sol\":6079:6089  refundable */\n      dup3\n        /* \"Auction.sol\":6012:6089  isAuctionEnded... */\n      jump(tag_141)\n    tag_140:\n        /* \"Auction.sol\":6054:6064  commission */\n      dup2\n        /* \"Auction.sol\":6041:6051  refundable */\n      dup4\n        /* \"Auction.sol\":6041:6064  refundable - commission */\n      tag_142\n      swap2\n      swap1\n      tag_105\n      jump\t// in\n    tag_142:\n        /* \"Auction.sol\":6012:6089  isAuctionEnded... */\n    tag_141:\n        /* \"Auction.sol\":5991:6089  uint256 toTransfer = isAuctionEnded... */\n      swap1\n      pop\n        /* \"Auction.sol\":6101:6113  bool success */\n      0x00\n        /* \"Auction.sol\":6119:6129  msg.sender */\n      caller\n        /* \"Auction.sol\":6119:6134  msg.sender.call */\n      0xffffffffffffffffffffffffffffffffffffffff\n      and\n        /* \"Auction.sol\":6142:6152  toTransfer */\n      dup3\n        /* \"Auction.sol\":6119:6157  msg.sender.call{value: toTransfer}(\"\") */\n      mload(0x40)\n      tag_143\n      swap1\n      tag_126\n      jump\t// in\n    tag_143:\n      0x00\n      mload(0x40)\n      dup1\n      dup4\n      sub\n      dup2\n      dup6\n      dup8\n      gas\n      call\n      swap3\n      pop\n      pop\n      pop\n      returndatasize\n      dup1\n      0x00\n      dup2\n      eq\n      tag_146\n      jumpi\n      mload(0x40)\n      swap2\n      pop\n      and(add(returndatasize, 0x3f), not(0x1f))\n      dup3\n      add\n      0x40\n      mstore\n      returndatasize\n      dup3\n      mstore\n      returndatasize\n      0x00\n      0x20\n      dup5\n      add\n      returndatacopy\n      jump(tag_145)\n    tag_146:\n      0x60\n      swap2\n      pop\n    tag_145:\n      pop\n        /* \"Auction.sol\":6100:6157  (bool success, ) = msg.sender.call{value: toTransfer}(\"\") */\n      pop\n      swap1\n      pop\n        /* \"Auction.sol\":6175:6182  success */\n      dup1\n        /* \"Auction.sol\":6167:6202  require(success, \"Transfer failed\") */\n      tag_147\n      jumpi\n      mload(0x40)\n      0x08c379a000000000000000000000000000000000000000000000000000000000\n      dup2\n      mstore\n      0x04\n      add\n      tag_148\n      swap1\n      tag_132\n      jump\t// in\n    tag_148:\n      mload(0x40)\n      dup1\n      swap2\n      sub\n      swap1\n      revert\n    tag_147:\n        /* \"Auction.sol\":6217:6231  isAuctionEnded */\n      0x05\n      0x00\n      swap1\n      sload\n      swap1\n      0x0100\n      exp\n      swap1\n      div\n      0xff\n      and\n        /* \"Auction.sol\":6213:6368  if (isAuctionEnded) {... */\n      iszero\n      tag_149\n      jumpi\n        /* \"Auction.sol\":6261:6271  msg.sender */\n      caller\n        /* \"Auction.sol\":6252:6284  Refunded(msg.sender, toTransfer) */\n      0xffffffffffffffffffffffffffffffffffffffff\n      and\n      0xd7dee2702d63ad89917b6a4da9981c90c4d24f8c2bdfd64c604ecae57d8d0651\n        /* \"Auction.sol\":6273:6283  toTransfer */\n      dup4\n        /* \"Auction.sol\":6252:6284  Refunded(msg.sender, toTransfer) */\n      mload(0x40)\n      tag_150\n      swap2\n      swap1\n      tag_28\n      jump\t// in\n    tag_150:\n      mload(0x40)\n      dup1\n      swap2\n      sub\n      swap1\n      log2\n        /* \"Auction.sol\":6213:6368  if (isAuctionEnded) {... */\n      jump(tag_151)\n    tag_149:\n        /* \"Auction.sol\":6334:6344  msg.sender */\n      caller\n        /* \"Auction.sol\":6320:6357  PartialRefund(msg.sender, toTransfer) */\n      0xffffffffffffffffffffffffffffffffffffffff\n      and\n      0xdce68997783ae47468b6fb0dd39cca315f9082d51d9ab3df8747c70512aa8ff2\n        /* \"Auction.sol\":6346:6356  toTransfer */\n      dup4\n        /* \"Auction.sol\":6320:6357  PartialRefund(msg.sender, toTransfer) */\n      mload(0x40)\n      tag_152\n      swap2\n      swap1\n      tag_28\n      jump\t// in\n    tag_152:\n      mload(0x40)\n      dup1\n      swap2\n      sub\n      swap1\n      log2\n        /* \"Auction.sol\":6213:6368  if (isAuctionEnded) {... */\n    tag_151:\n        /* \"Auction.sol\":5666:6374  {... */\n      pop\n      pop\n      pop\n      pop\n        /* \"Auction.sol\":5637:6374  function withdraw() external {... */\n      jump\t// out\n        /* \"Auction.sol\":1009:1035  bool public isAuctionEnded */\n    tag_41:\n      0x05\n      0x00\n      swap1\n      sload\n      swap1\n      0x0100\n      exp\n      swap1\n      div\n      0xff\n      and\n      dup2\n      jump\t// out\n        /* \"Auction.sol\":813:842  uint256 public commissionRate */\n    tag_46:\n      sload(0x03)\n      dup2\n      jump\t// out\n        /* \"Auction.sol\":716:745  uint256 public minBidIncrease */\n    tag_50:\n      sload(0x02)\n      dup2\n      jump\t// out\n        /* \"Auction.sol\":5354:5447  function getAllBids() external view returns (Bidder[] memory) {... */\n    tag_54:\n        /* \"Auction.sol\":5399:5414  Bidder[] memory */\n      0x60\n        /* \"Auction.sol\":5433:5440  allBids */\n      0x09\n        /* \"Auction.sol\":5426:5440  return allBids */\n      dup1\n      sload\n      dup1\n      0x20\n      mul\n      0x20\n      add\n      mload(0x40)\n      swap1\n      dup2\n      add\n      0x40\n      mstore\n      dup1\n      swap3\n      swap2\n      swap1\n      dup2\n      dup2\n      mstore\n      0x20\n      add\n      0x00\n      swap1\n    tag_154:\n      dup3\n      dup3\n      lt\n      iszero\n      tag_155\n      jumpi\n      dup4\n      dup3\n      swap1\n      0x00\n      mstore\n      keccak256(0x00, 0x20)\n      swap1\n      0x02\n      mul\n      add\n      mload(0x40)\n      dup1\n      0x40\n      add\n      0x40\n      mstore\n      swap1\n      dup2\n      0x00\n      dup3\n      add\n      0x00\n      swap1\n      sload\n      swap1\n      0x0100\n      exp\n      swap1\n      div\n      0xffffffffffffffffffffffffffffffffffffffff\n      and\n      0xffffffffffffffffffffffffffffffffffffffff\n      and\n      0xffffffffffffffffffffffffffffffffffffffff\n      and\n      dup2\n      mstore\n      0x20\n      add\n      0x01\n      dup3\n      add\n      sload\n      dup2\n      mstore\n      pop\n      pop\n      dup2\n      mstore\n      0x20\n      add\n      swap1\n      0x01\n      add\n      swap1\n      jump(tag_154)\n    tag_155:\n      pop\n      pop\n      pop\n      pop\n      swap1\n      pop\n        /* \"Auction.sol\":5354:5447  function getAllBids() external view returns (Bidder[] memory) {... */\n      swap1\n      jump\t// out\n        /* \"Auction.sol\":527:547  address public owner */\n    tag_59:\n      0x00\n      0x00\n      swap1\n      sload\n      swap1\n      0x0100\n      exp\n      swap1\n      div\n      0xffffffffffffffffffffffffffffffffffffffff\n      and\n      dup2\n      jump\t// out\n        /* \"Auction.sol\":5080:5227  function getWinner() external view onlyEnded returns (address, uint256) {... */\n    tag_64:\n        /* \"Auction.sol\":5134:5141  address */\n      0x00\n        /* \"Auction.sol\":5143:5150  uint256 */\n      0x00\n        /* \"Auction.sol\":3526:3533  endTime */\n      sload(0x01)\n        /* \"Auction.sol\":3507:3522  block.timestamp */\n      timestamp\n        /* \"Auction.sol\":3507:3533  block.timestamp >= endTime */\n      lt\n      iszero\n        /* \"Auction.sol\":3507:3551  block.timestamp >= endTime || isAuctionEnded */\n      dup1\n      tag_158\n      jumpi\n      pop\n        /* \"Auction.sol\":3537:3551  isAuctionEnded */\n      0x05\n      0x00\n      swap1\n      sload\n      swap1\n      0x0100\n      exp\n      swap1\n      div\n      0xff\n      and\n        /* \"Auction.sol\":3507:3551  block.timestamp >= endTime || isAuctionEnded */\n    tag_158:\n        /* \"Auction.sol\":3486:3600  require(... */\n      tag_159\n      jumpi\n      mload(0x40)\n      0x08c379a000000000000000000000000000000000000000000000000000000000\n      dup2\n      mstore\n      0x04\n      add\n      tag_160\n      swap1\n      tag_120\n      jump\t// in\n    tag_160:\n      mload(0x40)\n      dup1\n      swap2\n      sub\n      swap1\n      revert\n    tag_159:\n        /* \"Auction.sol\":5170:5183  highestBidder */\n      0x06\n        /* \"Auction.sol\":5170:5197  highestBidder.bidderAddress */\n      0x00\n      add\n      0x00\n      swap1\n      sload\n      swap1\n      0x0100\n      exp\n      swap1\n      div\n      0xffffffffffffffffffffffffffffffffffffffff\n      and\n        /* \"Auction.sol\":5199:5212  highestBidder */\n      0x06\n        /* \"Auction.sol\":5199:5219  highestBidder.amount */\n      0x01\n      add\n      sload\n        /* \"Auction.sol\":5162:5220  return (highestBidder.bidderAddress, highestBidder.amount) */\n      swap2\n      pop\n      swap2\n      pop\n        /* \"Auction.sol\":5080:5227  function getWinner() external view onlyEnded returns (address, uint256) {... */\n      swap1\n      swap2\n      jump\t// out\n        /* \"Auction.sol\":1092:1119  Bidder public highestBidder */\n    tag_69:\n      0x06\n      dup1\n      0x00\n      add\n      0x00\n      swap1\n      sload\n      swap1\n      0x0100\n      exp\n      swap1\n      div\n      0xffffffffffffffffffffffffffffffffffffffff\n      and\n      swap1\n      dup1\n      0x01\n      add\n      sload\n      swap1\n      pop\n      dup3\n      jump\t// out\n        /* \"Auction.sol\":917:945  uint256 public extensionTime */\n    tag_73:\n      sload(0x04)\n      dup2\n      jump\t// out\n        /* \"Auction.sol\":6504:6663  function getRemainingTime() external view returns (uint256) {... */\n    tag_77:\n        /* \"Auction.sol\":6555:6562  uint256 */\n      0x00\n        /* \"Auction.sol\":6597:6604  endTime */\n      sload(0x01)\n        /* \"Auction.sol\":6578:6593  block.timestamp */\n      timestamp\n        /* \"Auction.sol\":6578:6604  block.timestamp >= endTime */\n      lt\n        /* \"Auction.sol\":6574:6614  if (block.timestamp >= endTime) return 0 */\n      tag_163\n      jumpi\n        /* \"Auction.sol\":6613:6614  0 */\n      0x00\n        /* \"Auction.sol\":6606:6614  return 0 */\n      swap1\n      pop\n      jump(tag_162)\n        /* \"Auction.sol\":6574:6614  if (block.timestamp >= endTime) return 0 */\n    tag_163:\n        /* \"Auction.sol\":6641:6656  block.timestamp */\n      timestamp\n        /* \"Auction.sol\":6631:6638  endTime */\n      sload(0x01)\n        /* \"Auction.sol\":6631:6656  endTime - block.timestamp */\n      tag_164\n      swap2\n      swap1\n      tag_105\n      jump\t// in\n    tag_164:\n        /* \"Auction.sol\":6624:6656  return endTime - block.timestamp */\n      swap1\n      pop\n        /* \"Auction.sol\":6504:6663  function getRemainingTime() external view returns (uint256) {... */\n    tag_162:\n      swap1\n      jump\t// out\n        /* \"Auction.sol\":7260:7395  function endAuction() external onlyOwner {... */\n    tag_81:\n        /* \"Auction.sol\":3079:3084  owner */\n      0x00\n      0x00\n      swap1\n      sload\n      swap1\n      0x0100\n      exp\n      swap1\n      div\n      0xffffffffffffffffffffffffffffffffffffffff\n      and\n        /* \"Auction.sol\":3065:3084  msg.sender == owner */\n      0xffffffffffffffffffffffffffffffffffffffff\n      and\n        /* \"Auction.sol\":3065:3075  msg.sender */\n      caller\n        /* \"Auction.sol\":3065:3084  msg.sender == owner */\n      0xffffffffffffffffffffffffffffffffffffffff\n      and\n      eq\n        /* \"Auction.sol\":3044:3151  require(... */\n      tag_166\n      jumpi\n      mload(0x40)\n      0x08c379a000000000000000000000000000000000000000000000000000000000\n      dup2\n      mstore\n      0x04\n      add\n      tag_167\n      swap1\n      tag_115\n      jump\t// in\n    tag_167:\n      mload(0x40)\n      dup1\n      swap2\n      sub\n      swap1\n      revert\n    tag_166:\n        /* \"Auction.sol\":7320:7334  isAuctionEnded */\n      0x05\n      0x00\n      swap1\n      sload\n      swap1\n      0x0100\n      exp\n      swap1\n      div\n      0xff\n      and\n        /* \"Auction.sol\":7319:7334  !isAuctionEnded */\n      iszero\n        /* \"Auction.sol\":7311:7360  require(!isAuctionEnded, \"Auction already ended\") */\n      tag_169\n      jumpi\n      mload(0x40)\n      0x08c379a000000000000000000000000000000000000000000000000000000000\n      dup2\n      mstore\n      0x04\n      add\n      tag_170\n      swap1\n      tag_171\n      jump\t// in\n    tag_170:\n      mload(0x40)\n      dup1\n      swap2\n      sub\n      swap1\n      revert\n    tag_169:\n        /* \"Auction.sol\":7370:7388  _finalizeAuction() */\n      tag_172\n        /* \"Auction.sol\":7370:7386  _finalizeAuction */\n      tag_111\n        /* \"Auction.sol\":7370:7388  _finalizeAuction() */\n      jump\t// in\n    tag_172:\n        /* \"Auction.sol\":7260:7395  function endAuction() external onlyOwner {... */\n      jump\t// out\n        /* \"Auction.sol\":6815:7022  function _finalizeAuction() private {... */\n    tag_111:\n        /* \"Auction.sol\":6870:6884  isAuctionEnded */\n      0x05\n      0x00\n      swap1\n      sload\n      swap1\n      0x0100\n      exp\n      swap1\n      div\n      0xff\n      and\n        /* \"Auction.sol\":6869:6884  !isAuctionEnded */\n      iszero\n        /* \"Auction.sol\":6861:6906  require(!isAuctionEnded, \"Already finalized\") */\n      tag_174\n      jumpi\n      mload(0x40)\n      0x08c379a000000000000000000000000000000000000000000000000000000000\n      dup2\n      mstore\n      0x04\n      add\n      tag_175\n      swap1\n      tag_176\n      jump\t// in\n    tag_175:\n      mload(0x40)\n      dup1\n      swap2\n      sub\n      swap1\n      revert\n    tag_174:\n        /* \"Auction.sol\":6933:6937  true */\n      0x01\n        /* \"Auction.sol\":6916:6930  isAuctionEnded */\n      0x05\n      0x00\n        /* \"Auction.sol\":6916:6937  isAuctionEnded = true */\n      0x0100\n      exp\n      dup2\n      sload\n      dup2\n      0xff\n      mul\n      not\n      and\n      swap1\n      dup4\n      iszero\n      iszero\n      mul\n      or\n      swap1\n      sstore\n      pop\n        /* \"Auction.sol\":6965:6978  highestBidder */\n      0x06\n        /* \"Auction.sol\":6965:6992  highestBidder.bidderAddress */\n      0x00\n      add\n      0x00\n      swap1\n      sload\n      swap1\n      0x0100\n      exp\n      swap1\n      div\n      0xffffffffffffffffffffffffffffffffffffffff\n      and\n        /* \"Auction.sol\":6952:7015  AuctionEnded(highestBidder.bidderAddress, highestBidder.amount) */\n      0xffffffffffffffffffffffffffffffffffffffff\n      and\n      0xdaec4582d5d9595688c8c98545fdd1c696d41c6aeaeb636737e84ed2f5c00eda\n        /* \"Auction.sol\":6994:7007  highestBidder */\n      0x06\n        /* \"Auction.sol\":6994:7014  highestBidder.amount */\n      0x01\n      add\n      sload\n        /* \"Auction.sol\":6952:7015  AuctionEnded(highestBidder.bidderAddress, highestBidder.amount) */\n      mload(0x40)\n      tag_177\n      swap2\n      swap1\n      tag_28\n      jump\t// in\n    tag_177:\n      mload(0x40)\n      dup1\n      swap2\n      sub\n      swap1\n      log2\n        /* \"Auction.sol\":6815:7022  function _finalizeAuction() private {... */\n      jump\t// out\n        /* \"#utility.yul\":88:205   */\n    tag_179:\n        /* \"#utility.yul\":197:198   */\n      0x00\n        /* \"#utility.yul\":194:195   */\n      0x00\n        /* \"#utility.yul\":187:199   */\n      revert\n        /* \"#utility.yul\":334:460   */\n    tag_181:\n        /* \"#utility.yul\":371:378   */\n      0x00\n        /* \"#utility.yul\":411:453   */\n      0xffffffffffffffffffffffffffffffffffffffff\n        /* \"#utility.yul\":404:409   */\n      dup3\n        /* \"#utility.yul\":400:454   */\n      and\n        /* \"#utility.yul\":389:454   */\n      swap1\n      pop\n        /* \"#utility.yul\":334:460   */\n      swap2\n      swap1\n      pop\n      jump\t// out\n        /* \"#utility.yul\":466:562   */\n    tag_182:\n        /* \"#utility.yul\":503:510   */\n      0x00\n        /* \"#utility.yul\":532:556   */\n      tag_233\n        /* \"#utility.yul\":550:555   */\n      dup3\n        /* \"#utility.yul\":532:556   */\n      tag_181\n      jump\t// in\n    tag_233:\n        /* \"#utility.yul\":521:556   */\n      swap1\n      pop\n        /* \"#utility.yul\":466:562   */\n      swap2\n      swap1\n      pop\n      jump\t// out\n        /* \"#utility.yul\":568:690   */\n    tag_183:\n        /* \"#utility.yul\":641:665   */\n      tag_235\n        /* \"#utility.yul\":659:664   */\n      dup2\n        /* \"#utility.yul\":641:665   */\n      tag_182\n      jump\t// in\n    tag_235:\n        /* \"#utility.yul\":634:639   */\n      dup2\n        /* \"#utility.yul\":631:666   */\n      eq\n        /* \"#utility.yul\":621:684   */\n      tag_236\n      jumpi\n        /* \"#utility.yul\":680:681   */\n      0x00\n        /* \"#utility.yul\":677:678   */\n      0x00\n        /* \"#utility.yul\":670:682   */\n      revert\n        /* \"#utility.yul\":621:684   */\n    tag_236:\n        /* \"#utility.yul\":568:690   */\n      pop\n      jump\t// out\n        /* \"#utility.yul\":696:835   */\n    tag_184:\n        /* \"#utility.yul\":742:747   */\n      0x00\n        /* \"#utility.yul\":780:786   */\n      dup2\n        /* \"#utility.yul\":767:787   */\n      calldataload\n        /* \"#utility.yul\":758:787   */\n      swap1\n      pop\n        /* \"#utility.yul\":796:829   */\n      tag_238\n        /* \"#utility.yul\":823:828   */\n      dup2\n        /* \"#utility.yul\":796:829   */\n      tag_183\n      jump\t// in\n    tag_238:\n        /* \"#utility.yul\":696:835   */\n      swap3\n      swap2\n      pop\n      pop\n      jump\t// out\n        /* \"#utility.yul\":841:1170   */\n    tag_25:\n        /* \"#utility.yul\":900:906   */\n      0x00\n        /* \"#utility.yul\":949:951   */\n      0x20\n        /* \"#utility.yul\":937:946   */\n      dup3\n        /* \"#utility.yul\":928:935   */\n      dup5\n        /* \"#utility.yul\":924:947   */\n      sub\n        /* \"#utility.yul\":920:952   */\n      slt\n        /* \"#utility.yul\":917:1036   */\n      iszero\n      tag_240\n      jumpi\n        /* \"#utility.yul\":955:1034   */\n      tag_241\n      tag_179\n      jump\t// in\n    tag_241:\n        /* \"#utility.yul\":917:1036   */\n    tag_240:\n        /* \"#utility.yul\":1075:1076   */\n      0x00\n        /* \"#utility.yul\":1100:1153   */\n      tag_242\n        /* \"#utility.yul\":1145:1152   */\n      dup5\n        /* \"#utility.yul\":1136:1142   */\n      dup3\n        /* \"#utility.yul\":1125:1134   */\n      dup6\n        /* \"#utility.yul\":1121:1143   */\n      add\n        /* \"#utility.yul\":1100:1153   */\n      tag_184\n      jump\t// in\n    tag_242:\n        /* \"#utility.yul\":1090:1153   */\n      swap2\n      pop\n        /* \"#utility.yul\":1046:1163   */\n      pop\n        /* \"#utility.yul\":841:1170   */\n      swap3\n      swap2\n      pop\n      pop\n      jump\t// out\n        /* \"#utility.yul\":1176:1253   */\n    tag_185:\n        /* \"#utility.yul\":1213:1220   */\n      0x00\n        /* \"#utility.yul\":1242:1247   */\n      dup2\n        /* \"#utility.yul\":1231:1247   */\n      swap1\n      pop\n        /* \"#utility.yul\":1176:1253   */\n      swap2\n      swap1\n      pop\n      jump\t// out\n        /* \"#utility.yul\":1259:1377   */\n    tag_186:\n        /* \"#utility.yul\":1346:1370   */\n      tag_245\n        /* \"#utility.yul\":1364:1369   */\n      dup2\n        /* \"#utility.yul\":1346:1370   */\n      tag_185\n      jump\t// in\n    tag_245:\n        /* \"#utility.yul\":1341:1344   */\n      dup3\n        /* \"#utility.yul\":1334:1371   */\n      mstore\n        /* \"#utility.yul\":1259:1377   */\n      pop\n      pop\n      jump\t// out\n        /* \"#utility.yul\":1383:1605   */\n    tag_28:\n        /* \"#utility.yul\":1476:1480   */\n      0x00\n        /* \"#utility.yul\":1514:1516   */\n      0x20\n        /* \"#utility.yul\":1503:1512   */\n      dup3\n        /* \"#utility.yul\":1499:1517   */\n      add\n        /* \"#utility.yul\":1491:1517   */\n      swap1\n      pop\n        /* \"#utility.yul\":1527:1598   */\n      tag_247\n        /* \"#utility.yul\":1595:1596   */\n      0x00\n        /* \"#utility.yul\":1584:1593   */\n      dup4\n        /* \"#utility.yul\":1580:1597   */\n      add\n        /* \"#utility.yul\":1571:1577   */\n      dup5\n        /* \"#utility.yul\":1527:1598   */\n      tag_186\n      jump\t// in\n    tag_247:\n        /* \"#utility.yul\":1383:1605   */\n      swap3\n      swap2\n      pop\n      pop\n      jump\t// out\n        /* \"#utility.yul\":1611:1701   */\n    tag_187:\n        /* \"#utility.yul\":1645:1652   */\n      0x00\n        /* \"#utility.yul\":1688:1693   */\n      dup2\n        /* \"#utility.yul\":1681:1694   */\n      iszero\n        /* \"#utility.yul\":1674:1695   */\n      iszero\n        /* \"#utility.yul\":1663:1695   */\n      swap1\n      pop\n        /* \"#utility.yul\":1611:1701   */\n      swap2\n      swap1\n      pop\n      jump\t// out\n        /* \"#utility.yul\":1707:1816   */\n    tag_188:\n        /* \"#utility.yul\":1788:1809   */\n      tag_250\n        /* \"#utility.yul\":1803:1808   */\n      dup2\n        /* \"#utility.yul\":1788:1809   */\n      tag_187\n      jump\t// in\n    tag_250:\n        /* \"#utility.yul\":1783:1786   */\n      dup3\n        /* \"#utility.yul\":1776:1810   */\n      mstore\n        /* \"#utility.yul\":1707:1816   */\n      pop\n      pop\n      jump\t// out\n        /* \"#utility.yul\":1822:2032   */\n    tag_43:\n        /* \"#utility.yul\":1909:1913   */\n      0x00\n        /* \"#utility.yul\":1947:1949   */\n      0x20\n        /* \"#utility.yul\":1936:1945   */\n      dup3\n        /* \"#utility.yul\":1932:1950   */\n      add\n        /* \"#utility.yul\":1924:1950   */\n      swap1\n      pop\n        /* \"#utility.yul\":1960:2025   */\n      tag_252\n        /* \"#utility.yul\":2022:2023   */\n      0x00\n        /* \"#utility.yul\":2011:2020   */\n      dup4\n        /* \"#utility.yul\":2007:2024   */\n      add\n        /* \"#utility.yul\":1998:2004   */\n      dup5\n        /* \"#utility.yul\":1960:2025   */\n      tag_188\n      jump\t// in\n    tag_252:\n        /* \"#utility.yul\":1822:2032   */\n      swap3\n      swap2\n      pop\n      pop\n      jump\t// out\n        /* \"#utility.yul\":2038:2173   */\n    tag_189:\n        /* \"#utility.yul\":2126:2132   */\n      0x00\n        /* \"#utility.yul\":2160:2165   */\n      dup2\n        /* \"#utility.yul\":2154:2166   */\n      mload\n        /* \"#utility.yul\":2144:2166   */\n      swap1\n      pop\n        /* \"#utility.yul\":2038:2173   */\n      swap2\n      swap1\n      pop\n      jump\t// out\n        /* \"#utility.yul\":2179:2384   */\n    tag_190:\n        /* \"#utility.yul\":2299:2310   */\n      0x00\n        /* \"#utility.yul\":2333:2339   */\n      dup3\n        /* \"#utility.yul\":2328:2331   */\n      dup3\n        /* \"#utility.yul\":2321:2340   */\n      mstore\n        /* \"#utility.yul\":2373:2377   */\n      0x20\n        /* \"#utility.yul\":2368:2371   */\n      dup3\n        /* \"#utility.yul\":2364:2378   */\n      add\n        /* \"#utility.yul\":2349:2378   */\n      swap1\n      pop\n        /* \"#utility.yul\":2179:2384   */\n      swap3\n      swap2\n      pop\n      pop\n      jump\t// out\n        /* \"#utility.yul\":2390:2543   */\n    tag_191:\n        /* \"#utility.yul\":2478:2482   */\n      0x00\n        /* \"#utility.yul\":2501:2504   */\n      dup2\n        /* \"#utility.yul\":2493:2504   */\n      swap1\n      pop\n        /* \"#utility.yul\":2531:2535   */\n      0x20\n        /* \"#utility.yul\":2526:2529   */\n      dup3\n        /* \"#utility.yul\":2522:2536   */\n      add\n        /* \"#utility.yul\":2514:2536   */\n      swap1\n      pop\n        /* \"#utility.yul\":2390:2543   */\n      swap2\n      swap1\n      pop\n      jump\t// out\n        /* \"#utility.yul\":2549:2657   */\n    tag_192:\n        /* \"#utility.yul\":2626:2650   */\n      tag_257\n        /* \"#utility.yul\":2644:2649   */\n      dup2\n        /* \"#utility.yul\":2626:2650   */\n      tag_182\n      jump\t// in\n    tag_257:\n        /* \"#utility.yul\":2621:2624   */\n      dup3\n        /* \"#utility.yul\":2614:2651   */\n      mstore\n        /* \"#utility.yul\":2549:2657   */\n      pop\n      pop\n      jump\t// out\n        /* \"#utility.yul\":2663:2771   */\n    tag_193:\n        /* \"#utility.yul\":2740:2764   */\n      tag_259\n        /* \"#utility.yul\":2758:2763   */\n      dup2\n        /* \"#utility.yul\":2740:2764   */\n      tag_185\n      jump\t// in\n    tag_259:\n        /* \"#utility.yul\":2735:2738   */\n      dup3\n        /* \"#utility.yul\":2728:2765   */\n      mstore\n        /* \"#utility.yul\":2663:2771   */\n      pop\n      pop\n      jump\t// out\n        /* \"#utility.yul\":2831:3331   */\n    tag_194:\n        /* \"#utility.yul\":2960:2964   */\n      0x40\n        /* \"#utility.yul\":2955:2958   */\n      dup3\n        /* \"#utility.yul\":2951:2965   */\n      add\n        /* \"#utility.yul\":3056:3060   */\n      0x00\n        /* \"#utility.yul\":3049:3054   */\n      dup3\n        /* \"#utility.yul\":3045:3061   */\n      add\n        /* \"#utility.yul\":3039:3062   */\n      mload\n        /* \"#utility.yul\":3075:3138   */\n      tag_261\n        /* \"#utility.yul\":3132:3136   */\n      0x00\n        /* \"#utility.yul\":3127:3130   */\n      dup6\n        /* \"#utility.yul\":3123:3137   */\n      add\n        /* \"#utility.yul\":3109:3121   */\n      dup3\n        /* \"#utility.yul\":3075:3138   */\n      tag_192\n      jump\t// in\n    tag_261:\n        /* \"#utility.yul\":2975:3148   */\n      pop\n        /* \"#utility.yul\":3232:3236   */\n      0x20\n        /* \"#utility.yul\":3225:3230   */\n      dup3\n        /* \"#utility.yul\":3221:3237   */\n      add\n        /* \"#utility.yul\":3215:3238   */\n      mload\n        /* \"#utility.yul\":3251:3314   */\n      tag_262\n        /* \"#utility.yul\":3308:3312   */\n      0x20\n        /* \"#utility.yul\":3303:3306   */\n      dup6\n        /* \"#utility.yul\":3299:3313   */\n      add\n        /* \"#utility.yul\":3285:3297   */\n      dup3\n        /* \"#utility.yul\":3251:3314   */\n      tag_193\n      jump\t// in\n    tag_262:\n        /* \"#utility.yul\":3158:3324   */\n      pop\n        /* \"#utility.yul\":2929:3331   */\n      pop\n        /* \"#utility.yul\":2831:3331   */\n      pop\n      pop\n      jump\t// out\n        /* \"#utility.yul\":3337:3600   */\n    tag_195:\n        /* \"#utility.yul\":3448:3458   */\n      0x00\n        /* \"#utility.yul\":3469:3557   */\n      tag_264\n        /* \"#utility.yul\":3553:3556   */\n      dup4\n        /* \"#utility.yul\":3545:3551   */\n      dup4\n        /* \"#utility.yul\":3469:3557   */\n      tag_194\n      jump\t// in\n    tag_264:\n        /* \"#utility.yul\":3589:3593   */\n      0x40\n        /* \"#utility.yul\":3584:3587   */\n      dup4\n        /* \"#utility.yul\":3580:3594   */\n      add\n        /* \"#utility.yul\":3566:3594   */\n      swap1\n      pop\n        /* \"#utility.yul\":3337:3600   */\n      swap3\n      swap2\n      pop\n      pop\n      jump\t// out\n        /* \"#utility.yul\":3606:3740   */\n    tag_196:\n        /* \"#utility.yul\":3697:3701   */\n      0x00\n        /* \"#utility.yul\":3729:3733   */\n      0x20\n        /* \"#utility.yul\":3724:3727   */\n      dup3\n        /* \"#utility.yul\":3720:3734   */\n      add\n        /* \"#utility.yul\":3712:3734   */\n      swap1\n      pop\n        /* \"#utility.yul\":3606:3740   */\n      swap2\n      swap1\n      pop\n      jump\t// out\n        /* \"#utility.yul\":3804:4704   */\n    tag_197:\n        /* \"#utility.yul\":3965:3968   */\n      0x00\n        /* \"#utility.yul\":3994:4069   */\n      tag_267\n        /* \"#utility.yul\":4063:4068   */\n      dup3\n        /* \"#utility.yul\":3994:4069   */\n      tag_189\n      jump\t// in\n    tag_267:\n        /* \"#utility.yul\":4085:4192   */\n      tag_268\n        /* \"#utility.yul\":4185:4191   */\n      dup2\n        /* \"#utility.yul\":4180:4183   */\n      dup6\n        /* \"#utility.yul\":4085:4192   */\n      tag_190\n      jump\t// in\n    tag_268:\n        /* \"#utility.yul\":4078:4192   */\n      swap4\n      pop\n        /* \"#utility.yul\":4216:4293   */\n      tag_269\n        /* \"#utility.yul\":4287:4292   */\n      dup4\n        /* \"#utility.yul\":4216:4293   */\n      tag_191\n      jump\t// in\n    tag_269:\n        /* \"#utility.yul\":4316:4323   */\n      dup1\n        /* \"#utility.yul\":4347:4348   */\n      0x00\n        /* \"#utility.yul\":4332:4679   */\n    tag_270:\n        /* \"#utility.yul\":4357:4363   */\n      dup4\n        /* \"#utility.yul\":4354:4355   */\n      dup2\n        /* \"#utility.yul\":4351:4364   */\n      lt\n        /* \"#utility.yul\":4332:4679   */\n      iszero\n      tag_272\n      jumpi\n        /* \"#utility.yul\":4433:4439   */\n      dup2\n        /* \"#utility.yul\":4427:4440   */\n      mload\n        /* \"#utility.yul\":4460:4565   */\n      tag_273\n        /* \"#utility.yul\":4561:4564   */\n      dup9\n        /* \"#utility.yul\":4546:4559   */\n      dup3\n        /* \"#utility.yul\":4460:4565   */\n      tag_195\n      jump\t// in\n    tag_273:\n        /* \"#utility.yul\":4453:4565   */\n      swap8\n      pop\n        /* \"#utility.yul\":4588:4669   */\n      tag_274\n        /* \"#utility.yul\":4662:4668   */\n      dup4\n        /* \"#utility.yul\":4588:4669   */\n      tag_196\n      jump\t// in\n    tag_274:\n        /* \"#utility.yul\":4578:4669   */\n      swap3\n      pop\n        /* \"#utility.yul\":4392:4679   */\n      pop\n        /* \"#utility.yul\":4379:4380   */\n      0x01\n        /* \"#utility.yul\":4376:4377   */\n      dup2\n        /* \"#utility.yul\":4372:4381   */\n      add\n        /* \"#utility.yul\":4367:4381   */\n      swap1\n      pop\n        /* \"#utility.yul\":4332:4679   */\n      jump(tag_270)\n    tag_272:\n        /* \"#utility.yul\":4336:4350   */\n      pop\n        /* \"#utility.yul\":4695:4698   */\n      dup6\n        /* \"#utility.yul\":4688:4698   */\n      swap4\n      pop\n        /* \"#utility.yul\":3970:4704   */\n      pop\n      pop\n      pop\n        /* \"#utility.yul\":3804:4704   */\n      swap3\n      swap2\n      pop\n      pop\n      jump\t// out\n        /* \"#utility.yul\":4710:5167   */\n    tag_56:\n        /* \"#utility.yul\":4895:4899   */\n      0x00\n        /* \"#utility.yul\":4933:4935   */\n      0x20\n        /* \"#utility.yul\":4922:4931   */\n      dup3\n        /* \"#utility.yul\":4918:4936   */\n      add\n        /* \"#utility.yul\":4910:4936   */\n      swap1\n      pop\n        /* \"#utility.yul\":4982:4991   */\n      dup2\n        /* \"#utility.yul\":4976:4980   */\n      dup2\n        /* \"#utility.yul\":4972:4992   */\n      sub\n        /* \"#utility.yul\":4968:4969   */\n      0x00\n        /* \"#utility.yul\":4957:4966   */\n      dup4\n        /* \"#utility.yul\":4953:4970   */\n      add\n        /* \"#utility.yul\":4946:4993   */\n      mstore\n        /* \"#utility.yul\":5010:5160   */\n      tag_276\n        /* \"#utility.yul\":5155:5159   */\n      dup2\n        /* \"#utility.yul\":5146:5152   */\n      dup5\n        /* \"#utility.yul\":5010:5160   */\n      tag_197\n      jump\t// in\n    tag_276:\n        /* \"#utility.yul\":5002:5160   */\n      swap1\n      pop\n        /* \"#utility.yul\":4710:5167   */\n      swap3\n      swap2\n      pop\n      pop\n      jump\t// out\n        /* \"#utility.yul\":5173:5291   */\n    tag_198:\n        /* \"#utility.yul\":5260:5284   */\n      tag_278\n        /* \"#utility.yul\":5278:5283   */\n      dup2\n        /* \"#utility.yul\":5260:5284   */\n      tag_182\n      jump\t// in\n    tag_278:\n        /* \"#utility.yul\":5255:5258   */\n      dup3\n        /* \"#utility.yul\":5248:5285   */\n      mstore\n        /* \"#utility.yul\":5173:5291   */\n      pop\n      pop\n      jump\t// out\n        /* \"#utility.yul\":5297:5519   */\n    tag_61:\n        /* \"#utility.yul\":5390:5394   */\n      0x00\n        /* \"#utility.yul\":5428:5430   */\n      0x20\n        /* \"#utility.yul\":5417:5426   */\n      dup3\n        /* \"#utility.yul\":5413:5431   */\n      add\n        /* \"#utility.yul\":5405:5431   */\n      swap1\n      pop\n        /* \"#utility.yul\":5441:5512   */\n      tag_280\n        /* \"#utility.yul\":5509:5510   */\n      0x00\n        /* \"#utility.yul\":5498:5507   */\n      dup4\n        /* \"#utility.yul\":5494:5511   */\n      add\n        /* \"#utility.yul\":5485:5491   */\n      dup5\n        /* \"#utility.yul\":5441:5512   */\n      tag_198\n      jump\t// in\n    tag_280:\n        /* \"#utility.yul\":5297:5519   */\n      swap3\n      swap2\n      pop\n      pop\n      jump\t// out\n        /* \"#utility.yul\":5525:5857   */\n    tag_66:\n        /* \"#utility.yul\":5646:5650   */\n      0x00\n        /* \"#utility.yul\":5684:5686   */\n      0x40\n        /* \"#utility.yul\":5673:5682   */\n      dup3\n        /* \"#utility.yul\":5669:5687   */\n      add\n        /* \"#utility.yul\":5661:5687   */\n      swap1\n      pop\n        /* \"#utility.yul\":5697:5768   */\n      tag_282\n        /* \"#utility.yul\":5765:5766   */\n      0x00\n        /* \"#utility.yul\":5754:5763   */\n      dup4\n        /* \"#utility.yul\":5750:5767   */\n      add\n        /* \"#utility.yul\":5741:5747   */\n      dup6\n        /* \"#utility.yul\":5697:5768   */\n      tag_198\n      jump\t// in\n    tag_282:\n        /* \"#utility.yul\":5778:5850   */\n      tag_283\n        /* \"#utility.yul\":5846:5848   */\n      0x20\n        /* \"#utility.yul\":5835:5844   */\n      dup4\n        /* \"#utility.yul\":5831:5849   */\n      add\n        /* \"#utility.yul\":5822:5828   */\n      dup5\n        /* \"#utility.yul\":5778:5850   */\n      tag_186\n      jump\t// in\n    tag_283:\n        /* \"#utility.yul\":5525:5857   */\n      swap4\n      swap3\n      pop\n      pop\n      pop\n      jump\t// out\n        /* \"#utility.yul\":5863:6032   */\n    tag_199:\n        /* \"#utility.yul\":5947:5958   */\n      0x00\n        /* \"#utility.yul\":5981:5987   */\n      dup3\n        /* \"#utility.yul\":5976:5979   */\n      dup3\n        /* \"#utility.yul\":5969:5988   */\n      mstore\n        /* \"#utility.yul\":6021:6025   */\n      0x20\n        /* \"#utility.yul\":6016:6019   */\n      dup3\n        /* \"#utility.yul\":6012:6026   */\n      add\n        /* \"#utility.yul\":5997:6026   */\n      swap1\n      pop\n        /* \"#utility.yul\":5863:6032   */\n      swap3\n      swap2\n      pop\n      pop\n      jump\t// out\n        /* \"#utility.yul\":6038:6205   */\n    tag_200:\n        /* \"#utility.yul\":6178:6197   */\n      0x41756374696f6e2068617320656e646564000000000000000000000000000000\n        /* \"#utility.yul\":6174:6175   */\n      0x00\n        /* \"#utility.yul\":6166:6172   */\n      dup3\n        /* \"#utility.yul\":6162:6176   */\n      add\n        /* \"#utility.yul\":6155:6198   */\n      mstore\n        /* \"#utility.yul\":6038:6205   */\n      pop\n      jump\t// out\n        /* \"#utility.yul\":6211:6577   */\n    tag_201:\n        /* \"#utility.yul\":6353:6356   */\n      0x00\n        /* \"#utility.yul\":6374:6441   */\n      tag_287\n        /* \"#utility.yul\":6438:6440   */\n      0x11\n        /* \"#utility.yul\":6433:6436   */\n      dup4\n        /* \"#utility.yul\":6374:6441   */\n      tag_199\n      jump\t// in\n    tag_287:\n        /* \"#utility.yul\":6367:6441   */\n      swap2\n      pop\n        /* \"#utility.yul\":6450:6543   */\n      tag_288\n        /* \"#utility.yul\":6539:6542   */\n      dup3\n        /* \"#utility.yul\":6450:6543   */\n      tag_200\n      jump\t// in\n    tag_288:\n        /* \"#utility.yul\":6568:6570   */\n      0x20\n        /* \"#utility.yul\":6563:6566   */\n      dup3\n        /* \"#utility.yul\":6559:6571   */\n      add\n        /* \"#utility.yul\":6552:6571   */\n      swap1\n      pop\n        /* \"#utility.yul\":6211:6577   */\n      swap2\n      swap1\n      pop\n      jump\t// out\n        /* \"#utility.yul\":6583:7002   */\n    tag_85:\n        /* \"#utility.yul\":6749:6753   */\n      0x00\n        /* \"#utility.yul\":6787:6789   */\n      0x20\n        /* \"#utility.yul\":6776:6785   */\n      dup3\n        /* \"#utility.yul\":6772:6790   */\n      add\n        /* \"#utility.yul\":6764:6790   */\n      swap1\n      pop\n        /* \"#utility.yul\":6836:6845   */\n      dup2\n        /* \"#utility.yul\":6830:6834   */\n      dup2\n        /* \"#utility.yul\":6826:6846   */\n      sub\n        /* \"#utility.yul\":6822:6823   */\n      0x00\n        /* \"#utility.yul\":6811:6820   */\n      dup4\n        /* \"#utility.yul\":6807:6824   */\n      add\n        /* \"#utility.yul\":6800:6847   */\n      mstore\n        /* \"#utility.yul\":6864:6995   */\n      tag_290\n        /* \"#utility.yul\":6990:6994   */\n      dup2\n        /* \"#utility.yul\":6864:6995   */\n      tag_201\n      jump\t// in\n    tag_290:\n        /* \"#utility.yul\":6856:6995   */\n      swap1\n      pop\n        /* \"#utility.yul\":6583:7002   */\n      swap2\n      swap1\n      pop\n      jump\t// out\n        /* \"#utility.yul\":7008:7185   */\n    tag_202:\n        /* \"#utility.yul\":7148:7177   */\n      0x41756374696f6e20686173206265656e207465726d696e617465640000000000\n        /* \"#utility.yul\":7144:7145   */\n      0x00\n        /* \"#utility.yul\":7136:7142   */\n      dup3\n        /* \"#utility.yul\":7132:7146   */\n      add\n        /* \"#utility.yul\":7125:7178   */\n      mstore\n        /* \"#utility.yul\":7008:7185   */\n      pop\n      jump\t// out\n        /* \"#utility.yul\":7191:7557   */\n    tag_203:\n        /* \"#utility.yul\":7333:7336   */\n      0x00\n        /* \"#utility.yul\":7354:7421   */\n      tag_293\n        /* \"#utility.yul\":7418:7420   */\n      0x1b\n        /* \"#utility.yul\":7413:7416   */\n      dup4\n        /* \"#utility.yul\":7354:7421   */\n      tag_199\n      jump\t// in\n    tag_293:\n        /* \"#utility.yul\":7347:7421   */\n      swap2\n      pop\n        /* \"#utility.yul\":7430:7523   */\n      tag_294\n        /* \"#utility.yul\":7519:7522   */\n      dup3\n        /* \"#utility.yul\":7430:7523   */\n      tag_202\n      jump\t// in\n    tag_294:\n        /* \"#utility.yul\":7548:7550   */\n      0x20\n        /* \"#utility.yul\":7543:7546   */\n      dup3\n        /* \"#utility.yul\":7539:7551   */\n      add\n        /* \"#utility.yul\":7532:7551   */\n      swap1\n      pop\n        /* \"#utility.yul\":7191:7557   */\n      swap2\n      swap1\n      pop\n      jump\t// out\n        /* \"#utility.yul\":7563:7982   */\n    tag_88:\n        /* \"#utility.yul\":7729:7733   */\n      0x00\n        /* \"#utility.yul\":7767:7769   */\n      0x20\n        /* \"#utility.yul\":7756:7765   */\n      dup3\n        /* \"#utility.yul\":7752:7770   */\n      add\n        /* \"#utility.yul\":7744:7770   */\n      swap1\n      pop\n        /* \"#utility.yul\":7816:7825   */\n      dup2\n        /* \"#utility.yul\":7810:7814   */\n      dup2\n        /* \"#utility.yul\":7806:7826   */\n      sub\n        /* \"#utility.yul\":7802:7803   */\n      0x00\n        /* \"#utility.yul\":7791:7800   */\n      dup4\n        /* \"#utility.yul\":7787:7804   */\n      add\n        /* \"#utility.yul\":7780:7827   */\n      mstore\n        /* \"#utility.yul\":7844:7975   */\n      tag_296\n        /* \"#utility.yul\":7970:7974   */\n      dup2\n        /* \"#utility.yul\":7844:7975   */\n      tag_203\n      jump\t// in\n    tag_296:\n        /* \"#utility.yul\":7836:7975   */\n      swap1\n      pop\n        /* \"#utility.yul\":7563:7982   */\n      swap2\n      swap1\n      pop\n      jump\t// out\n        /* \"#utility.yul\":7988:8164   */\n    tag_204:\n        /* \"#utility.yul\":8128:8156   */\n      0x426964206d7573742062652067726561746572207468616e2030000000000000\n        /* \"#utility.yul\":8124:8125   */\n      0x00\n        /* \"#utility.yul\":8116:8122   */\n      dup3\n        /* \"#utility.yul\":8112:8126   */\n      add\n        /* \"#utility.yul\":8105:8157   */\n      mstore\n        /* \"#utility.yul\":7988:8164   */\n      pop\n      jump\t// out\n        /* \"#utility.yul\":8170:8536   */\n    tag_205:\n        /* \"#utility.yul\":8312:8315   */\n      0x00\n        /* \"#utility.yul\":8333:8400   */\n      tag_299\n        /* \"#utility.yul\":8397:8399   */\n      0x1a\n        /* \"#utility.yul\":8392:8395   */\n      dup4\n        /* \"#utility.yul\":8333:8400   */\n      tag_199\n      jump\t// in\n    tag_299:\n        /* \"#utility.yul\":8326:8400   */\n      swap2\n      pop\n        /* \"#utility.yul\":8409:8502   */\n      tag_300\n        /* \"#utility.yul\":8498:8501   */\n      dup3\n        /* \"#utility.yul\":8409:8502   */\n      tag_204\n      jump\t// in\n    tag_300:\n        /* \"#utility.yul\":8527:8529   */\n      0x20\n        /* \"#utility.yul\":8522:8525   */\n      dup3\n        /* \"#utility.yul\":8518:8530   */\n      add\n        /* \"#utility.yul\":8511:8530   */\n      swap1\n      pop\n        /* \"#utility.yul\":8170:8536   */\n      swap2\n      swap1\n      pop\n      jump\t// out\n        /* \"#utility.yul\":8542:8961   */\n    tag_92:\n        /* \"#utility.yul\":8708:8712   */\n      0x00\n        /* \"#utility.yul\":8746:8748   */\n      0x20\n        /* \"#utility.yul\":8735:8744   */\n      dup3\n        /* \"#utility.yul\":8731:8749   */\n      add\n        /* \"#utility.yul\":8723:8749   */\n      swap1\n      pop\n        /* \"#utility.yul\":8795:8804   */\n      dup2\n        /* \"#utility.yul\":8789:8793   */\n      dup2\n        /* \"#utility.yul\":8785:8805   */\n      sub\n        /* \"#utility.yul\":8781:8782   */\n      0x00\n        /* \"#utility.yul\":8770:8779   */\n      dup4\n        /* \"#utility.yul\":8766:8783   */\n      add\n        /* \"#utility.yul\":8759:8806   */\n      mstore\n        /* \"#utility.yul\":8823:8954   */\n      tag_302\n        /* \"#utility.yul\":8949:8953   */\n      dup2\n        /* \"#utility.yul\":8823:8954   */\n      tag_205\n      jump\t// in\n    tag_302:\n        /* \"#utility.yul\":8815:8954   */\n      swap1\n      pop\n        /* \"#utility.yul\":8542:8961   */\n      swap2\n      swap1\n      pop\n      jump\t// out\n        /* \"#utility.yul\":8967:9147   */\n    tag_206:\n        /* \"#utility.yul\":9015:9092   */\n      0x4e487b7100000000000000000000000000000000000000000000000000000000\n        /* \"#utility.yul\":9012:9013   */\n      0x00\n        /* \"#utility.yul\":9005:9093   */\n      mstore\n        /* \"#utility.yul\":9112:9116   */\n      0x11\n        /* \"#utility.yul\":9109:9110   */\n      0x04\n        /* \"#utility.yul\":9102:9117   */\n      mstore\n        /* \"#utility.yul\":9136:9140   */\n      0x24\n        /* \"#utility.yul\":9133:9134   */\n      0x00\n        /* \"#utility.yul\":9126:9141   */\n      revert\n        /* \"#utility.yul\":9153:9563   */\n    tag_94:\n        /* \"#utility.yul\":9193:9200   */\n      0x00\n        /* \"#utility.yul\":9216:9236   */\n      tag_305\n        /* \"#utility.yul\":9234:9235   */\n      dup3\n        /* \"#utility.yul\":9216:9236   */\n      tag_185\n      jump\t// in\n    tag_305:\n        /* \"#utility.yul\":9211:9236   */\n      swap2\n      pop\n        /* \"#utility.yul\":9250:9270   */\n      tag_306\n        /* \"#utility.yul\":9268:9269   */\n      dup4\n        /* \"#utility.yul\":9250:9270   */\n      tag_185\n      jump\t// in\n    tag_306:\n        /* \"#utility.yul\":9245:9270   */\n      swap3\n      pop\n        /* \"#utility.yul\":9305:9306   */\n      dup3\n        /* \"#utility.yul\":9302:9303   */\n      dup3\n        /* \"#utility.yul\":9298:9307   */\n      mul\n        /* \"#utility.yul\":9327:9357   */\n      tag_307\n        /* \"#utility.yul\":9345:9356   */\n      dup2\n        /* \"#utility.yul\":9327:9357   */\n      tag_185\n      jump\t// in\n    tag_307:\n        /* \"#utility.yul\":9316:9357   */\n      swap2\n      pop\n        /* \"#utility.yul\":9506:9507   */\n      dup3\n        /* \"#utility.yul\":9497:9504   */\n      dup3\n        /* \"#utility.yul\":9493:9508   */\n      div\n        /* \"#utility.yul\":9490:9491   */\n      dup5\n        /* \"#utility.yul\":9487:9509   */\n      eq\n        /* \"#utility.yul\":9467:9468   */\n      dup4\n        /* \"#utility.yul\":9460:9469   */\n      iszero\n        /* \"#utility.yul\":9440:9523   */\n      or\n        /* \"#utility.yul\":9417:9556   */\n      tag_308\n      jumpi\n        /* \"#utility.yul\":9536:9554   */\n      tag_309\n      tag_206\n      jump\t// in\n    tag_309:\n        /* \"#utility.yul\":9417:9556   */\n    tag_308:\n        /* \"#utility.yul\":9201:9563   */\n      pop\n        /* \"#utility.yul\":9153:9563   */\n      swap3\n      swap2\n      pop\n      pop\n      jump\t// out\n        /* \"#utility.yul\":9569:9749   */\n    tag_207:\n        /* \"#utility.yul\":9617:9694   */\n      0x4e487b7100000000000000000000000000000000000000000000000000000000\n        /* \"#utility.yul\":9614:9615   */\n      0x00\n        /* \"#utility.yul\":9607:9695   */\n      mstore\n        /* \"#utility.yul\":9714:9718   */\n      0x12\n        /* \"#utility.yul\":9711:9712   */\n      0x04\n        /* \"#utility.yul\":9704:9719   */\n      mstore\n        /* \"#utility.yul\":9738:9742   */\n      0x24\n        /* \"#utility.yul\":9735:9736   */\n      0x00\n        /* \"#utility.yul\":9728:9743   */\n      revert\n        /* \"#utility.yul\":9755:9940   */\n    tag_96:\n        /* \"#utility.yul\":9795:9796   */\n      0x00\n        /* \"#utility.yul\":9812:9832   */\n      tag_312\n        /* \"#utility.yul\":9830:9831   */\n      dup3\n        /* \"#utility.yul\":9812:9832   */\n      tag_185\n      jump\t// in\n    tag_312:\n        /* \"#utility.yul\":9807:9832   */\n      swap2\n      pop\n        /* \"#utility.yul\":9846:9866   */\n      tag_313\n        /* \"#utility.yul\":9864:9865   */\n      dup4\n        /* \"#utility.yul\":9846:9866   */\n      tag_185\n      jump\t// in\n    tag_313:\n        /* \"#utility.yul\":9841:9866   */\n      swap3\n      pop\n        /* \"#utility.yul\":9885:9886   */\n      dup3\n        /* \"#utility.yul\":9875:9910   */\n      tag_314\n      jumpi\n        /* \"#utility.yul\":9890:9908   */\n      tag_315\n      tag_207\n      jump\t// in\n    tag_315:\n        /* \"#utility.yul\":9875:9910   */\n    tag_314:\n        /* \"#utility.yul\":9932:9933   */\n      dup3\n        /* \"#utility.yul\":9929:9930   */\n      dup3\n        /* \"#utility.yul\":9925:9934   */\n      div\n        /* \"#utility.yul\":9920:9934   */\n      swap1\n      pop\n        /* \"#utility.yul\":9755:9940   */\n      swap3\n      swap2\n      pop\n      pop\n      jump\t// out\n        /* \"#utility.yul\":9946:10180   */\n    tag_208:\n        /* \"#utility.yul\":10086:10120   */\n      0x426964206d757374206265206174206c65617374203525206869676865722074\n        /* \"#utility.yul\":10082:10083   */\n      0x00\n        /* \"#utility.yul\":10074:10080   */\n      dup3\n        /* \"#utility.yul\":10070:10084   */\n      add\n        /* \"#utility.yul\":10063:10121   */\n      mstore\n        /* \"#utility.yul\":10155:10172   */\n      0x68616e2063757272656e74206269640000000000000000000000000000000000\n        /* \"#utility.yul\":10150:10152   */\n      0x20\n        /* \"#utility.yul\":10142:10148   */\n      dup3\n        /* \"#utility.yul\":10138:10153   */\n      add\n        /* \"#utility.yul\":10131:10173   */\n      mstore\n        /* \"#utility.yul\":9946:10180   */\n      pop\n      jump\t// out\n        /* \"#utility.yul\":10186:10552   */\n    tag_209:\n        /* \"#utility.yul\":10328:10331   */\n      0x00\n        /* \"#utility.yul\":10349:10416   */\n      tag_318\n        /* \"#utility.yul\":10413:10415   */\n      0x2f\n        /* \"#utility.yul\":10408:10411   */\n      dup4\n        /* \"#utility.yul\":10349:10416   */\n      tag_199\n      jump\t// in\n    tag_318:\n        /* \"#utility.yul\":10342:10416   */\n      swap2\n      pop\n        /* \"#utility.yul\":10425:10518   */\n      tag_319\n        /* \"#utility.yul\":10514:10517   */\n      dup3\n        /* \"#utility.yul\":10425:10518   */\n      tag_208\n      jump\t// in\n    tag_319:\n        /* \"#utility.yul\":10543:10545   */\n      0x40\n        /* \"#utility.yul\":10538:10541   */\n      dup3\n        /* \"#utility.yul\":10534:10546   */\n      add\n        /* \"#utility.yul\":10527:10546   */\n      swap1\n      pop\n        /* \"#utility.yul\":10186:10552   */\n      swap2\n      swap1\n      pop\n      jump\t// out\n        /* \"#utility.yul\":10558:10977   */\n    tag_99:\n        /* \"#utility.yul\":10724:10728   */\n      0x00\n        /* \"#utility.yul\":10762:10764   */\n      0x20\n        /* \"#utility.yul\":10751:10760   */\n      dup3\n        /* \"#utility.yul\":10747:10765   */\n      add\n        /* \"#utility.yul\":10739:10765   */\n      swap1\n      pop\n        /* \"#utility.yul\":10811:10820   */\n      dup2\n        /* \"#utility.yul\":10805:10809   */\n      dup2\n        /* \"#utility.yul\":10801:10821   */\n      sub\n        /* \"#utility.yul\":10797:10798   */\n      0x00\n        /* \"#utility.yul\":10786:10795   */\n      dup4\n        /* \"#utility.yul\":10782:10799   */\n      add\n        /* \"#utility.yul\":10775:10822   */\n      mstore\n        /* \"#utility.yul\":10839:10970   */\n      tag_321\n        /* \"#utility.yul\":10965:10969   */\n      dup2\n        /* \"#utility.yul\":10839:10970   */\n      tag_209\n      jump\t// in\n    tag_321:\n        /* \"#utility.yul\":10831:10970   */\n      swap1\n      pop\n        /* \"#utility.yul\":10558:10977   */\n      swap2\n      swap1\n      pop\n      jump\t// out\n        /* \"#utility.yul\":10983:11174   */\n    tag_102:\n        /* \"#utility.yul\":11023:11026   */\n      0x00\n        /* \"#utility.yul\":11042:11062   */\n      tag_323\n        /* \"#utility.yul\":11060:11061   */\n      dup3\n        /* \"#utility.yul\":11042:11062   */\n      tag_185\n      jump\t// in\n    tag_323:\n        /* \"#utility.yul\":11037:11062   */\n      swap2\n      pop\n        /* \"#utility.yul\":11076:11096   */\n      tag_324\n        /* \"#utility.yul\":11094:11095   */\n      dup4\n        /* \"#utility.yul\":11076:11096   */\n      tag_185\n      jump\t// in\n    tag_324:\n        /* \"#utility.yul\":11071:11096   */\n      swap3\n      pop\n        /* \"#utility.yul\":11119:11120   */\n      dup3\n        /* \"#utility.yul\":11116:11117   */\n      dup3\n        /* \"#utility.yul\":11112:11121   */\n      add\n        /* \"#utility.yul\":11105:11121   */\n      swap1\n      pop\n        /* \"#utility.yul\":11140:11143   */\n      dup1\n        /* \"#utility.yul\":11137:11138   */\n      dup3\n        /* \"#utility.yul\":11134:11144   */\n      gt\n        /* \"#utility.yul\":11131:11167   */\n      iszero\n      tag_325\n      jumpi\n        /* \"#utility.yul\":11147:11165   */\n      tag_326\n      tag_206\n      jump\t// in\n    tag_326:\n        /* \"#utility.yul\":11131:11167   */\n    tag_325:\n        /* \"#utility.yul\":10983:11174   */\n      swap3\n      swap2\n      pop\n      pop\n      jump\t// out\n        /* \"#utility.yul\":11180:11374   */\n    tag_105:\n        /* \"#utility.yul\":11220:11224   */\n      0x00\n        /* \"#utility.yul\":11240:11260   */\n      tag_328\n        /* \"#utility.yul\":11258:11259   */\n      dup3\n        /* \"#utility.yul\":11240:11260   */\n      tag_185\n      jump\t// in\n    tag_328:\n        /* \"#utility.yul\":11235:11260   */\n      swap2\n      pop\n        /* \"#utility.yul\":11274:11294   */\n      tag_329\n        /* \"#utility.yul\":11292:11293   */\n      dup4\n        /* \"#utility.yul\":11274:11294   */\n      tag_185\n      jump\t// in\n    tag_329:\n        /* \"#utility.yul\":11269:11294   */\n      swap3\n      pop\n        /* \"#utility.yul\":11318:11319   */\n      dup3\n        /* \"#utility.yul\":11315:11316   */\n      dup3\n        /* \"#utility.yul\":11311:11320   */\n      sub\n        /* \"#utility.yul\":11303:11320   */\n      swap1\n      pop\n        /* \"#utility.yul\":11342:11343   */\n      dup2\n        /* \"#utility.yul\":11336:11340   */\n      dup2\n        /* \"#utility.yul\":11333:11344   */\n      gt\n        /* \"#utility.yul\":11330:11367   */\n      iszero\n      tag_330\n      jumpi\n        /* \"#utility.yul\":11347:11365   */\n      tag_331\n      tag_206\n      jump\t// in\n    tag_331:\n        /* \"#utility.yul\":11330:11367   */\n    tag_330:\n        /* \"#utility.yul\":11180:11374   */\n      swap3\n      swap2\n      pop\n      pop\n      jump\t// out\n        /* \"#utility.yul\":11380:11608   */\n    tag_210:\n        /* \"#utility.yul\":11520:11554   */\n      0x4f6e6c7920746865206f776e65722063616e2065786563757465207468697320\n        /* \"#utility.yul\":11516:11517   */\n      0x00\n        /* \"#utility.yul\":11508:11514   */\n      dup3\n        /* \"#utility.yul\":11504:11518   */\n      add\n        /* \"#utility.yul\":11497:11555   */\n      mstore\n        /* \"#utility.yul\":11589:11600   */\n      0x66756e6374696f6e2e0000000000000000000000000000000000000000000000\n        /* \"#utility.yul\":11584:11586   */\n      0x20\n        /* \"#utility.yul\":11576:11582   */\n      dup3\n        /* \"#utility.yul\":11572:11587   */\n      add\n        /* \"#utility.yul\":11565:11601   */\n      mstore\n        /* \"#utility.yul\":11380:11608   */\n      pop\n      jump\t// out\n        /* \"#utility.yul\":11614:11980   */\n    tag_211:\n        /* \"#utility.yul\":11756:11759   */\n      0x00\n        /* \"#utility.yul\":11777:11844   */\n      tag_334\n        /* \"#utility.yul\":11841:11843   */\n      0x29\n        /* \"#utility.yul\":11836:11839   */\n      dup4\n        /* \"#utility.yul\":11777:11844   */\n      tag_199\n      jump\t// in\n    tag_334:\n        /* \"#utility.yul\":11770:11844   */\n      swap2\n      pop\n        /* \"#utility.yul\":11853:11946   */\n      tag_335\n        /* \"#utility.yul\":11942:11945   */\n      dup3\n        /* \"#utility.yul\":11853:11946   */\n      tag_210\n      jump\t// in\n    tag_335:\n        /* \"#utility.yul\":11971:11973   */\n      0x40\n        /* \"#utility.yul\":11966:11969   */\n      dup3\n        /* \"#utility.yul\":11962:11974   */\n      add\n        /* \"#utility.yul\":11955:11974   */\n      swap1\n      pop\n        /* \"#utility.yul\":11614:11980   */\n      swap2\n      swap1\n      pop\n      jump\t// out\n        /* \"#utility.yul\":11986:12405   */\n    tag_115:\n        /* \"#utility.yul\":12152:12156   */\n      0x00\n        /* \"#utility.yul\":12190:12192   */\n      0x20\n        /* \"#utility.yul\":12179:12188   */\n      dup3\n        /* \"#utility.yul\":12175:12193   */\n      add\n        /* \"#utility.yul\":12167:12193   */\n      swap1\n      pop\n        /* \"#utility.yul\":12239:12248   */\n      dup2\n        /* \"#utility.yul\":12233:12237   */\n      dup2\n        /* \"#utility.yul\":12229:12249   */\n      sub\n        /* \"#utility.yul\":12225:12226   */\n      0x00\n        /* \"#utility.yul\":12214:12223   */\n      dup4\n        /* \"#utility.yul\":12210:12227   */\n      add\n        /* \"#utility.yul\":12203:12250   */\n      mstore\n        /* \"#utility.yul\":12267:12398   */\n      tag_337\n        /* \"#utility.yul\":12393:12397   */\n      dup2\n        /* \"#utility.yul\":12267:12398   */\n      tag_211\n      jump\t// in\n    tag_337:\n        /* \"#utility.yul\":12259:12398   */\n      swap1\n      pop\n        /* \"#utility.yul\":11986:12405   */\n      swap2\n      swap1\n      pop\n      jump\t// out\n        /* \"#utility.yul\":12411:12584   */\n    tag_212:\n        /* \"#utility.yul\":12551:12576   */\n      0x41756374696f6e206973207374696c6c20616374697665000000000000000000\n        /* \"#utility.yul\":12547:12548   */\n      0x00\n        /* \"#utility.yul\":12539:12545   */\n      dup3\n        /* \"#utility.yul\":12535:12549   */\n      add\n        /* \"#utility.yul\":12528:12577   */\n      mstore\n        /* \"#utility.yul\":12411:12584   */\n      pop\n      jump\t// out\n        /* \"#utility.yul\":12590:12956   */\n    tag_213:\n        /* \"#utility.yul\":12732:12735   */\n      0x00\n        /* \"#utility.yul\":12753:12820   */\n      tag_340\n        /* \"#utility.yul\":12817:12819   */\n      0x17\n        /* \"#utility.yul\":12812:12815   */\n      dup4\n        /* \"#utility.yul\":12753:12820   */\n      tag_199\n      jump\t// in\n    tag_340:\n        /* \"#utility.yul\":12746:12820   */\n      swap2\n      pop\n        /* \"#utility.yul\":12829:12922   */\n      tag_341\n        /* \"#utility.yul\":12918:12921   */\n      dup3\n        /* \"#utility.yul\":12829:12922   */\n      tag_212\n      jump\t// in\n    tag_341:\n        /* \"#utility.yul\":12947:12949   */\n      0x20\n        /* \"#utility.yul\":12942:12945   */\n      dup3\n        /* \"#utility.yul\":12938:12950   */\n      add\n        /* \"#utility.yul\":12931:12950   */\n      swap1\n      pop\n        /* \"#utility.yul\":12590:12956   */\n      swap2\n      swap1\n      pop\n      jump\t// out\n        /* \"#utility.yul\":12962:13381   */\n    tag_120:\n        /* \"#utility.yul\":13128:13132   */\n      0x00\n        /* \"#utility.yul\":13166:13168   */\n      0x20\n        /* \"#utility.yul\":13155:13164   */\n      dup3\n        /* \"#utility.yul\":13151:13169   */\n      add\n        /* \"#utility.yul\":13143:13169   */\n      swap1\n      pop\n        /* \"#utility.yul\":13215:13224   */\n      dup2\n        /* \"#utility.yul\":13209:13213   */\n      dup2\n        /* \"#utility.yul\":13205:13225   */\n      sub\n        /* \"#utility.yul\":13201:13202   */\n      0x00\n        /* \"#utility.yul\":13190:13199   */\n      dup4\n        /* \"#utility.yul\":13186:13203   */\n      add\n        /* \"#utility.yul\":13179:13226   */\n      mstore\n        /* \"#utility.yul\":13243:13374   */\n      tag_343\n        /* \"#utility.yul\":13369:13373   */\n      dup2\n        /* \"#utility.yul\":13243:13374   */\n      tag_213\n      jump\t// in\n    tag_343:\n        /* \"#utility.yul\":13235:13374   */\n      swap1\n      pop\n        /* \"#utility.yul\":12962:13381   */\n      swap2\n      swap1\n      pop\n      jump\t// out\n        /* \"#utility.yul\":13387:13554   */\n    tag_214:\n        /* \"#utility.yul\":13527:13546   */\n      0x416c72656164792077697468647261776e000000000000000000000000000000\n        /* \"#utility.yul\":13523:13524   */\n      0x00\n        /* \"#utility.yul\":13515:13521   */\n      dup3\n        /* \"#utility.yul\":13511:13525   */\n      add\n        /* \"#utility.yul\":13504:13547   */\n      mstore\n        /* \"#utility.yul\":13387:13554   */\n      pop\n      jump\t// out\n        /* \"#utility.yul\":13560:13926   */\n    tag_215:\n        /* \"#utility.yul\":13702:13705   */\n      0x00\n        /* \"#utility.yul\":13723:13790   */\n      tag_346\n        /* \"#utility.yul\":13787:13789   */\n      0x11\n        /* \"#utility.yul\":13782:13785   */\n      dup4\n        /* \"#utility.yul\":13723:13790   */\n      tag_199\n      jump\t// in\n    tag_346:\n        /* \"#utility.yul\":13716:13790   */\n      swap2\n      pop\n        /* \"#utility.yul\":13799:13892   */\n      tag_347\n        /* \"#utility.yul\":13888:13891   */\n      dup3\n        /* \"#utility.yul\":13799:13892   */\n      tag_214\n      jump\t// in\n    tag_347:\n        /* \"#utility.yul\":13917:13919   */\n      0x20\n        /* \"#utility.yul\":13912:13915   */\n      dup3\n        /* \"#utility.yul\":13908:13920   */\n      add\n        /* \"#utility.yul\":13901:13920   */\n      swap1\n      pop\n        /* \"#utility.yul\":13560:13926   */\n      swap2\n      swap1\n      pop\n      jump\t// out\n        /* \"#utility.yul\":13932:14351   */\n    tag_124:\n        /* \"#utility.yul\":14098:14102   */\n      0x00\n        /* \"#utility.yul\":14136:14138   */\n      0x20\n        /* \"#utility.yul\":14125:14134   */\n      dup3\n        /* \"#utility.yul\":14121:14139   */\n      add\n        /* \"#utility.yul\":14113:14139   */\n      swap1\n      pop\n        /* \"#utility.yul\":14185:14194   */\n      dup2\n        /* \"#utility.yul\":14179:14183   */\n      dup2\n        /* \"#utility.yul\":14175:14195   */\n      sub\n        /* \"#utility.yul\":14171:14172   */\n      0x00\n        /* \"#utility.yul\":14160:14169   */\n      dup4\n        /* \"#utility.yul\":14156:14173   */\n      add\n        /* \"#utility.yul\":14149:14196   */\n      mstore\n        /* \"#utility.yul\":14213:14344   */\n      tag_349\n        /* \"#utility.yul\":14339:14343   */\n      dup2\n        /* \"#utility.yul\":14213:14344   */\n      tag_215\n      jump\t// in\n    tag_349:\n        /* \"#utility.yul\":14205:14344   */\n      swap1\n      pop\n        /* \"#utility.yul\":13932:14351   */\n      swap2\n      swap1\n      pop\n      jump\t// out\n        /* \"#utility.yul\":14357:14504   */\n    tag_216:\n        /* \"#utility.yul\":14458:14469   */\n      0x00\n        /* \"#utility.yul\":14495:14498   */\n      dup2\n        /* \"#utility.yul\":14480:14498   */\n      swap1\n      pop\n        /* \"#utility.yul\":14357:14504   */\n      swap3\n      swap2\n      pop\n      pop\n      jump\t// out\n        /* \"#utility.yul\":14510:14624   */\n    tag_217:\n      pop\n      jump\t// out\n        /* \"#utility.yul\":14630:15028   */\n    tag_218:\n        /* \"#utility.yul\":14789:14792   */\n      0x00\n        /* \"#utility.yul\":14810:14893   */\n      tag_353\n        /* \"#utility.yul\":14891:14892   */\n      0x00\n        /* \"#utility.yul\":14886:14889   */\n      dup4\n        /* \"#utility.yul\":14810:14893   */\n      tag_216\n      jump\t// in\n    tag_353:\n        /* \"#utility.yul\":14803:14893   */\n      swap2\n      pop\n        /* \"#utility.yul\":14902:14995   */\n      tag_354\n        /* \"#utility.yul\":14991:14994   */\n      dup3\n        /* \"#utility.yul\":14902:14995   */\n      tag_217\n      jump\t// in\n    tag_354:\n        /* \"#utility.yul\":15020:15021   */\n      0x00\n        /* \"#utility.yul\":15015:15018   */\n      dup3\n        /* \"#utility.yul\":15011:15022   */\n      add\n        /* \"#utility.yul\":15004:15022   */\n      swap1\n      pop\n        /* \"#utility.yul\":14630:15028   */\n      swap2\n      swap1\n      pop\n      jump\t// out\n        /* \"#utility.yul\":15034:15413   */\n    tag_126:\n        /* \"#utility.yul\":15218:15221   */\n      0x00\n        /* \"#utility.yul\":15240:15387   */\n      tag_356\n        /* \"#utility.yul\":15383:15386   */\n      dup3\n        /* \"#utility.yul\":15240:15387   */\n      tag_218\n      jump\t// in\n    tag_356:\n        /* \"#utility.yul\":15233:15387   */\n      swap2\n      pop\n        /* \"#utility.yul\":15404:15407   */\n      dup2\n        /* \"#utility.yul\":15397:15407   */\n      swap1\n      pop\n        /* \"#utility.yul\":15034:15413   */\n      swap2\n      swap1\n      pop\n      jump\t// out\n        /* \"#utility.yul\":15419:15584   */\n    tag_219:\n        /* \"#utility.yul\":15559:15576   */\n      0x5472616e73666572206661696c65640000000000000000000000000000000000\n        /* \"#utility.yul\":15555:15556   */\n      0x00\n        /* \"#utility.yul\":15547:15553   */\n      dup3\n        /* \"#utility.yul\":15543:15557   */\n      add\n        /* \"#utility.yul\":15536:15577   */\n      mstore\n        /* \"#utility.yul\":15419:15584   */\n      pop\n      jump\t// out\n        /* \"#utility.yul\":15590:15956   */\n    tag_220:\n        /* \"#utility.yul\":15732:15735   */\n      0x00\n        /* \"#utility.yul\":15753:15820   */\n      tag_359\n        /* \"#utility.yul\":15817:15819   */\n      0x0f\n        /* \"#utility.yul\":15812:15815   */\n      dup4\n        /* \"#utility.yul\":15753:15820   */\n      tag_199\n      jump\t// in\n    tag_359:\n        /* \"#utility.yul\":15746:15820   */\n      swap2\n      pop\n        /* \"#utility.yul\":15829:15922   */\n      tag_360\n        /* \"#utility.yul\":15918:15921   */\n      dup3\n        /* \"#utility.yul\":15829:15922   */\n      tag_219\n      jump\t// in\n    tag_360:\n        /* \"#utility.yul\":15947:15949   */\n      0x20\n        /* \"#utility.yul\":15942:15945   */\n      dup3\n        /* \"#utility.yul\":15938:15950   */\n      add\n        /* \"#utility.yul\":15931:15950   */\n      swap1\n      pop\n        /* \"#utility.yul\":15590:15956   */\n      swap2\n      swap1\n      pop\n      jump\t// out\n        /* \"#utility.yul\":15962:16381   */\n    tag_132:\n        /* \"#utility.yul\":16128:16132   */\n      0x00\n        /* \"#utility.yul\":16166:16168   */\n      0x20\n        /* \"#utility.yul\":16155:16164   */\n      dup3\n        /* \"#utility.yul\":16151:16169   */\n      add\n        /* \"#utility.yul\":16143:16169   */\n      swap1\n      pop\n        /* \"#utility.yul\":16215:16224   */\n      dup2\n        /* \"#utility.yul\":16209:16213   */\n      dup2\n        /* \"#utility.yul\":16205:16225   */\n      sub\n        /* \"#utility.yul\":16201:16202   */\n      0x00\n        /* \"#utility.yul\":16190:16199   */\n      dup4\n        /* \"#utility.yul\":16186:16203   */\n      add\n        /* \"#utility.yul\":16179:16226   */\n      mstore\n        /* \"#utility.yul\":16243:16374   */\n      tag_362\n        /* \"#utility.yul\":16369:16373   */\n      dup2\n        /* \"#utility.yul\":16243:16374   */\n      tag_220\n      jump\t// in\n    tag_362:\n        /* \"#utility.yul\":16235:16374   */\n      swap1\n      pop\n        /* \"#utility.yul\":15962:16381   */\n      swap2\n      swap1\n      pop\n      jump\t// out\n        /* \"#utility.yul\":16387:16556   */\n    tag_221:\n        /* \"#utility.yul\":16527:16548   */\n      0x4e6f20726566756e6420617661696c61626c6500000000000000000000000000\n        /* \"#utility.yul\":16523:16524   */\n      0x00\n        /* \"#utility.yul\":16515:16521   */\n      dup3\n        /* \"#utility.yul\":16511:16525   */\n      add\n        /* \"#utility.yul\":16504:16549   */\n      mstore\n        /* \"#utility.yul\":16387:16556   */\n      pop\n      jump\t// out\n        /* \"#utility.yul\":16562:16928   */\n    tag_222:\n        /* \"#utility.yul\":16704:16707   */\n      0x00\n        /* \"#utility.yul\":16725:16792   */\n      tag_365\n        /* \"#utility.yul\":16789:16791   */\n      0x13\n        /* \"#utility.yul\":16784:16787   */\n      dup4\n        /* \"#utility.yul\":16725:16792   */\n      tag_199\n      jump\t// in\n    tag_365:\n        /* \"#utility.yul\":16718:16792   */\n      swap2\n      pop\n        /* \"#utility.yul\":16801:16894   */\n      tag_366\n        /* \"#utility.yul\":16890:16893   */\n      dup3\n        /* \"#utility.yul\":16801:16894   */\n      tag_221\n      jump\t// in\n    tag_366:\n        /* \"#utility.yul\":16919:16921   */\n      0x20\n        /* \"#utility.yul\":16914:16917   */\n      dup3\n        /* \"#utility.yul\":16910:16922   */\n      add\n        /* \"#utility.yul\":16903:16922   */\n      swap1\n      pop\n        /* \"#utility.yul\":16562:16928   */\n      swap2\n      swap1\n      pop\n      jump\t// out\n        /* \"#utility.yul\":16934:17353   */\n    tag_137:\n        /* \"#utility.yul\":17100:17104   */\n      0x00\n        /* \"#utility.yul\":17138:17140   */\n      0x20\n        /* \"#utility.yul\":17127:17136   */\n      dup3\n        /* \"#utility.yul\":17123:17141   */\n      add\n        /* \"#utility.yul\":17115:17141   */\n      swap1\n      pop\n        /* \"#utility.yul\":17187:17196   */\n      dup2\n        /* \"#utility.yul\":17181:17185   */\n      dup2\n        /* \"#utility.yul\":17177:17197   */\n      sub\n        /* \"#utility.yul\":17173:17174   */\n      0x00\n        /* \"#utility.yul\":17162:17171   */\n      dup4\n        /* \"#utility.yul\":17158:17175   */\n      add\n        /* \"#utility.yul\":17151:17198   */\n      mstore\n        /* \"#utility.yul\":17215:17346   */\n      tag_368\n        /* \"#utility.yul\":17341:17345   */\n      dup2\n        /* \"#utility.yul\":17215:17346   */\n      tag_222\n      jump\t// in\n    tag_368:\n        /* \"#utility.yul\":17207:17346   */\n      swap1\n      pop\n        /* \"#utility.yul\":16934:17353   */\n      swap2\n      swap1\n      pop\n      jump\t// out\n        /* \"#utility.yul\":17359:17530   */\n    tag_223:\n        /* \"#utility.yul\":17499:17522   */\n      0x41756374696f6e20616c726561647920656e6465640000000000000000000000\n        /* \"#utility.yul\":17495:17496   */\n      0x00\n        /* \"#utility.yul\":17487:17493   */\n      dup3\n        /* \"#utility.yul\":17483:17497   */\n      add\n        /* \"#utility.yul\":17476:17523   */\n      mstore\n        /* \"#utility.yul\":17359:17530   */\n      pop\n      jump\t// out\n        /* \"#utility.yul\":17536:17902   */\n    tag_224:\n        /* \"#utility.yul\":17678:17681   */\n      0x00\n        /* \"#utility.yul\":17699:17766   */\n      tag_371\n        /* \"#utility.yul\":17763:17765   */\n      0x15\n        /* \"#utility.yul\":17758:17761   */\n      dup4\n        /* \"#utility.yul\":17699:17766   */\n      tag_199\n      jump\t// in\n    tag_371:\n        /* \"#utility.yul\":17692:17766   */\n      swap2\n      pop\n        /* \"#utility.yul\":17775:17868   */\n      tag_372\n        /* \"#utility.yul\":17864:17867   */\n      dup3\n        /* \"#utility.yul\":17775:17868   */\n      tag_223\n      jump\t// in\n    tag_372:\n        /* \"#utility.yul\":17893:17895   */\n      0x20\n        /* \"#utility.yul\":17888:17891   */\n      dup3\n        /* \"#utility.yul\":17884:17896   */\n      add\n        /* \"#utility.yul\":17877:17896   */\n      swap1\n      pop\n        /* \"#utility.yul\":17536:17902   */\n      swap2\n      swap1\n      pop\n      jump\t// out\n        /* \"#utility.yul\":17908:18327   */\n    tag_171:\n        /* \"#utility.yul\":18074:18078   */\n      0x00\n        /* \"#utility.yul\":18112:18114   */\n      0x20\n        /* \"#utility.yul\":18101:18110   */\n      dup3\n        /* \"#utility.yul\":18097:18115   */\n      add\n        /* \"#utility.yul\":18089:18115   */\n      swap1\n      pop\n        /* \"#utility.yul\":18161:18170   */\n      dup2\n        /* \"#utility.yul\":18155:18159   */\n      dup2\n        /* \"#utility.yul\":18151:18171   */\n      sub\n        /* \"#utility.yul\":18147:18148   */\n      0x00\n        /* \"#utility.yul\":18136:18145   */\n      dup4\n        /* \"#utility.yul\":18132:18149   */\n      add\n        /* \"#utility.yul\":18125:18172   */\n      mstore\n        /* \"#utility.yul\":18189:18320   */\n      tag_374\n        /* \"#utility.yul\":18315:18319   */\n      dup2\n        /* \"#utility.yul\":18189:18320   */\n      tag_224\n      jump\t// in\n    tag_374:\n        /* \"#utility.yul\":18181:18320   */\n      swap1\n      pop\n        /* \"#utility.yul\":17908:18327   */\n      swap2\n      swap1\n      pop\n      jump\t// out\n        /* \"#utility.yul\":18333:18500   */\n    tag_225:\n        /* \"#utility.yul\":18473:18492   */\n      0x416c72656164792066696e616c697a6564000000000000000000000000000000\n        /* \"#utility.yul\":18469:18470   */\n      0x00\n        /* \"#utility.yul\":18461:18467   */\n      dup3\n        /* \"#utility.yul\":18457:18471   */\n      add\n        /* \"#utility.yul\":18450:18493   */\n      mstore\n        /* \"#utility.yul\":18333:18500   */\n      pop\n      jump\t// out\n        /* \"#utility.yul\":18506:18872   */\n    tag_226:\n        /* \"#utility.yul\":18648:18651   */\n      0x00\n        /* \"#utility.yul\":18669:18736   */\n      tag_377\n        /* \"#utility.yul\":18733:18735   */\n      0x11\n        /* \"#utility.yul\":18728:18731   */\n      dup4\n        /* \"#utility.yul\":18669:18736   */\n      tag_199\n      jump\t// in\n    tag_377:\n        /* \"#utility.yul\":18662:18736   */\n      swap2\n      pop\n        /* \"#utility.yul\":18745:18838   */\n      tag_378\n        /* \"#utility.yul\":18834:18837   */\n      dup3\n        /* \"#utility.yul\":18745:18838   */\n      tag_225\n      jump\t// in\n    tag_378:\n        /* \"#utility.yul\":18863:18865   */\n      0x20\n        /* \"#utility.yul\":18858:18861   */\n      dup3\n        /* \"#utility.yul\":18854:18866   */\n      add\n        /* \"#utility.yul\":18847:18866   */\n      swap1\n      pop\n        /* \"#utility.yul\":18506:18872   */\n      swap2\n      swap1\n      pop\n      jump\t// out\n        /* \"#utility.yul\":18878:19297   */\n    tag_176:\n        /* \"#utility.yul\":19044:19048   */\n      0x00\n        /* \"#utility.yul\":19082:19084   */\n      0x20\n        /* \"#utility.yul\":19071:19080   */\n      dup3\n        /* \"#utility.yul\":19067:19085   */\n      add\n        /* \"#utility.yul\":19059:19085   */\n      swap1\n      pop\n        /* \"#utility.yul\":19131:19140   */\n      dup2\n        /* \"#utility.yul\":19125:19129   */\n      dup2\n        /* \"#utility.yul\":19121:19141   */\n      sub\n        /* \"#utility.yul\":19117:19118   */\n      0x00\n        /* \"#utility.yul\":19106:19115   */\n      dup4\n        /* \"#utility.yul\":19102:19119   */\n      add\n        /* \"#utility.yul\":19095:19142   */\n      mstore\n        /* \"#utility.yul\":19159:19290   */\n      tag_380\n        /* \"#utility.yul\":19285:19289   */\n      dup2\n        /* \"#utility.yul\":19159:19290   */\n      tag_226\n      jump\t// in\n    tag_380:\n        /* \"#utility.yul\":19151:19290   */\n      swap1\n      pop\n        /* \"#utility.yul\":18878:19297   */\n      swap2\n      swap1\n      pop\n      jump\t// out\n\n    auxdata: 0xa26469706673582212208223411505e444f9d266f9eda0150cc6889d9ea3ee54a6fc3fa8d5fc4f663dc264736f6c634300081e0033\n}\n",
				"bytecode": {
					"linkReferences": {},
					"object": "608060405234801561000f575f5ffd5b50335f5f6101000a81548173ffffffffffffffffffffffffffffffffffffffff021916908373ffffffffffffffffffffffffffffffffffffffff16021790555062093a804261005e91906100d1565b600181905550606960028190555060026003819055506102586004819055505f60055f6101000a81548160ff021916908315150217905550610104565b5f819050919050565b7f4e487b71000000000000000000000000000000000000000000000000000000005f52601160045260245ffd5b5f6100db8261009b565b91506100e68361009b565b92508282019050808211156100fe576100fd6100a4565b5b92915050565b61184d806101115f395ff3fe6080604052600436106100e7575f3560e01c80637c513c0f1161008957806391f901571161005857806391f9015714610284578063eeed1b26146102af578063efb98bcf146102d9578063fe67a54b14610303576100e7565b80637c513c0f146101db5780638d0f6da3146102055780638da5cb5b1461022f5780638e7ea5b214610259576100e7565b80633197cbb6116100c55780633197cbb6146101475780633ccfd60b1461017157806343891f3a146101875780635ea1d6f8146101b1576100e7565b80631998aeef146100eb57806326b387bb146100f55780632f49e96414610131575b5f5ffd5b6100f3610319565b005b348015610100575f5ffd5b5061011b60048036038101906101169190610fe0565b6106cc565b6040516101289190611023565b60405180910390f35b34801561013c575f5ffd5b506101456106e1565b005b348015610152575f5ffd5b5061015b61095e565b6040516101689190611023565b60405180910390f35b34801561017c575f5ffd5b50610185610964565b005b348015610192575f5ffd5b5061019b610bd3565b6040516101a89190611056565b60405180910390f35b3480156101bc575f5ffd5b506101c5610be5565b6040516101d29190611023565b60405180910390f35b3480156101e6575f5ffd5b506101ef610beb565b6040516101fc9190611023565b60405180910390f35b348015610210575f5ffd5b50610219610bf1565b6040516102269190611162565b60405180910390f35b34801561023a575f5ffd5b50610243610cab565b6040516102509190611191565b60405180910390f35b348015610264575f5ffd5b5061026d610ccf565b60405161027b9291906111aa565b60405180910390f35b34801561028f575f5ffd5b50610298610d5e565b6040516102a69291906111aa565b60405180910390f35b3480156102ba575f5ffd5b506102c3610d8e565b6040516102d09190611023565b60405180910390f35b3480156102e4575f5ffd5b506102ed610d94565b6040516102fa9190611023565b60405180910390f35b34801561030e575f5ffd5b50610317610dba565b005b600154421061035d576040517f08c379a00000000000000000000000000000000000000000000000000000000081526004016103549061122b565b60405180910390fd5b60055f9054906101000a900460ff16156103ac576040517f08c379a00000000000000000000000000000000000000000000000000000000081526004016103a390611293565b60405180910390fd5b5f34116103ee576040517f08c379a00000000000000000000000000000000000000000000000000000000081526004016103e5906112fb565b60405180910390fd5b60646002546006600101546104039190611346565b61040d91906113b4565b34101561044f576040517f08c379a000000000000000000000000000000000000000000000000000000000815260040161044690611454565b60405180910390fd5b5f73ffffffffffffffffffffffffffffffffffffffff1660065f015f9054906101000a900473ffffffffffffffffffffffffffffffffffffffff1673ffffffffffffffffffffffffffffffffffffffff16146105215760066001015460085f60065f015f9054906101000a900473ffffffffffffffffffffffffffffffffffffffff1673ffffffffffffffffffffffffffffffffffffffff1673ffffffffffffffffffffffffffffffffffffffff1681526020019081526020015f205f8282546105199190611472565b925050819055505b60405180604001604052803373ffffffffffffffffffffffffffffffffffffffff1681526020013481525060065f820151815f015f6101000a81548173ffffffffffffffffffffffffffffffffffffffff021916908373ffffffffffffffffffffffffffffffffffffffff1602179055506020820151816001015590505060096006908060018154018082558091505060019003905f5260205f2090600202015f909190919091505f82015f9054906101000a900473ffffffffffffffffffffffffffffffffffffffff16815f015f6101000a81548173ffffffffffffffffffffffffffffffffffffffff021916908373ffffffffffffffffffffffffffffffffffffffff1602179055506001820154816001015550506004544260015461064991906114a5565b101561066a5760045460015f8282546106629190611472565b925050819055505b3373ffffffffffffffffffffffffffffffffffffffff167fdd0b6c6a77960e2066c96171b4d7ac9e8b4c184011f38544afa36a5bb63ec59f346040516106b09190611023565b60405180910390a260015442106106ca576106c9610ea1565b5b565b6008602052805f5260405f205f915090505481565b5f5f9054906101000a900473ffffffffffffffffffffffffffffffffffffffff1673ffffffffffffffffffffffffffffffffffffffff163373ffffffffffffffffffffffffffffffffffffffff161461076f576040517f08c379a000000000000000000000000000000000000000000000000000000000815260040161076690611548565b60405180910390fd5b6001544210158061078b575060055f9054906101000a900460ff165b6107ca576040517f08c379a00000000000000000000000000000000000000000000000000000000081526004016107c1906115b0565b60405180910390fd5b5f60066001015411610811576040517f08c379a000000000000000000000000000000000000000000000000000000000815260040161080890611618565b60405180910390fd5b5f60066001015490505f6006600101819055505f5f5f9054906101000a900473ffffffffffffffffffffffffffffffffffffffff1673ffffffffffffffffffffffffffffffffffffffff168260405161086990611663565b5f6040518083038185875af1925050503d805f81146108a3576040519150601f19603f3d011682016040523d82523d5f602084013e6108a8565b606091505b50509050806108ec576040517f08c379a00000000000000000000000000000000000000000000000000000000081526004016108e3906116c1565b60405180910390fd5b5f5f9054906101000a900473ffffffffffffffffffffffffffffffffffffffff1673ffffffffffffffffffffffffffffffffffffffff167fa919fadcfa556a012bab31b15f596ea7ccd397adbf10e15f176db9055ab361c4836040516109529190611023565b60405180910390a25050565b60015481565b5f60085f3373ffffffffffffffffffffffffffffffffffffffff1673ffffffffffffffffffffffffffffffffffffffff1681526020019081526020015f205490505f81116109e7576040517f08c379a00000000000000000000000000000000000000000000000000000000081526004016109de90611729565b60405180910390fd5b5f60085f3373ffffffffffffffffffffffffffffffffffffffff1673ffffffffffffffffffffffffffffffffffffffff1681526020019081526020015f20819055505f606460035483610a3a9190611346565b610a4491906113b4565b90505f60055f9054906101000a900460ff16610a605782610a6d565b8183610a6c91906114a5565b5b90505f3373ffffffffffffffffffffffffffffffffffffffff1682604051610a9490611663565b5f6040518083038185875af1925050503d805f8114610ace576040519150601f19603f3d011682016040523d82523d5f602084013e610ad3565b606091505b5050905080610b17576040517f08c379a0000000000000000000000000000000000000000000000000000000008152600401610b0e906116c1565b60405180910390fd5b60055f9054906101000a900460ff1615610b7e573373ffffffffffffffffffffffffffffffffffffffff167fd7dee2702d63ad89917b6a4da9981c90c4d24f8c2bdfd64c604ecae57d8d065183604051610b719190611023565b60405180910390a2610bcd565b3373ffffffffffffffffffffffffffffffffffffffff167fdce68997783ae47468b6fb0dd39cca315f9082d51d9ab3df8747c70512aa8ff283604051610bc49190611023565b60405180910390a25b50505050565b60055f9054906101000a900460ff1681565b60035481565b60025481565b60606009805480602002602001604051908101604052809291908181526020015f905b82821015610ca2578382905f5260205f2090600202016040518060400160405290815f82015f9054906101000a900473ffffffffffffffffffffffffffffffffffffffff1673ffffffffffffffffffffffffffffffffffffffff1673ffffffffffffffffffffffffffffffffffffffff16815260200160018201548152505081526020019060010190610c14565b50505050905090565b5f5f9054906101000a900473ffffffffffffffffffffffffffffffffffffffff1681565b5f5f60015442101580610ced575060055f9054906101000a900460ff165b610d2c576040517f08c379a0000000000000000000000000000000000000000000000000000000008152600401610d23906115b0565b60405180910390fd5b60065f015f9054906101000a900473ffffffffffffffffffffffffffffffffffffffff16600660010154915091509091565b6006805f015f9054906101000a900473ffffffffffffffffffffffffffffffffffffffff16908060010154905082565b60045481565b5f6001544210610da6575f9050610db7565b42600154610db491906114a5565b90505b90565b5f5f9054906101000a900473ffffffffffffffffffffffffffffffffffffffff1673ffffffffffffffffffffffffffffffffffffffff163373ffffffffffffffffffffffffffffffffffffffff1614610e48576040517f08c379a0000000000000000000000000000000000000000000000000000000008152600401610e3f90611548565b60405180910390fd5b60055f9054906101000a900460ff1615610e97576040517f08c379a0000000000000000000000000000000000000000000000000000000008152600401610e8e90611791565b60405180910390fd5b610e9f610ea1565b565b60055f9054906101000a900460ff1615610ef0576040517f08c379a0000000000000000000000000000000000000000000000000000000008152600401610ee7906117f9565b60405180910390fd5b600160055f6101000a81548160ff02191690831515021790555060065f015f9054906101000a900473ffffffffffffffffffffffffffffffffffffffff1673ffffffffffffffffffffffffffffffffffffffff167fdaec4582d5d9595688c8c98545fdd1c696d41c6aeaeb636737e84ed2f5c00eda600660010154604051610f789190611023565b60405180910390a2565b5f5ffd5b5f73ffffffffffffffffffffffffffffffffffffffff82169050919050565b5f610faf82610f86565b9050919050565b610fbf81610fa5565b8114610fc9575f5ffd5b50565b5f81359050610fda81610fb6565b92915050565b5f60208284031215610ff557610ff4610f82565b5b5f61100284828501610fcc565b91505092915050565b5f819050919050565b61101d8161100b565b82525050565b5f6020820190506110365f830184611014565b92915050565b5f8115159050919050565b6110508161103c565b82525050565b5f6020820190506110695f830184611047565b92915050565b5f81519050919050565b5f82825260208201905092915050565b5f819050602082019050919050565b6110a181610fa5565b82525050565b6110b08161100b565b82525050565b604082015f8201516110ca5f850182611098565b5060208201516110dd60208501826110a7565b50505050565b5f6110ee83836110b6565b60408301905092915050565b5f602082019050919050565b5f6111108261106f565b61111a8185611079565b935061112583611089565b805f5b8381101561115557815161113c88826110e3565b9750611147836110fa565b925050600181019050611128565b5085935050505092915050565b5f6020820190508181035f83015261117a8184611106565b905092915050565b61118b81610fa5565b82525050565b5f6020820190506111a45f830184611182565b92915050565b5f6040820190506111bd5f830185611182565b6111ca6020830184611014565b9392505050565b5f82825260208201905092915050565b7f41756374696f6e2068617320656e6465640000000000000000000000000000005f82015250565b5f6112156011836111d1565b9150611220826111e1565b602082019050919050565b5f6020820190508181035f83015261124281611209565b9050919050565b7f41756374696f6e20686173206265656e207465726d696e6174656400000000005f82015250565b5f61127d601b836111d1565b915061128882611249565b602082019050919050565b5f6020820190508181035f8301526112aa81611271565b9050919050565b7f426964206d7573742062652067726561746572207468616e20300000000000005f82015250565b5f6112e5601a836111d1565b91506112f0826112b1565b602082019050919050565b5f6020820190508181035f830152611312816112d9565b9050919050565b7f4e487b71000000000000000000000000000000000000000000000000000000005f52601160045260245ffd5b5f6113508261100b565b915061135b8361100b565b92508282026113698161100b565b915082820484148315176113805761137f611319565b5b5092915050565b7f4e487b71000000000000000000000000000000000000000000000000000000005f52601260045260245ffd5b5f6113be8261100b565b91506113c98361100b565b9250826113d9576113d8611387565b5b828204905092915050565b7f426964206d757374206265206174206c656173742035252068696768657220745f8201527f68616e2063757272656e74206269640000000000000000000000000000000000602082015250565b5f61143e602f836111d1565b9150611449826113e4565b604082019050919050565b5f6020820190508181035f83015261146b81611432565b9050919050565b5f61147c8261100b565b91506114878361100b565b925082820190508082111561149f5761149e611319565b5b92915050565b5f6114af8261100b565b91506114ba8361100b565b92508282039050818111156114d2576114d1611319565b5b92915050565b7f4f6e6c7920746865206f776e65722063616e20657865637574652074686973205f8201527f66756e6374696f6e2e0000000000000000000000000000000000000000000000602082015250565b5f6115326029836111d1565b915061153d826114d8565b604082019050919050565b5f6020820190508181035f83015261155f81611526565b9050919050565b7f41756374696f6e206973207374696c6c206163746976650000000000000000005f82015250565b5f61159a6017836111d1565b91506115a582611566565b602082019050919050565b5f6020820190508181035f8301526115c78161158e565b9050919050565b7f416c72656164792077697468647261776e0000000000000000000000000000005f82015250565b5f6116026011836111d1565b915061160d826115ce565b602082019050919050565b5f6020820190508181035f83015261162f816115f6565b9050919050565b5f81905092915050565b50565b5f61164e5f83611636565b915061165982611640565b5f82019050919050565b5f61166d82611643565b9150819050919050565b7f5472616e73666572206661696c656400000000000000000000000000000000005f82015250565b5f6116ab600f836111d1565b91506116b682611677565b602082019050919050565b5f6020820190508181035f8301526116d88161169f565b9050919050565b7f4e6f20726566756e6420617661696c61626c65000000000000000000000000005f82015250565b5f6117136013836111d1565b915061171e826116df565b602082019050919050565b5f6020820190508181035f83015261174081611707565b9050919050565b7f41756374696f6e20616c726561647920656e64656400000000000000000000005f82015250565b5f61177b6015836111d1565b915061178682611747565b602082019050919050565b5f6020820190508181035f8301526117a88161176f565b9050919050565b7f416c72656164792066696e616c697a65640000000000000000000000000000005f82015250565b5f6117e36011836111d1565b91506117ee826117af565b602082019050919050565b5f6020820190508181035f830152611810816117d7565b905091905056fea26469706673582212208223411505e444f9d266f9eda0150cc6889d9ea3ee54a6fc3fa8d5fc4f663dc264736f6c634300081e0033",
					"opcodes": "PUSH1 0x80 PUSH1 0x40 MSTORE CALLVALUE DUP1 ISZERO PUSH2 0xF JUMPI PUSH0 PUSH0 REVERT JUMPDEST POP CALLER PUSH0 PUSH0 PUSH2 0x100 EXP DUP2 SLOAD DUP2 PUSH20 0xFFFFFFFFFFFFFFFFFFFFFFFFFFFFFFFFFFFFFFFF MUL NOT AND SWAP1 DUP4 PUSH20 0xFFFFFFFFFFFFFFFFFFFFFFFFFFFFFFFFFFFFFFFF AND MUL OR SWAP1 SSTORE POP PUSH3 0x93A80 TIMESTAMP PUSH2 0x5E SWAP2 SWAP1 PUSH2 0xD1 JUMP JUMPDEST PUSH1 0x1 DUP2 SWAP1 SSTORE POP PUSH1 0x69 PUSH1 0x2 DUP2 SWAP1 SSTORE POP PUSH1 0x2 PUSH1 0x3 DUP2 SWAP1 SSTORE POP PUSH2 0x258 PUSH1 0x4 DUP2 SWAP1 SSTORE POP PUSH0 PUSH1 0x5 PUSH0 PUSH2 0x100 EXP DUP2 SLOAD DUP2 PUSH1 0xFF MUL NOT AND SWAP1 DUP4 ISZERO ISZERO MUL OR SWAP1 SSTORE POP PUSH2 0x104 JUMP JUMPDEST PUSH0 DUP2 SWAP1 POP SWAP2 SWAP1 POP JUMP JUMPDEST PUSH32 0x4E487B7100000000000000000000000000000000000000000000000000000000 PUSH0 MSTORE PUSH1 0x11 PUSH1 0x4 MSTORE PUSH1 0x24 PUSH0 REVERT JUMPDEST PUSH0 PUSH2 0xDB DUP3 PUSH2 0x9B JUMP JUMPDEST SWAP2 POP PUSH2 0xE6 DUP4 PUSH2 0x9B JUMP JUMPDEST SWAP3 POP DUP3 DUP3 ADD SWAP1 POP DUP1 DUP3 GT ISZERO PUSH2 0xFE JUMPI PUSH2 0xFD PUSH2 0xA4 JUMP JUMPDEST JUMPDEST SWAP3 SWAP2 POP POP JUMP JUMPDEST PUSH2 0x184D DUP1 PUSH2 0x111 PUSH0 CODECOPY PUSH0 RETURN INVALID PUSH1 0x80 PUSH1 0x40 MSTORE PUSH1 0x4 CALLDATASIZE LT PUSH2 0xE7 JUMPI PUSH0 CALLDATALOAD PUSH1 0xE0 SHR DUP1 PUSH4 0x7C513C0F GT PUSH2 0x89 JUMPI DUP1 PUSH4 0x91F90157 GT PUSH2 0x58 JUMPI DUP1 PUSH4 0x91F90157 EQ PUSH2 0x284 JUMPI DUP1 PUSH4 0xEEED1B26 EQ PUSH2 0x2AF JUMPI DUP1 PUSH4 0xEFB98BCF EQ PUSH2 0x2D9 JUMPI DUP1 PUSH4 0xFE67A54B EQ PUSH2 0x303 JUMPI PUSH2 0xE7 JUMP JUMPDEST DUP1 PUSH4 0x7C513C0F EQ PUSH2 0x1DB JUMPI DUP1 PUSH4 0x8D0F6DA3 EQ PUSH2 0x205 JUMPI DUP1 PUSH4 0x8DA5CB5B EQ PUSH2 0x22F JUMPI DUP1 PUSH4 0x8E7EA5B2 EQ PUSH2 0x259 JUMPI PUSH2 0xE7 JUMP JUMPDEST DUP1 PUSH4 0x3197CBB6 GT PUSH2 0xC5 JUMPI DUP1 PUSH4 0x3197CBB6 EQ PUSH2 0x147 JUMPI DUP1 PUSH4 0x3CCFD60B EQ PUSH2 0x171 JUMPI DUP1 PUSH4 0x43891F3A EQ PUSH2 0x187 JUMPI DUP1 PUSH4 0x5EA1D6F8 EQ PUSH2 0x1B1 JUMPI PUSH2 0xE7 JUMP JUMPDEST DUP1 PUSH4 0x1998AEEF EQ PUSH2 0xEB JUMPI DUP1 PUSH4 0x26B387BB EQ PUSH2 0xF5 JUMPI DUP1 PUSH4 0x2F49E964 EQ PUSH2 0x131 JUMPI JUMPDEST PUSH0 PUSH0 REVERT JUMPDEST PUSH2 0xF3 PUSH2 0x319 JUMP JUMPDEST STOP JUMPDEST CALLVALUE DUP1 ISZERO PUSH2 0x100 JUMPI PUSH0 PUSH0 REVERT JUMPDEST POP PUSH2 0x11B PUSH1 0x4 DUP1 CALLDATASIZE SUB DUP2 ADD SWAP1 PUSH2 0x116 SWAP2 SWAP1 PUSH2 0xFE0 JUMP JUMPDEST PUSH2 0x6CC JUMP JUMPDEST PUSH1 0x40 MLOAD PUSH2 0x128 SWAP2 SWAP1 PUSH2 0x1023 JUMP JUMPDEST PUSH1 0x40 MLOAD DUP1 SWAP2 SUB SWAP1 RETURN JUMPDEST CALLVALUE DUP1 ISZERO PUSH2 0x13C JUMPI PUSH0 PUSH0 REVERT JUMPDEST POP PUSH2 0x145 PUSH2 0x6E1 JUMP JUMPDEST STOP JUMPDEST CALLVALUE DUP1 ISZERO PUSH2 0x152 JUMPI PUSH0 PUSH0 REVERT JUMPDEST POP PUSH2 0x15B PUSH2 0x95E JUMP JUMPDEST PUSH1 0x40 MLOAD PUSH2 0x168 SWAP2 SWAP1 PUSH2 0x1023 JUMP JUMPDEST PUSH1 0x40 MLOAD DUP1 SWAP2 SUB SWAP1 RETURN JUMPDEST CALLVALUE DUP1 ISZERO PUSH2 0x17C JUMPI PUSH0 PUSH0 REVERT JUMPDEST POP PUSH2 0x185 PUSH2 0x964 JUMP JUMPDEST STOP JUMPDEST CALLVALUE DUP1 ISZERO PUSH2 0x192 JUMPI PUSH0 PUSH0 REVERT JUMPDEST POP PUSH2 0x19B PUSH2 0xBD3 JUMP JUMPDEST PUSH1 0x40 MLOAD PUSH2 0x1A8 SWAP2 SWAP1 PUSH2 0x1056 JUMP JUMPDEST PUSH1 0x40 MLOAD DUP1 SWAP2 SUB SWAP1 RETURN JUMPDEST CALLVALUE DUP1 ISZERO PUSH2 0x1BC JUMPI PUSH0 PUSH0 REVERT JUMPDEST POP PUSH2 0x1C5 PUSH2 0xBE5 JUMP JUMPDEST PUSH1 0x40 MLOAD PUSH2 0x1D2 SWAP2 SWAP1 PUSH2 0x1023 JUMP JUMPDEST PUSH1 0x40 MLOAD DUP1 SWAP2 SUB SWAP1 RETURN JUMPDEST CALLVALUE DUP1 ISZERO PUSH2 0x1E6 JUMPI PUSH0 PUSH0 REVERT JUMPDEST POP PUSH2 0x1EF PUSH2 0xBEB JUMP JUMPDEST PUSH1 0x40 MLOAD PUSH2 0x1FC SWAP2 SWAP1 PUSH2 0x1023 JUMP JUMPDEST PUSH1 0x40 MLOAD DUP1 SWAP2 SUB SWAP1 RETURN JUMPDEST CALLVALUE DUP1 ISZERO PUSH2 0x210 JUMPI PUSH0 PUSH0 REVERT JUMPDEST POP PUSH2 0x219 PUSH2 0xBF1 JUMP JUMPDEST PUSH1 0x40 MLOAD PUSH2 0x226 SWAP2 SWAP1 PUSH2 0x1162 JUMP JUMPDEST PUSH1 0x40 MLOAD DUP1 SWAP2 SUB SWAP1 RETURN JUMPDEST CALLVALUE DUP1 ISZERO PUSH2 0x23A JUMPI PUSH0 PUSH0 REVERT JUMPDEST POP PUSH2 0x243 PUSH2 0xCAB JUMP JUMPDEST PUSH1 0x40 MLOAD PUSH2 0x250 SWAP2 SWAP1 PUSH2 0x1191 JUMP JUMPDEST PUSH1 0x40 MLOAD DUP1 SWAP2 SUB SWAP1 RETURN JUMPDEST CALLVALUE DUP1 ISZERO PUSH2 0x264 JUMPI PUSH0 PUSH0 REVERT JUMPDEST POP PUSH2 0x26D PUSH2 0xCCF JUMP JUMPDEST PUSH1 0x40 MLOAD PUSH2 0x27B SWAP3 SWAP2 SWAP1 PUSH2 0x11AA JUMP JUMPDEST PUSH1 0x40 MLOAD DUP1 SWAP2 SUB SWAP1 RETURN JUMPDEST CALLVALUE DUP1 ISZERO PUSH2 0x28F JUMPI PUSH0 PUSH0 REVERT JUMPDEST POP PUSH2 0x298 PUSH2 0xD5E JUMP JUMPDEST PUSH1 0x40 MLOAD PUSH2 0x2A6 SWAP3 SWAP2 SWAP1 PUSH2 0x11AA JUMP JUMPDEST PUSH1 0x40 MLOAD DUP1 SWAP2 SUB SWAP1 RETURN JUMPDEST CALLVALUE DUP1 ISZERO PUSH2 0x2BA JUMPI PUSH0 PUSH0 REVERT JUMPDEST POP PUSH2 0x2C3 PUSH2 0xD8E JUMP JUMPDEST PUSH1 0x40 MLOAD PUSH2 0x2D0 SWAP2 SWAP1 PUSH2 0x1023 JUMP JUMPDEST PUSH1 0x40 MLOAD DUP1 SWAP2 SUB SWAP1 RETURN JUMPDEST CALLVALUE DUP1 ISZERO PUSH2 0x2E4 JUMPI PUSH0 PUSH0 REVERT JUMPDEST POP PUSH2 0x2ED PUSH2 0xD94 JUMP JUMPDEST PUSH1 0x40 MLOAD PUSH2 0x2FA SWAP2 SWAP1 PUSH2 0x1023 JUMP JUMPDEST PUSH1 0x40 MLOAD DUP1 SWAP2 SUB SWAP1 RETURN JUMPDEST CALLVALUE DUP1 ISZERO PUSH2 0x30E JUMPI PUSH0 PUSH0 REVERT JUMPDEST POP PUSH2 0x317 PUSH2 0xDBA JUMP JUMPDEST STOP JUMPDEST PUSH1 0x1 SLOAD TIMESTAMP LT PUSH2 0x35D JUMPI PUSH1 0x40 MLOAD PUSH32 0x8C379A000000000000000000000000000000000000000000000000000000000 DUP2 MSTORE PUSH1 0x4 ADD PUSH2 0x354 SWAP1 PUSH2 0x122B JUMP JUMPDEST PUSH1 0x40 MLOAD DUP1 SWAP2 SUB SWAP1 REVERT JUMPDEST PUSH1 0x5 PUSH0 SWAP1 SLOAD SWAP1 PUSH2 0x100 EXP SWAP1 DIV PUSH1 0xFF AND ISZERO PUSH2 0x3AC JUMPI PUSH1 0x40 MLOAD PUSH32 0x8C379A000000000000000000000000000000000000000000000000000000000 DUP2 MSTORE PUSH1 0x4 ADD PUSH2 0x3A3 SWAP1 PUSH2 0x1293 JUMP JUMPDEST PUSH1 0x40 MLOAD DUP1 SWAP2 SUB SWAP1 REVERT JUMPDEST PUSH0 CALLVALUE GT PUSH2 0x3EE JUMPI PUSH1 0x40 MLOAD PUSH32 0x8C379A000000000000000000000000000000000000000000000000000000000 DUP2 MSTORE PUSH1 0x4 ADD PUSH2 0x3E5 SWAP1 PUSH2 0x12FB JUMP JUMPDEST PUSH1 0x40 MLOAD DUP1 SWAP2 SUB SWAP1 REVERT JUMPDEST PUSH1 0x64 PUSH1 0x2 SLOAD PUSH1 0x6 PUSH1 0x1 ADD SLOAD PUSH2 0x403 SWAP2 SWAP1 PUSH2 0x1346 JUMP JUMPDEST PUSH2 0x40D SWAP2 SWAP1 PUSH2 0x13B4 JUMP JUMPDEST CALLVALUE LT ISZERO PUSH2 0x44F JUMPI PUSH1 0x40 MLOAD PUSH32 0x8C379A000000000000000000000000000000000000000000000000000000000 DUP2 MSTORE PUSH1 0x4 ADD PUSH2 0x446 SWAP1 PUSH2 0x1454 JUMP JUMPDEST PUSH1 0x40 MLOAD DUP1 SWAP2 SUB SWAP1 REVERT JUMPDEST PUSH0 PUSH20 0xFFFFFFFFFFFFFFFFFFFFFFFFFFFFFFFFFFFFFFFF AND PUSH1 0x6 PUSH0 ADD PUSH0 SWAP1 SLOAD SWAP1 PUSH2 0x100 EXP SWAP1 DIV PUSH20 0xFFFFFFFFFFFFFFFFFFFFFFFFFFFFFFFFFFFFFFFF AND PUSH20 0xFFFFFFFFFFFFFFFFFFFFFFFFFFFFFFFFFFFFFFFF AND EQ PUSH2 0x521 JUMPI PUSH1 0x6 PUSH1 0x1 ADD SLOAD PUSH1 0x8 PUSH0 PUSH1 0x6 PUSH0 ADD PUSH0 SWAP1 SLOAD SWAP1 PUSH2 0x100 EXP SWAP1 DIV PUSH20 0xFFFFFFFFFFFFFFFFFFFFFFFFFFFFFFFFFFFFFFFF AND PUSH20 0xFFFFFFFFFFFFFFFFFFFFFFFFFFFFFFFFFFFFFFFF AND PUSH20 0xFFFFFFFFFFFFFFFFFFFFFFFFFFFFFFFFFFFFFFFF AND DUP2 MSTORE PUSH1 0x20 ADD SWAP1 DUP2 MSTORE PUSH1 0x20 ADD PUSH0 KECCAK256 PUSH0 DUP3 DUP3 SLOAD PUSH2 0x519 SWAP2 SWAP1 PUSH2 0x1472 JUMP JUMPDEST SWAP3 POP POP DUP2 SWAP1 SSTORE POP JUMPDEST PUSH1 0x40 MLOAD DUP1 PUSH1 0x40 ADD PUSH1 0x40 MSTORE DUP1 CALLER PUSH20 0xFFFFFFFFFFFFFFFFFFFFFFFFFFFFFFFFFFFFFFFF AND DUP2 MSTORE PUSH1 0x20 ADD CALLVALUE DUP2 MSTORE POP PUSH1 0x6 PUSH0 DUP3 ADD MLOAD DUP2 PUSH0 ADD PUSH0 PUSH2 0x100 EXP DUP2 SLOAD DUP2 PUSH20 0xFFFFFFFFFFFFFFFFFFFFFFFFFFFFFFFFFFFFFFFF MUL NOT AND SWAP1 DUP4 PUSH20 0xFFFFFFFFFFFFFFFFFFFFFFFFFFFFFFFFFFFFFFFF AND MUL OR SWAP1 SSTORE POP PUSH1 0x20 DUP3 ADD MLOAD DUP2 PUSH1 0x1 ADD SSTORE SWAP1 POP POP PUSH1 0x9 PUSH1 0x6 SWAP1 DUP1 PUSH1 0x1 DUP2 SLOAD ADD DUP1 DUP3 SSTORE DUP1 SWAP2 POP POP PUSH1 0x1 SWAP1 SUB SWAP1 PUSH0 MSTORE PUSH1 0x20 PUSH0 KECCAK256 SWAP1 PUSH1 0x2 MUL ADD PUSH0 SWAP1 SWAP2 SWAP1 SWAP2 SWAP1 SWAP2 POP PUSH0 DUP3 ADD PUSH0 SWAP1 SLOAD SWAP1 PUSH2 0x100 EXP SWAP1 DIV PUSH20 0xFFFFFFFFFFFFFFFFFFFFFFFFFFFFFFFFFFFFFFFF AND DUP2 PUSH0 ADD PUSH0 PUSH2 0x100 EXP DUP2 SLOAD DUP2 PUSH20 0xFFFFFFFFFFFFFFFFFFFFFFFFFFFFFFFFFFFFFFFF MUL NOT AND SWAP1 DUP4 PUSH20 0xFFFFFFFFFFFFFFFFFFFFFFFFFFFFFFFFFFFFFFFF AND MUL OR SWAP1 SSTORE POP PUSH1 0x1 DUP3 ADD SLOAD DUP2 PUSH1 0x1 ADD SSTORE POP POP PUSH1 0x4 SLOAD TIMESTAMP PUSH1 0x1 SLOAD PUSH2 0x649 SWAP2 SWAP1 PUSH2 0x14A5 JUMP JUMPDEST LT ISZERO PUSH2 0x66A JUMPI PUSH1 0x4 SLOAD PUSH1 0x1 PUSH0 DUP3 DUP3 SLOAD PUSH2 0x662 SWAP2 SWAP1 PUSH2 0x1472 JUMP JUMPDEST SWAP3 POP POP DUP2 SWAP1 SSTORE POP JUMPDEST CALLER PUSH20 0xFFFFFFFFFFFFFFFFFFFFFFFFFFFFFFFFFFFFFFFF AND PUSH32 0xDD0B6C6A77960E2066C96171B4D7AC9E8B4C184011F38544AFA36A5BB63EC59F CALLVALUE PUSH1 0x40 MLOAD PUSH2 0x6B0 SWAP2 SWAP1 PUSH2 0x1023 JUMP JUMPDEST PUSH1 0x40 MLOAD DUP1 SWAP2 SUB SWAP1 LOG2 PUSH1 0x1 SLOAD TIMESTAMP LT PUSH2 0x6CA JUMPI PUSH2 0x6C9 PUSH2 0xEA1 JUMP JUMPDEST JUMPDEST JUMP JUMPDEST PUSH1 0x8 PUSH1 0x20 MSTORE DUP1 PUSH0 MSTORE PUSH1 0x40 PUSH0 KECCAK256 PUSH0 SWAP2 POP SWAP1 POP SLOAD DUP2 JUMP JUMPDEST PUSH0 PUSH0 SWAP1 SLOAD SWAP1 PUSH2 0x100 EXP SWAP1 DIV PUSH20 0xFFFFFFFFFFFFFFFFFFFFFFFFFFFFFFFFFFFFFFFF AND PUSH20 0xFFFFFFFFFFFFFFFFFFFFFFFFFFFFFFFFFFFFFFFF AND CALLER PUSH20 0xFFFFFFFFFFFFFFFFFFFFFFFFFFFFFFFFFFFFFFFF AND EQ PUSH2 0x76F JUMPI PUSH1 0x40 MLOAD PUSH32 0x8C379A000000000000000000000000000000000000000000000000000000000 DUP2 MSTORE PUSH1 0x4 ADD PUSH2 0x766 SWAP1 PUSH2 0x1548 JUMP JUMPDEST PUSH1 0x40 MLOAD DUP1 SWAP2 SUB SWAP1 REVERT JUMPDEST PUSH1 0x1 SLOAD TIMESTAMP LT ISZERO DUP1 PUSH2 0x78B JUMPI POP PUSH1 0x5 PUSH0 SWAP1 SLOAD SWAP1 PUSH2 0x100 EXP SWAP1 DIV PUSH1 0xFF AND JUMPDEST PUSH2 0x7CA JUMPI PUSH1 0x40 MLOAD PUSH32 0x8C379A000000000000000000000000000000000000000000000000000000000 DUP2 MSTORE PUSH1 0x4 ADD PUSH2 0x7C1 SWAP1 PUSH2 0x15B0 JUMP JUMPDEST PUSH1 0x40 MLOAD DUP1 SWAP2 SUB SWAP1 REVERT JUMPDEST PUSH0 PUSH1 0x6 PUSH1 0x1 ADD SLOAD GT PUSH2 0x811 JUMPI PUSH1 0x40 MLOAD PUSH32 0x8C379A000000000000000000000000000000000000000000000000000000000 DUP2 MSTORE PUSH1 0x4 ADD PUSH2 0x808 SWAP1 PUSH2 0x1618 JUMP JUMPDEST PUSH1 0x40 MLOAD DUP1 SWAP2 SUB SWAP1 REVERT JUMPDEST PUSH0 PUSH1 0x6 PUSH1 0x1 ADD SLOAD SWAP1 POP PUSH0 PUSH1 0x6 PUSH1 0x1 ADD DUP2 SWAP1 SSTORE POP PUSH0 PUSH0 PUSH0 SWAP1 SLOAD SWAP1 PUSH2 0x100 EXP SWAP1 DIV PUSH20 0xFFFFFFFFFFFFFFFFFFFFFFFFFFFFFFFFFFFFFFFF AND PUSH20 0xFFFFFFFFFFFFFFFFFFFFFFFFFFFFFFFFFFFFFFFF AND DUP3 PUSH1 0x40 MLOAD PUSH2 0x869 SWAP1 PUSH2 0x1663 JUMP JUMPDEST PUSH0 PUSH1 0x40 MLOAD DUP1 DUP4 SUB DUP2 DUP6 DUP8 GAS CALL SWAP3 POP POP POP RETURNDATASIZE DUP1 PUSH0 DUP2 EQ PUSH2 0x8A3 JUMPI PUSH1 0x40 MLOAD SWAP2 POP PUSH1 0x1F NOT PUSH1 0x3F RETURNDATASIZE ADD AND DUP3 ADD PUSH1 0x40 MSTORE RETURNDATASIZE DUP3 MSTORE RETURNDATASIZE PUSH0 PUSH1 0x20 DUP5 ADD RETURNDATACOPY PUSH2 0x8A8 JUMP JUMPDEST PUSH1 0x60 SWAP2 POP JUMPDEST POP POP SWAP1 POP DUP1 PUSH2 0x8EC JUMPI PUSH1 0x40 MLOAD PUSH32 0x8C379A000000000000000000000000000000000000000000000000000000000 DUP2 MSTORE PUSH1 0x4 ADD PUSH2 0x8E3 SWAP1 PUSH2 0x16C1 JUMP JUMPDEST PUSH1 0x40 MLOAD DUP1 SWAP2 SUB SWAP1 REVERT JUMPDEST PUSH0 PUSH0 SWAP1 SLOAD SWAP1 PUSH2 0x100 EXP SWAP1 DIV PUSH20 0xFFFFFFFFFFFFFFFFFFFFFFFFFFFFFFFFFFFFFFFF AND PUSH20 0xFFFFFFFFFFFFFFFFFFFFFFFFFFFFFFFFFFFFFFFF AND PUSH32 0xA919FADCFA556A012BAB31B15F596EA7CCD397ADBF10E15F176DB9055AB361C4 DUP4 PUSH1 0x40 MLOAD PUSH2 0x952 SWAP2 SWAP1 PUSH2 0x1023 JUMP JUMPDEST PUSH1 0x40 MLOAD DUP1 SWAP2 SUB SWAP1 LOG2 POP POP JUMP JUMPDEST PUSH1 0x1 SLOAD DUP2 JUMP JUMPDEST PUSH0 PUSH1 0x8 PUSH0 CALLER PUSH20 0xFFFFFFFFFFFFFFFFFFFFFFFFFFFFFFFFFFFFFFFF AND PUSH20 0xFFFFFFFFFFFFFFFFFFFFFFFFFFFFFFFFFFFFFFFF AND DUP2 MSTORE PUSH1 0x20 ADD SWAP1 DUP2 MSTORE PUSH1 0x20 ADD PUSH0 KECCAK256 SLOAD SWAP1 POP PUSH0 DUP2 GT PUSH2 0x9E7 JUMPI PUSH1 0x40 MLOAD PUSH32 0x8C379A000000000000000000000000000000000000000000000000000000000 DUP2 MSTORE PUSH1 0x4 ADD PUSH2 0x9DE SWAP1 PUSH2 0x1729 JUMP JUMPDEST PUSH1 0x40 MLOAD DUP1 SWAP2 SUB SWAP1 REVERT JUMPDEST PUSH0 PUSH1 0x8 PUSH0 CALLER PUSH20 0xFFFFFFFFFFFFFFFFFFFFFFFFFFFFFFFFFFFFFFFF AND PUSH20 0xFFFFFFFFFFFFFFFFFFFFFFFFFFFFFFFFFFFFFFFF AND DUP2 MSTORE PUSH1 0x20 ADD SWAP1 DUP2 MSTORE PUSH1 0x20 ADD PUSH0 KECCAK256 DUP2 SWAP1 SSTORE POP PUSH0 PUSH1 0x64 PUSH1 0x3 SLOAD DUP4 PUSH2 0xA3A SWAP2 SWAP1 PUSH2 0x1346 JUMP JUMPDEST PUSH2 0xA44 SWAP2 SWAP1 PUSH2 0x13B4 JUMP JUMPDEST SWAP1 POP PUSH0 PUSH1 0x5 PUSH0 SWAP1 SLOAD SWAP1 PUSH2 0x100 EXP SWAP1 DIV PUSH1 0xFF AND PUSH2 0xA60 JUMPI DUP3 PUSH2 0xA6D JUMP JUMPDEST DUP2 DUP4 PUSH2 0xA6C SWAP2 SWAP1 PUSH2 0x14A5 JUMP JUMPDEST JUMPDEST SWAP1 POP PUSH0 CALLER PUSH20 0xFFFFFFFFFFFFFFFFFFFFFFFFFFFFFFFFFFFFFFFF AND DUP3 PUSH1 0x40 MLOAD PUSH2 0xA94 SWAP1 PUSH2 0x1663 JUMP JUMPDEST PUSH0 PUSH1 0x40 MLOAD DUP1 DUP4 SUB DUP2 DUP6 DUP8 GAS CALL SWAP3 POP POP POP RETURNDATASIZE DUP1 PUSH0 DUP2 EQ PUSH2 0xACE JUMPI PUSH1 0x40 MLOAD SWAP2 POP PUSH1 0x1F NOT PUSH1 0x3F RETURNDATASIZE ADD AND DUP3 ADD PUSH1 0x40 MSTORE RETURNDATASIZE DUP3 MSTORE RETURNDATASIZE PUSH0 PUSH1 0x20 DUP5 ADD RETURNDATACOPY PUSH2 0xAD3 JUMP JUMPDEST PUSH1 0x60 SWAP2 POP JUMPDEST POP POP SWAP1 POP DUP1 PUSH2 0xB17 JUMPI PUSH1 0x40 MLOAD PUSH32 0x8C379A000000000000000000000000000000000000000000000000000000000 DUP2 MSTORE PUSH1 0x4 ADD PUSH2 0xB0E SWAP1 PUSH2 0x16C1 JUMP JUMPDEST PUSH1 0x40 MLOAD DUP1 SWAP2 SUB SWAP1 REVERT JUMPDEST PUSH1 0x5 PUSH0 SWAP1 SLOAD SWAP1 PUSH2 0x100 EXP SWAP1 DIV PUSH1 0xFF AND ISZERO PUSH2 0xB7E JUMPI CALLER PUSH20 0xFFFFFFFFFFFFFFFFFFFFFFFFFFFFFFFFFFFFFFFF AND PUSH32 0xD7DEE2702D63AD89917B6A4DA9981C90C4D24F8C2BDFD64C604ECAE57D8D0651 DUP4 PUSH1 0x40 MLOAD PUSH2 0xB71 SWAP2 SWAP1 PUSH2 0x1023 JUMP JUMPDEST PUSH1 0x40 MLOAD DUP1 SWAP2 SUB SWAP1 LOG2 PUSH2 0xBCD JUMP JUMPDEST CALLER PUSH20 0xFFFFFFFFFFFFFFFFFFFFFFFFFFFFFFFFFFFFFFFF AND PUSH32 0xDCE68997783AE47468B6FB0DD39CCA315F9082D51D9AB3DF8747C70512AA8FF2 DUP4 PUSH1 0x40 MLOAD PUSH2 0xBC4 SWAP2 SWAP1 PUSH2 0x1023 JUMP JUMPDEST PUSH1 0x40 MLOAD DUP1 SWAP2 SUB SWAP1 LOG2 JUMPDEST POP POP POP POP JUMP JUMPDEST PUSH1 0x5 PUSH0 SWAP1 SLOAD SWAP1 PUSH2 0x100 EXP SWAP1 DIV PUSH1 0xFF AND DUP2 JUMP JUMPDEST PUSH1 0x3 SLOAD DUP2 JUMP JUMPDEST PUSH1 0x2 SLOAD DUP2 JUMP JUMPDEST PUSH1 0x60 PUSH1 0x9 DUP1 SLOAD DUP1 PUSH1 0x20 MUL PUSH1 0x20 ADD PUSH1 0x40 MLOAD SWAP1 DUP2 ADD PUSH1 0x40 MSTORE DUP1 SWAP3 SWAP2 SWAP1 DUP2 DUP2 MSTORE PUSH1 0x20 ADD PUSH0 SWAP1 JUMPDEST DUP3 DUP3 LT ISZERO PUSH2 0xCA2 JUMPI DUP4 DUP3 SWAP1 PUSH0 MSTORE PUSH1 0x20 PUSH0 KECCAK256 SWAP1 PUSH1 0x2 MUL ADD PUSH1 0x40 MLOAD DUP1 PUSH1 0x40 ADD PUSH1 0x40 MSTORE SWAP1 DUP2 PUSH0 DUP3 ADD PUSH0 SWAP1 SLOAD SWAP1 PUSH2 0x100 EXP SWAP1 DIV PUSH20 0xFFFFFFFFFFFFFFFFFFFFFFFFFFFFFFFFFFFFFFFF AND PUSH20 0xFFFFFFFFFFFFFFFFFFFFFFFFFFFFFFFFFFFFFFFF AND PUSH20 0xFFFFFFFFFFFFFFFFFFFFFFFFFFFFFFFFFFFFFFFF AND DUP2 MSTORE PUSH1 0x20 ADD PUSH1 0x1 DUP3 ADD SLOAD DUP2 MSTORE POP POP DUP2 MSTORE PUSH1 0x20 ADD SWAP1 PUSH1 0x1 ADD SWAP1 PUSH2 0xC14 JUMP JUMPDEST POP POP POP POP SWAP1 POP SWAP1 JUMP JUMPDEST PUSH0 PUSH0 SWAP1 SLOAD SWAP1 PUSH2 0x100 EXP SWAP1 DIV PUSH20 0xFFFFFFFFFFFFFFFFFFFFFFFFFFFFFFFFFFFFFFFF AND DUP2 JUMP JUMPDEST PUSH0 PUSH0 PUSH1 0x1 SLOAD TIMESTAMP LT ISZERO DUP1 PUSH2 0xCED JUMPI POP PUSH1 0x5 PUSH0 SWAP1 SLOAD SWAP1 PUSH2 0x100 EXP SWAP1 DIV PUSH1 0xFF AND JUMPDEST PUSH2 0xD2C JUMPI PUSH1 0x40 MLOAD PUSH32 0x8C379A000000000000000000000000000000000000000000000000000000000 DUP2 MSTORE PUSH1 0x4 ADD PUSH2 0xD23 SWAP1 PUSH2 0x15B0 JUMP JUMPDEST PUSH1 0x40 MLOAD DUP1 SWAP2 SUB SWAP1 REVERT JUMPDEST PUSH1 0x6 PUSH0 ADD PUSH0 SWAP1 SLOAD SWAP1 PUSH2 0x100 EXP SWAP1 DIV PUSH20 0xFFFFFFFFFFFFFFFFFFFFFFFFFFFFFFFFFFFFFFFF AND PUSH1 0x6 PUSH1 0x1 ADD SLOAD SWAP2 POP SWAP2 POP SWAP1 SWAP2 JUMP JUMPDEST PUSH1 0x6 DUP1 PUSH0 ADD PUSH0 SWAP1 SLOAD SWAP1 PUSH2 0x100 EXP SWAP1 DIV PUSH20 0xFFFFFFFFFFFFFFFFFFFFFFFFFFFFFFFFFFFFFFFF AND SWAP1 DUP1 PUSH1 0x1 ADD SLOAD SWAP1 POP DUP3 JUMP JUMPDEST PUSH1 0x4 SLOAD DUP2 JUMP JUMPDEST PUSH0 PUSH1 0x1 SLOAD TIMESTAMP LT PUSH2 0xDA6 JUMPI PUSH0 SWAP1 POP PUSH2 0xDB7 JUMP JUMPDEST TIMESTAMP PUSH1 0x1 SLOAD PUSH2 0xDB4 SWAP2 SWAP1 PUSH2 0x14A5 JUMP JUMPDEST SWAP1 POP JUMPDEST SWAP1 JUMP JUMPDEST PUSH0 PUSH0 SWAP1 SLOAD SWAP1 PUSH2 0x100 EXP SWAP1 DIV PUSH20 0xFFFFFFFFFFFFFFFFFFFFFFFFFFFFFFFFFFFFFFFF AND PUSH20 0xFFFFFFFFFFFFFFFFFFFFFFFFFFFFFFFFFFFFFFFF AND CALLER PUSH20 0xFFFFFFFFFFFFFFFFFFFFFFFFFFFFFFFFFFFFFFFF AND EQ PUSH2 0xE48 JUMPI PUSH1 0x40 MLOAD PUSH32 0x8C379A000000000000000000000000000000000000000000000000000000000 DUP2 MSTORE PUSH1 0x4 ADD PUSH2 0xE3F SWAP1 PUSH2 0x1548 JUMP JUMPDEST PUSH1 0x40 MLOAD DUP1 SWAP2 SUB SWAP1 REVERT JUMPDEST PUSH1 0x5 PUSH0 SWAP1 SLOAD SWAP1 PUSH2 0x100 EXP SWAP1 DIV PUSH1 0xFF AND ISZERO PUSH2 0xE97 JUMPI PUSH1 0x40 MLOAD PUSH32 0x8C379A000000000000000000000000000000000000000000000000000000000 DUP2 MSTORE PUSH1 0x4 ADD PUSH2 0xE8E SWAP1 PUSH2 0x1791 JUMP JUMPDEST PUSH1 0x40 MLOAD DUP1 SWAP2 SUB SWAP1 REVERT JUMPDEST PUSH2 0xE9F PUSH2 0xEA1 JUMP JUMPDEST JUMP JUMPDEST PUSH1 0x5 PUSH0 SWAP1 SLOAD SWAP1 PUSH2 0x100 EXP SWAP1 DIV PUSH1 0xFF AND ISZERO PUSH2 0xEF0 JUMPI PUSH1 0x40 MLOAD PUSH32 0x8C379A000000000000000000000000000000000000000000000000000000000 DUP2 MSTORE PUSH1 0x4 ADD PUSH2 0xEE7 SWAP1 PUSH2 0x17F9 JUMP JUMPDEST PUSH1 0x40 MLOAD DUP1 SWAP2 SUB SWAP1 REVERT JUMPDEST PUSH1 0x1 PUSH1 0x5 PUSH0 PUSH2 0x100 EXP DUP2 SLOAD DUP2 PUSH1 0xFF MUL NOT AND SWAP1 DUP4 ISZERO ISZERO MUL OR SWAP1 SSTORE POP PUSH1 0x6 PUSH0 ADD PUSH0 SWAP1 SLOAD SWAP1 PUSH2 0x100 EXP SWAP1 DIV PUSH20 0xFFFFFFFFFFFFFFFFFFFFFFFFFFFFFFFFFFFFFFFF AND PUSH20 0xFFFFFFFFFFFFFFFFFFFFFFFFFFFFFFFFFFFFFFFF AND PUSH32 0xDAEC4582D5D9595688C8C98545FDD1C696D41C6AEAEB636737E84ED2F5C00EDA PUSH1 0x6 PUSH1 0x1 ADD SLOAD PUSH1 0x40 MLOAD PUSH2 0xF78 SWAP2 SWAP1 PUSH2 0x1023 JUMP JUMPDEST PUSH1 0x40 MLOAD DUP1 SWAP2 SUB SWAP1 LOG2 JUMP JUMPDEST PUSH0 PUSH0 REVERT JUMPDEST PUSH0 PUSH20 0xFFFFFFFFFFFFFFFFFFFFFFFFFFFFFFFFFFFFFFFF DUP3 AND SWAP1 POP SWAP2 SWAP1 POP JUMP JUMPDEST PUSH0 PUSH2 0xFAF DUP3 PUSH2 0xF86 JUMP JUMPDEST SWAP1 POP SWAP2 SWAP1 POP JUMP JUMPDEST PUSH2 0xFBF DUP2 PUSH2 0xFA5 JUMP JUMPDEST DUP2 EQ PUSH2 0xFC9 JUMPI PUSH0 PUSH0 REVERT JUMPDEST POP JUMP JUMPDEST PUSH0 DUP2 CALLDATALOAD SWAP1 POP PUSH2 0xFDA DUP2 PUSH2 0xFB6 JUMP JUMPDEST SWAP3 SWAP2 POP POP JUMP JUMPDEST PUSH0 PUSH1 0x20 DUP3 DUP5 SUB SLT ISZERO PUSH2 0xFF5 JUMPI PUSH2 0xFF4 PUSH2 0xF82 JUMP JUMPDEST JUMPDEST PUSH0 PUSH2 0x1002 DUP5 DUP3 DUP6 ADD PUSH2 0xFCC JUMP JUMPDEST SWAP2 POP POP SWAP3 SWAP2 POP POP JUMP JUMPDEST PUSH0 DUP2 SWAP1 POP SWAP2 SWAP1 POP JUMP JUMPDEST PUSH2 0x101D DUP2 PUSH2 0x100B JUMP JUMPDEST DUP3 MSTORE POP POP JUMP JUMPDEST PUSH0 PUSH1 0x20 DUP3 ADD SWAP1 POP PUSH2 0x1036 PUSH0 DUP4 ADD DUP5 PUSH2 0x1014 JUMP JUMPDEST SWAP3 SWAP2 POP POP JUMP JUMPDEST PUSH0 DUP2 ISZERO ISZERO SWAP1 POP SWAP2 SWAP1 POP JUMP JUMPDEST PUSH2 0x1050 DUP2 PUSH2 0x103C JUMP JUMPDEST DUP3 MSTORE POP POP JUMP JUMPDEST PUSH0 PUSH1 0x20 DUP3 ADD SWAP1 POP PUSH2 0x1069 PUSH0 DUP4 ADD DUP5 PUSH2 0x1047 JUMP JUMPDEST SWAP3 SWAP2 POP POP JUMP JUMPDEST PUSH0 DUP2 MLOAD SWAP1 POP SWAP2 SWAP1 POP JUMP JUMPDEST PUSH0 DUP3 DUP3 MSTORE PUSH1 0x20 DUP3 ADD SWAP1 POP SWAP3 SWAP2 POP POP JUMP JUMPDEST PUSH0 DUP2 SWAP1 POP PUSH1 0x20 DUP3 ADD SWAP1 POP SWAP2 SWAP1 POP JUMP JUMPDEST PUSH2 0x10A1 DUP2 PUSH2 0xFA5 JUMP JUMPDEST DUP3 MSTORE POP POP JUMP JUMPDEST PUSH2 0x10B0 DUP2 PUSH2 0x100B JUMP JUMPDEST DUP3 MSTORE POP POP JUMP JUMPDEST PUSH1 0x40 DUP3 ADD PUSH0 DUP3 ADD MLOAD PUSH2 0x10CA PUSH0 DUP6 ADD DUP3 PUSH2 0x1098 JUMP JUMPDEST POP PUSH1 0x20 DUP3 ADD MLOAD PUSH2 0x10DD PUSH1 0x20 DUP6 ADD DUP3 PUSH2 0x10A7 JUMP JUMPDEST POP POP POP POP JUMP JUMPDEST PUSH0 PUSH2 0x10EE DUP4 DUP4 PUSH2 0x10B6 JUMP JUMPDEST PUSH1 0x40 DUP4 ADD SWAP1 POP SWAP3 SWAP2 POP POP JUMP JUMPDEST PUSH0 PUSH1 0x20 DUP3 ADD SWAP1 POP SWAP2 SWAP1 POP JUMP JUMPDEST PUSH0 PUSH2 0x1110 DUP3 PUSH2 0x106F JUMP JUMPDEST PUSH2 0x111A DUP2 DUP6 PUSH2 0x1079 JUMP JUMPDEST SWAP4 POP PUSH2 0x1125 DUP4 PUSH2 0x1089 JUMP JUMPDEST DUP1 PUSH0 JUMPDEST DUP4 DUP2 LT ISZERO PUSH2 0x1155 JUMPI DUP2 MLOAD PUSH2 0x113C DUP9 DUP3 PUSH2 0x10E3 JUMP JUMPDEST SWAP8 POP PUSH2 0x1147 DUP4 PUSH2 0x10FA JUMP JUMPDEST SWAP3 POP POP PUSH1 0x1 DUP2 ADD SWAP1 POP PUSH2 0x1128 JUMP JUMPDEST POP DUP6 SWAP4 POP POP POP POP SWAP3 SWAP2 POP POP JUMP JUMPDEST PUSH0 PUSH1 0x20 DUP3 ADD SWAP1 POP DUP2 DUP2 SUB PUSH0 DUP4 ADD MSTORE PUSH2 0x117A DUP2 DUP5 PUSH2 0x1106 JUMP JUMPDEST SWAP1 POP SWAP3 SWAP2 POP POP JUMP JUMPDEST PUSH2 0x118B DUP2 PUSH2 0xFA5 JUMP JUMPDEST DUP3 MSTORE POP POP JUMP JUMPDEST PUSH0 PUSH1 0x20 DUP3 ADD SWAP1 POP PUSH2 0x11A4 PUSH0 DUP4 ADD DUP5 PUSH2 0x1182 JUMP JUMPDEST SWAP3 SWAP2 POP POP JUMP JUMPDEST PUSH0 PUSH1 0x40 DUP3 ADD SWAP1 POP PUSH2 0x11BD PUSH0 DUP4 ADD DUP6 PUSH2 0x1182 JUMP JUMPDEST PUSH2 0x11CA PUSH1 0x20 DUP4 ADD DUP5 PUSH2 0x1014 JUMP JUMPDEST SWAP4 SWAP3 POP POP POP JUMP JUMPDEST PUSH0 DUP3 DUP3 MSTORE PUSH1 0x20 DUP3 ADD SWAP1 POP SWAP3 SWAP2 POP POP JUMP JUMPDEST PUSH32 0x41756374696F6E2068617320656E646564000000000000000000000000000000 PUSH0 DUP3 ADD MSTORE POP JUMP JUMPDEST PUSH0 PUSH2 0x1215 PUSH1 0x11 DUP4 PUSH2 0x11D1 JUMP JUMPDEST SWAP2 POP PUSH2 0x1220 DUP3 PUSH2 0x11E1 JUMP JUMPDEST PUSH1 0x20 DUP3 ADD SWAP1 POP SWAP2 SWAP1 POP JUMP JUMPDEST PUSH0 PUSH1 0x20 DUP3 ADD SWAP1 POP DUP2 DUP2 SUB PUSH0 DUP4 ADD MSTORE PUSH2 0x1242 DUP2 PUSH2 0x1209 JUMP JUMPDEST SWAP1 POP SWAP2 SWAP1 POP JUMP JUMPDEST PUSH32 0x41756374696F6E20686173206265656E207465726D696E617465640000000000 PUSH0 DUP3 ADD MSTORE POP JUMP JUMPDEST PUSH0 PUSH2 0x127D PUSH1 0x1B DUP4 PUSH2 0x11D1 JUMP JUMPDEST SWAP2 POP PUSH2 0x1288 DUP3 PUSH2 0x1249 JUMP JUMPDEST PUSH1 0x20 DUP3 ADD SWAP1 POP SWAP2 SWAP1 POP JUMP JUMPDEST PUSH0 PUSH1 0x20 DUP3 ADD SWAP1 POP DUP2 DUP2 SUB PUSH0 DUP4 ADD MSTORE PUSH2 0x12AA DUP2 PUSH2 0x1271 JUMP JUMPDEST SWAP1 POP SWAP2 SWAP1 POP JUMP JUMPDEST PUSH32 0x426964206D7573742062652067726561746572207468616E2030000000000000 PUSH0 DUP3 ADD MSTORE POP JUMP JUMPDEST PUSH0 PUSH2 0x12E5 PUSH1 0x1A DUP4 PUSH2 0x11D1 JUMP JUMPDEST SWAP2 POP PUSH2 0x12F0 DUP3 PUSH2 0x12B1 JUMP JUMPDEST PUSH1 0x20 DUP3 ADD SWAP1 POP SWAP2 SWAP1 POP JUMP JUMPDEST PUSH0 PUSH1 0x20 DUP3 ADD SWAP1 POP DUP2 DUP2 SUB PUSH0 DUP4 ADD MSTORE PUSH2 0x1312 DUP2 PUSH2 0x12D9 JUMP JUMPDEST SWAP1 POP SWAP2 SWAP1 POP JUMP JUMPDEST PUSH32 0x4E487B7100000000000000000000000000000000000000000000000000000000 PUSH0 MSTORE PUSH1 0x11 PUSH1 0x4 MSTORE PUSH1 0x24 PUSH0 REVERT JUMPDEST PUSH0 PUSH2 0x1350 DUP3 PUSH2 0x100B JUMP JUMPDEST SWAP2 POP PUSH2 0x135B DUP4 PUSH2 0x100B JUMP JUMPDEST SWAP3 POP DUP3 DUP3 MUL PUSH2 0x1369 DUP2 PUSH2 0x100B JUMP JUMPDEST SWAP2 POP DUP3 DUP3 DIV DUP5 EQ DUP4 ISZERO OR PUSH2 0x1380 JUMPI PUSH2 0x137F PUSH2 0x1319 JUMP JUMPDEST JUMPDEST POP SWAP3 SWAP2 POP POP JUMP JUMPDEST PUSH32 0x4E487B7100000000000000000000000000000000000000000000000000000000 PUSH0 MSTORE PUSH1 0x12 PUSH1 0x4 MSTORE PUSH1 0x24 PUSH0 REVERT JUMPDEST PUSH0 PUSH2 0x13BE DUP3 PUSH2 0x100B JUMP JUMPDEST SWAP2 POP PUSH2 0x13C9 DUP4 PUSH2 0x100B JUMP JUMPDEST SWAP3 POP DUP3 PUSH2 0x13D9 JUMPI PUSH2 0x13D8 PUSH2 0x1387 JUMP JUMPDEST JUMPDEST DUP3 DUP3 DIV SWAP1 POP SWAP3 SWAP2 POP POP JUMP JUMPDEST PUSH32 0x426964206D757374206265206174206C65617374203525206869676865722074 PUSH0 DUP3 ADD MSTORE PUSH32 0x68616E2063757272656E74206269640000000000000000000000000000000000 PUSH1 0x20 DUP3 ADD MSTORE POP JUMP JUMPDEST PUSH0 PUSH2 0x143E PUSH1 0x2F DUP4 PUSH2 0x11D1 JUMP JUMPDEST SWAP2 POP PUSH2 0x1449 DUP3 PUSH2 0x13E4 JUMP JUMPDEST PUSH1 0x40 DUP3 ADD SWAP1 POP SWAP2 SWAP1 POP JUMP JUMPDEST PUSH0 PUSH1 0x20 DUP3 ADD SWAP1 POP DUP2 DUP2 SUB PUSH0 DUP4 ADD MSTORE PUSH2 0x146B DUP2 PUSH2 0x1432 JUMP JUMPDEST SWAP1 POP SWAP2 SWAP1 POP JUMP JUMPDEST PUSH0 PUSH2 0x147C DUP3 PUSH2 0x100B JUMP JUMPDEST SWAP2 POP PUSH2 0x1487 DUP4 PUSH2 0x100B JUMP JUMPDEST SWAP3 POP DUP3 DUP3 ADD SWAP1 POP DUP1 DUP3 GT ISZERO PUSH2 0x149F JUMPI PUSH2 0x149E PUSH2 0x1319 JUMP JUMPDEST JUMPDEST SWAP3 SWAP2 POP POP JUMP JUMPDEST PUSH0 PUSH2 0x14AF DUP3 PUSH2 0x100B JUMP JUMPDEST SWAP2 POP PUSH2 0x14BA DUP4 PUSH2 0x100B JUMP JUMPDEST SWAP3 POP DUP3 DUP3 SUB SWAP1 POP DUP2 DUP2 GT ISZERO PUSH2 0x14D2 JUMPI PUSH2 0x14D1 PUSH2 0x1319 JUMP JUMPDEST JUMPDEST SWAP3 SWAP2 POP POP JUMP JUMPDEST PUSH32 0x4F6E6C7920746865206F776E65722063616E2065786563757465207468697320 PUSH0 DUP3 ADD MSTORE PUSH32 0x66756E6374696F6E2E0000000000000000000000000000000000000000000000 PUSH1 0x20 DUP3 ADD MSTORE POP JUMP JUMPDEST PUSH0 PUSH2 0x1532 PUSH1 0x29 DUP4 PUSH2 0x11D1 JUMP JUMPDEST SWAP2 POP PUSH2 0x153D DUP3 PUSH2 0x14D8 JUMP JUMPDEST PUSH1 0x40 DUP3 ADD SWAP1 POP SWAP2 SWAP1 POP JUMP JUMPDEST PUSH0 PUSH1 0x20 DUP3 ADD SWAP1 POP DUP2 DUP2 SUB PUSH0 DUP4 ADD MSTORE PUSH2 0x155F DUP2 PUSH2 0x1526 JUMP JUMPDEST SWAP1 POP SWAP2 SWAP1 POP JUMP JUMPDEST PUSH32 0x41756374696F6E206973207374696C6C20616374697665000000000000000000 PUSH0 DUP3 ADD MSTORE POP JUMP JUMPDEST PUSH0 PUSH2 0x159A PUSH1 0x17 DUP4 PUSH2 0x11D1 JUMP JUMPDEST SWAP2 POP PUSH2 0x15A5 DUP3 PUSH2 0x1566 JUMP JUMPDEST PUSH1 0x20 DUP3 ADD SWAP1 POP SWAP2 SWAP1 POP JUMP JUMPDEST PUSH0 PUSH1 0x20 DUP3 ADD SWAP1 POP DUP2 DUP2 SUB PUSH0 DUP4 ADD MSTORE PUSH2 0x15C7 DUP2 PUSH2 0x158E JUMP JUMPDEST SWAP1 POP SWAP2 SWAP1 POP JUMP JUMPDEST PUSH32 0x416C72656164792077697468647261776E000000000000000000000000000000 PUSH0 DUP3 ADD MSTORE POP JUMP JUMPDEST PUSH0 PUSH2 0x1602 PUSH1 0x11 DUP4 PUSH2 0x11D1 JUMP JUMPDEST SWAP2 POP PUSH2 0x160D DUP3 PUSH2 0x15CE JUMP JUMPDEST PUSH1 0x20 DUP3 ADD SWAP1 POP SWAP2 SWAP1 POP JUMP JUMPDEST PUSH0 PUSH1 0x20 DUP3 ADD SWAP1 POP DUP2 DUP2 SUB PUSH0 DUP4 ADD MSTORE PUSH2 0x162F DUP2 PUSH2 0x15F6 JUMP JUMPDEST SWAP1 POP SWAP2 SWAP1 POP JUMP JUMPDEST PUSH0 DUP2 SWAP1 POP SWAP3 SWAP2 POP POP JUMP JUMPDEST POP JUMP JUMPDEST PUSH0 PUSH2 0x164E PUSH0 DUP4 PUSH2 0x1636 JUMP JUMPDEST SWAP2 POP PUSH2 0x1659 DUP3 PUSH2 0x1640 JUMP JUMPDEST PUSH0 DUP3 ADD SWAP1 POP SWAP2 SWAP1 POP JUMP JUMPDEST PUSH0 PUSH2 0x166D DUP3 PUSH2 0x1643 JUMP JUMPDEST SWAP2 POP DUP2 SWAP1 POP SWAP2 SWAP1 POP JUMP JUMPDEST PUSH32 0x5472616E73666572206661696C65640000000000000000000000000000000000 PUSH0 DUP3 ADD MSTORE POP JUMP JUMPDEST PUSH0 PUSH2 0x16AB PUSH1 0xF DUP4 PUSH2 0x11D1 JUMP JUMPDEST SWAP2 POP PUSH2 0x16B6 DUP3 PUSH2 0x1677 JUMP JUMPDEST PUSH1 0x20 DUP3 ADD SWAP1 POP SWAP2 SWAP1 POP JUMP JUMPDEST PUSH0 PUSH1 0x20 DUP3 ADD SWAP1 POP DUP2 DUP2 SUB PUSH0 DUP4 ADD MSTORE PUSH2 0x16D8 DUP2 PUSH2 0x169F JUMP JUMPDEST SWAP1 POP SWAP2 SWAP1 POP JUMP JUMPDEST PUSH32 0x4E6F20726566756E6420617661696C61626C6500000000000000000000000000 PUSH0 DUP3 ADD MSTORE POP JUMP JUMPDEST PUSH0 PUSH2 0x1713 PUSH1 0x13 DUP4 PUSH2 0x11D1 JUMP JUMPDEST SWAP2 POP PUSH2 0x171E DUP3 PUSH2 0x16DF JUMP JUMPDEST PUSH1 0x20 DUP3 ADD SWAP1 POP SWAP2 SWAP1 POP JUMP JUMPDEST PUSH0 PUSH1 0x20 DUP3 ADD SWAP1 POP DUP2 DUP2 SUB PUSH0 DUP4 ADD MSTORE PUSH2 0x1740 DUP2 PUSH2 0x1707 JUMP JUMPDEST SWAP1 POP SWAP2 SWAP1 POP JUMP JUMPDEST PUSH32 0x41756374696F6E20616C726561647920656E6465640000000000000000000000 PUSH0 DUP3 ADD MSTORE POP JUMP JUMPDEST PUSH0 PUSH2 0x177B PUSH1 0x15 DUP4 PUSH2 0x11D1 JUMP JUMPDEST SWAP2 POP PUSH2 0x1786 DUP3 PUSH2 0x1747 JUMP JUMPDEST PUSH1 0x20 DUP3 ADD SWAP1 POP SWAP2 SWAP1 POP JUMP JUMPDEST PUSH0 PUSH1 0x20 DUP3 ADD SWAP1 POP DUP2 DUP2 SUB PUSH0 DUP4 ADD MSTORE PUSH2 0x17A8 DUP2 PUSH2 0x176F JUMP JUMPDEST SWAP1 POP SWAP2 SWAP1 POP JUMP JUMPDEST PUSH32 0x416C72656164792066696E616C697A6564000000000000000000000000000000 PUSH0 DUP3 ADD MSTORE POP JUMP JUMPDEST PUSH0 PUSH2 0x17E3 PUSH1 0x11 DUP4 PUSH2 0x11D1 JUMP JUMPDEST SWAP2 POP PUSH2 0x17EE DUP3 PUSH2 0x17AF JUMP JUMPDEST PUSH1 0x20 DUP3 ADD SWAP1 POP SWAP2 SWAP1 POP JUMP JUMPDEST PUSH0 PUSH1 0x20 DUP3 ADD SWAP1 POP DUP2 DUP2 SUB PUSH0 DUP4 ADD MSTORE PUSH2 0x1810 DUP2 PUSH2 0x17D7 JUMP JUMPDEST SWAP1 POP SWAP2 SWAP1 POP JUMP INVALID LOG2 PUSH5 0x6970667358 0x22 SLT KECCAK256 DUP3 0x23 COINBASE ISZERO SDIV RETF PREVRANDAO EXTDELEGATECALL 0xD2 PUSH7 0xF9EDA0150CC688 SWAP14 SWAP15 LOG3 RETURNCONTRACT 0x54 0xA6 0xFC EXTCODEHASH 0xA8 0xD5 0xFC 0x4F PUSH7 0x3DC264736F6C63 NUMBER STOP ADDMOD 0x1E STOP CALLER "
				},
				"gasEstimates": {
					"creation": {
						"codeDepositCost": "1244200",
						"executionCost": "infinite",
						"totalCost": "infinite"
					},
					"external": {
						"bid()": "infinite",
						"commissionRate()": "2514",
						"endAuction()": "36817",
						"endTime()": "2448",
						"extensionTime()": "2469",
						"getAllBids()": "infinite",
						"getRemainingTime()": "infinite",
						"getWinner()": "9109",
						"highestBidder()": "4754",
						"isAuctionEnded()": "2533",
						"minBidIncrease()": "2448",
						"owner()": "2574",
						"pendingReturns(address)": "2848",
						"withdraw()": "infinite",
						"withdrawWinningBid()": "infinite"
					},
					"internal": {
						"_finalizeAuction()": "infinite"
					}
				},
				"methodIdentifiers": {
					"bid()": "1998aeef",
					"commissionRate()": "5ea1d6f8",
					"endAuction()": "fe67a54b",
					"endTime()": "3197cbb6",
					"extensionTime()": "eeed1b26",
					"getAllBids()": "8d0f6da3",
					"getRemainingTime()": "efb98bcf",
					"getWinner()": "8e7ea5b2",
					"highestBidder()": "91f90157",
					"isAuctionEnded()": "43891f3a",
					"minBidIncrease()": "7c513c0f",
					"owner()": "8da5cb5b",
					"pendingReturns(address)": "26b387bb",
					"withdraw()": "3ccfd60b",
					"withdrawWinningBid()": "2f49e964"
				}
			},
			"storageLayout": {
				"storage": [
					{
						"astId": 11,
						"contract": "Auction.sol:Auction",
						"label": "owner",
						"offset": 0,
						"slot": "0",
						"type": "t_address"
					},
					{
						"astId": 14,
						"contract": "Auction.sol:Auction",
						"label": "endTime",
						"offset": 0,
						"slot": "1",
						"type": "t_uint256"
					},
					{
						"astId": 17,
						"contract": "Auction.sol:Auction",
						"label": "minBidIncrease",
						"offset": 0,
						"slot": "2",
						"type": "t_uint256"
					},
					{
						"astId": 20,
						"contract": "Auction.sol:Auction",
						"label": "commissionRate",
						"offset": 0,
						"slot": "3",
						"type": "t_uint256"
					},
					{
						"astId": 23,
						"contract": "Auction.sol:Auction",
						"label": "extensionTime",
						"offset": 0,
						"slot": "4",
						"type": "t_uint256"
					},
					{
						"astId": 26,
						"contract": "Auction.sol:Auction",
						"label": "isAuctionEnded",
						"offset": 0,
						"slot": "5",
						"type": "t_bool"
					},
					{
						"astId": 30,
						"contract": "Auction.sol:Auction",
						"label": "highestBidder",
						"offset": 0,
						"slot": "6",
						"type": "t_struct(Bidder)8_storage"
					},
					{
						"astId": 35,
						"contract": "Auction.sol:Auction",
						"label": "pendingReturns",
						"offset": 0,
						"slot": "8",
						"type": "t_mapping(t_address,t_uint256)"
					},
					{
						"astId": 40,
						"contract": "Auction.sol:Auction",
						"label": "allBids",
						"offset": 0,
						"slot": "9",
						"type": "t_array(t_struct(Bidder)8_storage)dyn_storage"
					}
				],
				"types": {
					"t_address": {
						"encoding": "inplace",
						"label": "address",
						"numberOfBytes": "20"
					},
					"t_array(t_struct(Bidder)8_storage)dyn_storage": {
						"base": "t_struct(Bidder)8_storage",
						"encoding": "dynamic_array",
						"label": "struct Auction.Bidder[]",
						"numberOfBytes": "32"
					},
					"t_bool": {
						"encoding": "inplace",
						"label": "bool",
						"numberOfBytes": "1"
					},
					"t_mapping(t_address,t_uint256)": {
						"encoding": "mapping",
						"key": "t_address",
						"label": "mapping(address => uint256)",
						"numberOfBytes": "32",
						"value": "t_uint256"
					},
					"t_struct(Bidder)8_storage": {
						"encoding": "inplace",
						"label": "struct Auction.Bidder",
						"members": [
							{
								"astId": 5,
								"contract": "Auction.sol:Auction",
								"label": "bidderAddress",
								"offset": 0,
								"slot": "0",
								"type": "t_address"
							},
							{
								"astId": 7,
								"contract": "Auction.sol:Auction",
								"label": "amount",
								"offset": 0,
								"slot": "1",
								"type": "t_uint256"
							}
						],
						"numberOfBytes": "64"
					},
					"t_uint256": {
						"encoding": "inplace",
						"label": "uint256",
						"numberOfBytes": "32"
					}
				}
			},
			"userdoc": {
				"events": {
					"AuctionEnded(address,uint256)": {
						"notice": "Emitted when auction ends"
					},
					"NewBid(address,uint256)": {
						"notice": "Emitted when a new bid is placed"
					},
					"OwnerWithdrawal(address,uint256)": {
						"notice": "Emitted when the owner withdraws the winning bid amount"
					},
					"PartialRefund(address,uint256)": {
						"notice": "Emitted when a partial refund is processed"
					},
					"Refunded(address,uint256)": {
						"notice": "Emitted when a full refund is processed"
					}
				},
				"kind": "user",
				"methods": {
					"bid()": {
						"notice": "Places a bid in the auction"
					},
					"commissionRate()": {
						"notice": "Commission rate percentage taken from refunds"
					},
					"constructor": {
						"notice": "Contract constructor initializing auction parameters"
					},
					"endAuction()": {
						"notice": "Ends the auction and declares the winner"
					},
					"endTime()": {
						"notice": "Timestamp when the auction will end"
					},
					"extensionTime()": {
						"notice": "Time extension applied when bids are placed near end"
					},
					"getAllBids()": {
						"notice": "Get all bids placed in auction"
					},
					"getRemainingTime()": {
						"notice": "Get remaining auction time"
					},
					"getWinner()": {
						"notice": "Get winner information"
					},
					"highestBidder()": {
						"notice": "Current highest bidder information"
					},
					"isAuctionEnded()": {
						"notice": "Flag indicating if auction has been ended"
					},
					"minBidIncrease()": {
						"notice": "Minimum percentage increase for new bids (e.g., 105 = 5% increase)"
					},
					"owner()": {
						"notice": "Contract owner address"
					},
					"pendingReturns(address)": {
						"notice": "Mapping of addresses to their pending refund amounts"
					},
					"withdraw()": {
						"notice": "Withdraw refundable amounts"
					},
					"withdrawWinningBid()": {
						"notice": "Withdraws the winning bid amount to the owner"
					}
				},
				"version": 1
			}
		}
	}
}